{
	"myNFT.sol": {
		"MyNFT": {
			"abi": [
				{
					"inputs": [
						{
							"internalType": "string",
							"name": "_name",
							"type": "string"
						},
						{
							"internalType": "string",
							"name": "_symbol",
							"type": "string"
						}
					],
					"stateMutability": "nonpayable",
					"type": "constructor"
				},
				{
					"inputs": [
						{
							"internalType": "address",
							"name": "sender",
							"type": "address"
						},
						{
							"internalType": "uint256",
							"name": "tokenId",
							"type": "uint256"
						},
						{
							"internalType": "address",
							"name": "owner",
							"type": "address"
						}
					],
					"name": "ERC721IncorrectOwner",
					"type": "error"
				},
				{
					"inputs": [
						{
							"internalType": "address",
							"name": "operator",
							"type": "address"
						},
						{
							"internalType": "uint256",
							"name": "tokenId",
							"type": "uint256"
						}
					],
					"name": "ERC721InsufficientApproval",
					"type": "error"
				},
				{
					"inputs": [
						{
							"internalType": "address",
							"name": "approver",
							"type": "address"
						}
					],
					"name": "ERC721InvalidApprover",
					"type": "error"
				},
				{
					"inputs": [
						{
							"internalType": "address",
							"name": "operator",
							"type": "address"
						}
					],
					"name": "ERC721InvalidOperator",
					"type": "error"
				},
				{
					"inputs": [
						{
							"internalType": "address",
							"name": "owner",
							"type": "address"
						}
					],
					"name": "ERC721InvalidOwner",
					"type": "error"
				},
				{
					"inputs": [
						{
							"internalType": "address",
							"name": "receiver",
							"type": "address"
						}
					],
					"name": "ERC721InvalidReceiver",
					"type": "error"
				},
				{
					"inputs": [
						{
							"internalType": "address",
							"name": "sender",
							"type": "address"
						}
					],
					"name": "ERC721InvalidSender",
					"type": "error"
				},
				{
					"inputs": [
						{
							"internalType": "uint256",
							"name": "tokenId",
							"type": "uint256"
						}
					],
					"name": "ERC721NonexistentToken",
					"type": "error"
				},
				{
					"anonymous": false,
					"inputs": [
						{
							"indexed": true,
							"internalType": "address",
							"name": "owner",
							"type": "address"
						},
						{
							"indexed": true,
							"internalType": "address",
							"name": "approved",
							"type": "address"
						},
						{
							"indexed": true,
							"internalType": "uint256",
							"name": "tokenId",
							"type": "uint256"
						}
					],
					"name": "Approval",
					"type": "event"
				},
				{
					"anonymous": false,
					"inputs": [
						{
							"indexed": true,
							"internalType": "address",
							"name": "owner",
							"type": "address"
						},
						{
							"indexed": true,
							"internalType": "address",
							"name": "operator",
							"type": "address"
						},
						{
							"indexed": false,
							"internalType": "bool",
							"name": "approved",
							"type": "bool"
						}
					],
					"name": "ApprovalForAll",
					"type": "event"
				},
				{
					"anonymous": false,
					"inputs": [
						{
							"indexed": true,
							"internalType": "address",
							"name": "from",
							"type": "address"
						},
						{
							"indexed": true,
							"internalType": "address",
							"name": "to",
							"type": "address"
						},
						{
							"indexed": true,
							"internalType": "uint256",
							"name": "tokenId",
							"type": "uint256"
						}
					],
					"name": "Transfer",
					"type": "event"
				},
				{
					"inputs": [
						{
							"internalType": "address",
							"name": "to",
							"type": "address"
						},
						{
							"internalType": "uint256",
							"name": "tokenId",
							"type": "uint256"
						}
					],
					"name": "approve",
					"outputs": [],
					"stateMutability": "nonpayable",
					"type": "function"
				},
				{
					"inputs": [
						{
							"internalType": "address",
							"name": "owner",
							"type": "address"
						}
					],
					"name": "balanceOf",
					"outputs": [
						{
							"internalType": "uint256",
							"name": "",
							"type": "uint256"
						}
					],
					"stateMutability": "view",
					"type": "function"
				},
				{
					"inputs": [
						{
							"internalType": "uint256",
							"name": "tokenId",
							"type": "uint256"
						}
					],
					"name": "getApproved",
					"outputs": [
						{
							"internalType": "address",
							"name": "",
							"type": "address"
						}
					],
					"stateMutability": "view",
					"type": "function"
				},
				{
					"inputs": [
						{
							"internalType": "address",
							"name": "owner",
							"type": "address"
						},
						{
							"internalType": "address",
							"name": "operator",
							"type": "address"
						}
					],
					"name": "isApprovedForAll",
					"outputs": [
						{
							"internalType": "bool",
							"name": "",
							"type": "bool"
						}
					],
					"stateMutability": "view",
					"type": "function"
				},
				{
					"inputs": [
						{
							"internalType": "uint256",
							"name": "_tokenId",
							"type": "uint256"
						}
					],
					"name": "minting",
					"outputs": [],
					"stateMutability": "nonpayable",
					"type": "function"
				},
				{
					"inputs": [],
					"name": "name",
					"outputs": [
						{
							"internalType": "string",
							"name": "",
							"type": "string"
						}
					],
					"stateMutability": "view",
					"type": "function"
				},
				{
					"inputs": [
						{
							"internalType": "uint256",
							"name": "tokenId",
							"type": "uint256"
						}
					],
					"name": "ownerOf",
					"outputs": [
						{
							"internalType": "address",
							"name": "",
							"type": "address"
						}
					],
					"stateMutability": "view",
					"type": "function"
				},
				{
					"inputs": [
						{
							"internalType": "address",
							"name": "from",
							"type": "address"
						},
						{
							"internalType": "address",
							"name": "to",
							"type": "address"
						},
						{
							"internalType": "uint256",
							"name": "tokenId",
							"type": "uint256"
						}
					],
					"name": "safeTransferFrom",
					"outputs": [],
					"stateMutability": "nonpayable",
					"type": "function"
				},
				{
					"inputs": [
						{
							"internalType": "address",
							"name": "from",
							"type": "address"
						},
						{
							"internalType": "address",
							"name": "to",
							"type": "address"
						},
						{
							"internalType": "uint256",
							"name": "tokenId",
							"type": "uint256"
						},
						{
							"internalType": "bytes",
							"name": "data",
							"type": "bytes"
						}
					],
					"name": "safeTransferFrom",
					"outputs": [],
					"stateMutability": "nonpayable",
					"type": "function"
				},
				{
					"inputs": [
						{
							"internalType": "address",
							"name": "operator",
							"type": "address"
						},
						{
							"internalType": "bool",
							"name": "approved",
							"type": "bool"
						}
					],
					"name": "setApprovalForAll",
					"outputs": [],
					"stateMutability": "nonpayable",
					"type": "function"
				},
				{
					"inputs": [
						{
							"internalType": "bytes4",
							"name": "interfaceId",
							"type": "bytes4"
						}
					],
					"name": "supportsInterface",
					"outputs": [
						{
							"internalType": "bool",
							"name": "",
							"type": "bool"
						}
					],
					"stateMutability": "view",
					"type": "function"
				},
				{
					"inputs": [],
					"name": "symbol",
					"outputs": [
						{
							"internalType": "string",
							"name": "",
							"type": "string"
						}
					],
					"stateMutability": "view",
					"type": "function"
				},
				{
					"inputs": [
						{
							"internalType": "uint256",
							"name": "_tokenId",
							"type": "uint256"
						}
					],
					"name": "tokenURI",
					"outputs": [
						{
							"internalType": "string",
							"name": "",
							"type": "string"
						}
					],
					"stateMutability": "view",
					"type": "function"
				},
				{
					"inputs": [
						{
							"internalType": "address",
							"name": "from",
							"type": "address"
						},
						{
							"internalType": "address",
							"name": "to",
							"type": "address"
						},
						{
							"internalType": "uint256",
							"name": "tokenId",
							"type": "uint256"
						}
					],
					"name": "transferFrom",
					"outputs": [],
					"stateMutability": "nonpayable",
					"type": "function"
				}
			],
			"devdoc": {
				"errors": {
					"ERC721IncorrectOwner(address,uint256,address)": [
						{
							"details": "Indicates an error related to the ownership over a particular token. Used in transfers.",
							"params": {
								"owner": "Address of the current owner of a token.",
								"sender": "Address whose tokens are being transferred.",
								"tokenId": "Identifier number of a token."
							}
						}
					],
					"ERC721InsufficientApproval(address,uint256)": [
						{
							"details": "Indicates a failure with the `operator`’s approval. Used in transfers.",
							"params": {
								"operator": "Address that may be allowed to operate on tokens without being their owner.",
								"tokenId": "Identifier number of a token."
							}
						}
					],
					"ERC721InvalidApprover(address)": [
						{
							"details": "Indicates a failure with the `approver` of a token to be approved. Used in approvals.",
							"params": {
								"approver": "Address initiating an approval operation."
							}
						}
					],
					"ERC721InvalidOperator(address)": [
						{
							"details": "Indicates a failure with the `operator` to be approved. Used in approvals.",
							"params": {
								"operator": "Address that may be allowed to operate on tokens without being their owner."
							}
						}
					],
					"ERC721InvalidOwner(address)": [
						{
							"details": "Indicates that an address can't be an owner. For example, `address(0)` is a forbidden owner in EIP-20. Used in balance queries.",
							"params": {
								"owner": "Address of the current owner of a token."
							}
						}
					],
					"ERC721InvalidReceiver(address)": [
						{
							"details": "Indicates a failure with the token `receiver`. Used in transfers.",
							"params": {
								"receiver": "Address to which tokens are being transferred."
							}
						}
					],
					"ERC721InvalidSender(address)": [
						{
							"details": "Indicates a failure with the token `sender`. Used in transfers.",
							"params": {
								"sender": "Address whose tokens are being transferred."
							}
						}
					],
					"ERC721NonexistentToken(uint256)": [
						{
							"details": "Indicates a `tokenId` whose `owner` is the zero address.",
							"params": {
								"tokenId": "Identifier number of a token."
							}
						}
					]
				},
				"events": {
					"Approval(address,address,uint256)": {
						"details": "Emitted when `owner` enables `approved` to manage the `tokenId` token."
					},
					"ApprovalForAll(address,address,bool)": {
						"details": "Emitted when `owner` enables or disables (`approved`) `operator` to manage all of its assets."
					},
					"Transfer(address,address,uint256)": {
						"details": "Emitted when `tokenId` token is transferred from `from` to `to`."
					}
				},
				"kind": "dev",
				"methods": {
					"approve(address,uint256)": {
						"details": "See {IERC721-approve}."
					},
					"balanceOf(address)": {
						"details": "See {IERC721-balanceOf}."
					},
					"getApproved(uint256)": {
						"details": "See {IERC721-getApproved}."
					},
					"isApprovedForAll(address,address)": {
						"details": "See {IERC721-isApprovedForAll}."
					},
					"name()": {
						"details": "See {IERC721Metadata-name}."
					},
					"ownerOf(uint256)": {
						"details": "See {IERC721-ownerOf}."
					},
					"safeTransferFrom(address,address,uint256)": {
						"details": "See {IERC721-safeTransferFrom}."
					},
					"safeTransferFrom(address,address,uint256,bytes)": {
						"details": "See {IERC721-safeTransferFrom}."
					},
					"setApprovalForAll(address,bool)": {
						"details": "See {IERC721-setApprovalForAll}."
					},
					"supportsInterface(bytes4)": {
						"details": "See {IERC165-supportsInterface}."
					},
					"symbol()": {
						"details": "See {IERC721Metadata-symbol}."
					},
					"transferFrom(address,address,uint256)": {
						"details": "See {IERC721-transferFrom}."
					}
				},
				"version": 1
			},
			"evm": {
				"assembly": "    /* \"myNFT.sol\":137:709  contract MyNFT is ERC721 {... */\n  mstore(0x40, 0x80)\n    /* \"myNFT.sol\":169:275  constructor(... */\n  callvalue\n  dup1\n  iszero\n  tag_1\n  jumpi\n  0x00\n  dup1\n  revert\ntag_1:\n  pop\n  mload(0x40)\n  sub(codesize, bytecodeSize)\n  dup1\n  bytecodeSize\n  dup4\n  codecopy\n  dup2\n  dup2\n  add\n  0x40\n  mstore\n  dup2\n  add\n  swap1\n  tag_2\n  swap2\n  swap1\n  tag_3\n  jump\t// in\ntag_2:\n    /* \"myNFT.sol\":257:262  _name */\n  dup2\n    /* \"myNFT.sol\":264:271  _symbol */\n  dup2\n    /* \"node_modules/@openzeppelin/contracts/token/ERC721/ERC721.sol\":2362:2367  name_ */\n  dup2\n    /* \"node_modules/@openzeppelin/contracts/token/ERC721/ERC721.sol\":2354:2359  _name */\n  0x00\n    /* \"node_modules/@openzeppelin/contracts/token/ERC721/ERC721.sol\":2354:2367  _name = name_ */\n  swap1\n  dup2\n  tag_7\n  swap2\n  swap1\n  tag_8\n  jump\t// in\ntag_7:\n  pop\n    /* \"node_modules/@openzeppelin/contracts/token/ERC721/ERC721.sol\":2387:2394  symbol_ */\n  dup1\n    /* \"node_modules/@openzeppelin/contracts/token/ERC721/ERC721.sol\":2377:2384  _symbol */\n  0x01\n    /* \"node_modules/@openzeppelin/contracts/token/ERC721/ERC721.sol\":2377:2394  _symbol = symbol_ */\n  swap1\n  dup2\n  tag_9\n  swap2\n  swap1\n  tag_8\n  jump\t// in\ntag_9:\n  pop\n    /* \"node_modules/@openzeppelin/contracts/token/ERC721/ERC721.sol\":2288:2401  constructor(string memory name_, string memory symbol_) {... */\n  pop\n  pop\n    /* \"myNFT.sol\":169:275  constructor(... */\n  pop\n  pop\n    /* \"myNFT.sol\":137:709  contract MyNFT is ERC721 {... */\n  jump(tag_11)\n    /* \"#utility.yul\":7:82   */\ntag_12:\n    /* \"#utility.yul\":40:46   */\n  0x00\n    /* \"#utility.yul\":73:75   */\n  0x40\n    /* \"#utility.yul\":67:76   */\n  mload\n    /* \"#utility.yul\":57:76   */\n  swap1\n  pop\n    /* \"#utility.yul\":7:82   */\n  swap1\n  jump\t// out\n    /* \"#utility.yul\":88:205   */\ntag_13:\n    /* \"#utility.yul\":197:198   */\n  0x00\n    /* \"#utility.yul\":194:195   */\n  dup1\n    /* \"#utility.yul\":187:199   */\n  revert\n    /* \"#utility.yul\":211:328   */\ntag_14:\n    /* \"#utility.yul\":320:321   */\n  0x00\n    /* \"#utility.yul\":317:318   */\n  dup1\n    /* \"#utility.yul\":310:322   */\n  revert\n    /* \"#utility.yul\":334:451   */\ntag_15:\n    /* \"#utility.yul\":443:444   */\n  0x00\n    /* \"#utility.yul\":440:441   */\n  dup1\n    /* \"#utility.yul\":433:445   */\n  revert\n    /* \"#utility.yul\":457:574   */\ntag_16:\n    /* \"#utility.yul\":566:567   */\n  0x00\n    /* \"#utility.yul\":563:564   */\n  dup1\n    /* \"#utility.yul\":556:568   */\n  revert\n    /* \"#utility.yul\":580:682   */\ntag_17:\n    /* \"#utility.yul\":621:627   */\n  0x00\n    /* \"#utility.yul\":672:674   */\n  0x1f\n    /* \"#utility.yul\":668:675   */\n  not\n    /* \"#utility.yul\":663:665   */\n  0x1f\n    /* \"#utility.yul\":656:661   */\n  dup4\n    /* \"#utility.yul\":652:666   */\n  add\n    /* \"#utility.yul\":648:676   */\n  and\n    /* \"#utility.yul\":638:676   */\n  swap1\n  pop\n    /* \"#utility.yul\":580:682   */\n  swap2\n  swap1\n  pop\n  jump\t// out\n    /* \"#utility.yul\":688:868   */\ntag_18:\n    /* \"#utility.yul\":736:813   */\n  0x4e487b7100000000000000000000000000000000000000000000000000000000\n    /* \"#utility.yul\":733:734   */\n  0x00\n    /* \"#utility.yul\":726:814   */\n  mstore\n    /* \"#utility.yul\":833:837   */\n  0x41\n    /* \"#utility.yul\":830:831   */\n  0x04\n    /* \"#utility.yul\":823:838   */\n  mstore\n    /* \"#utility.yul\":857:861   */\n  0x24\n    /* \"#utility.yul\":854:855   */\n  0x00\n    /* \"#utility.yul\":847:862   */\n  revert\n    /* \"#utility.yul\":874:1155   */\ntag_19:\n    /* \"#utility.yul\":957:984   */\n  tag_53\n    /* \"#utility.yul\":979:983   */\n  dup3\n    /* \"#utility.yul\":957:984   */\n  tag_17\n  jump\t// in\ntag_53:\n    /* \"#utility.yul\":949:955   */\n  dup2\n    /* \"#utility.yul\":945:985   */\n  add\n    /* \"#utility.yul\":1087:1093   */\n  dup2\n    /* \"#utility.yul\":1075:1085   */\n  dup2\n    /* \"#utility.yul\":1072:1094   */\n  lt\n    /* \"#utility.yul\":1051:1069   */\n  0xffffffffffffffff\n    /* \"#utility.yul\":1039:1049   */\n  dup3\n    /* \"#utility.yul\":1036:1070   */\n  gt\n    /* \"#utility.yul\":1033:1095   */\n  or\n    /* \"#utility.yul\":1030:1118   */\n  iszero\n  tag_54\n  jumpi\n    /* \"#utility.yul\":1098:1116   */\n  tag_55\n  tag_18\n  jump\t// in\ntag_55:\n    /* \"#utility.yul\":1030:1118   */\ntag_54:\n    /* \"#utility.yul\":1138:1148   */\n  dup1\n    /* \"#utility.yul\":1134:1136   */\n  0x40\n    /* \"#utility.yul\":1127:1149   */\n  mstore\n    /* \"#utility.yul\":917:1155   */\n  pop\n    /* \"#utility.yul\":874:1155   */\n  pop\n  pop\n  jump\t// out\n    /* \"#utility.yul\":1161:1290   */\ntag_20:\n    /* \"#utility.yul\":1195:1201   */\n  0x00\n    /* \"#utility.yul\":1222:1242   */\n  tag_57\n  tag_12\n  jump\t// in\ntag_57:\n    /* \"#utility.yul\":1212:1242   */\n  swap1\n  pop\n    /* \"#utility.yul\":1251:1284   */\n  tag_58\n    /* \"#utility.yul\":1279:1283   */\n  dup3\n    /* \"#utility.yul\":1271:1277   */\n  dup3\n    /* \"#utility.yul\":1251:1284   */\n  tag_19\n  jump\t// in\ntag_58:\n    /* \"#utility.yul\":1161:1290   */\n  swap2\n  swap1\n  pop\n  jump\t// out\n    /* \"#utility.yul\":1296:1604   */\ntag_21:\n    /* \"#utility.yul\":1358:1362   */\n  0x00\n    /* \"#utility.yul\":1448:1466   */\n  0xffffffffffffffff\n    /* \"#utility.yul\":1440:1446   */\n  dup3\n    /* \"#utility.yul\":1437:1467   */\n  gt\n    /* \"#utility.yul\":1434:1490   */\n  iszero\n  tag_60\n  jumpi\n    /* \"#utility.yul\":1470:1488   */\n  tag_61\n  tag_18\n  jump\t// in\ntag_61:\n    /* \"#utility.yul\":1434:1490   */\ntag_60:\n    /* \"#utility.yul\":1508:1537   */\n  tag_62\n    /* \"#utility.yul\":1530:1536   */\n  dup3\n    /* \"#utility.yul\":1508:1537   */\n  tag_17\n  jump\t// in\ntag_62:\n    /* \"#utility.yul\":1500:1537   */\n  swap1\n  pop\n    /* \"#utility.yul\":1592:1596   */\n  0x20\n    /* \"#utility.yul\":1586:1590   */\n  dup2\n    /* \"#utility.yul\":1582:1597   */\n  add\n    /* \"#utility.yul\":1574:1597   */\n  swap1\n  pop\n    /* \"#utility.yul\":1296:1604   */\n  swap2\n  swap1\n  pop\n  jump\t// out\n    /* \"#utility.yul\":1610:1856   */\ntag_22:\n    /* \"#utility.yul\":1691:1692   */\n  0x00\n    /* \"#utility.yul\":1701:1814   */\ntag_64:\n    /* \"#utility.yul\":1715:1721   */\n  dup4\n    /* \"#utility.yul\":1712:1713   */\n  dup2\n    /* \"#utility.yul\":1709:1722   */\n  lt\n    /* \"#utility.yul\":1701:1814   */\n  iszero\n  tag_66\n  jumpi\n    /* \"#utility.yul\":1800:1801   */\n  dup1\n    /* \"#utility.yul\":1795:1798   */\n  dup3\n    /* \"#utility.yul\":1791:1802   */\n  add\n    /* \"#utility.yul\":1785:1803   */\n  mload\n    /* \"#utility.yul\":1781:1782   */\n  dup2\n    /* \"#utility.yul\":1776:1779   */\n  dup5\n    /* \"#utility.yul\":1772:1783   */\n  add\n    /* \"#utility.yul\":1765:1804   */\n  mstore\n    /* \"#utility.yul\":1737:1739   */\n  0x20\n    /* \"#utility.yul\":1734:1735   */\n  dup2\n    /* \"#utility.yul\":1730:1740   */\n  add\n    /* \"#utility.yul\":1725:1740   */\n  swap1\n  pop\n    /* \"#utility.yul\":1701:1814   */\n  jump(tag_64)\ntag_66:\n    /* \"#utility.yul\":1848:1849   */\n  0x00\n    /* \"#utility.yul\":1839:1845   */\n  dup5\n    /* \"#utility.yul\":1834:1837   */\n  dup5\n    /* \"#utility.yul\":1830:1846   */\n  add\n    /* \"#utility.yul\":1823:1850   */\n  mstore\n    /* \"#utility.yul\":1672:1856   */\n  pop\n    /* \"#utility.yul\":1610:1856   */\n  pop\n  pop\n  pop\n  jump\t// out\n    /* \"#utility.yul\":1862:2296   */\ntag_23:\n    /* \"#utility.yul\":1951:1956   */\n  0x00\n    /* \"#utility.yul\":1976:2042   */\n  tag_68\n    /* \"#utility.yul\":1992:2041   */\n  tag_69\n    /* \"#utility.yul\":2034:2040   */\n  dup5\n    /* \"#utility.yul\":1992:2041   */\n  tag_21\n  jump\t// in\ntag_69:\n    /* \"#utility.yul\":1976:2042   */\n  tag_20\n  jump\t// in\ntag_68:\n    /* \"#utility.yul\":1967:2042   */\n  swap1\n  pop\n    /* \"#utility.yul\":2065:2071   */\n  dup3\n    /* \"#utility.yul\":2058:2063   */\n  dup2\n    /* \"#utility.yul\":2051:2072   */\n  mstore\n    /* \"#utility.yul\":2103:2107   */\n  0x20\n    /* \"#utility.yul\":2096:2101   */\n  dup2\n    /* \"#utility.yul\":2092:2108   */\n  add\n    /* \"#utility.yul\":2141:2144   */\n  dup5\n    /* \"#utility.yul\":2132:2138   */\n  dup5\n    /* \"#utility.yul\":2127:2130   */\n  dup5\n    /* \"#utility.yul\":2123:2139   */\n  add\n    /* \"#utility.yul\":2120:2145   */\n  gt\n    /* \"#utility.yul\":2117:2229   */\n  iszero\n  tag_70\n  jumpi\n    /* \"#utility.yul\":2148:2227   */\n  tag_71\n  tag_16\n  jump\t// in\ntag_71:\n    /* \"#utility.yul\":2117:2229   */\ntag_70:\n    /* \"#utility.yul\":2238:2290   */\n  tag_72\n    /* \"#utility.yul\":2283:2289   */\n  dup5\n    /* \"#utility.yul\":2278:2281   */\n  dup3\n    /* \"#utility.yul\":2273:2276   */\n  dup6\n    /* \"#utility.yul\":2238:2290   */\n  tag_22\n  jump\t// in\ntag_72:\n    /* \"#utility.yul\":1957:2296   */\n  pop\n    /* \"#utility.yul\":1862:2296   */\n  swap4\n  swap3\n  pop\n  pop\n  pop\n  jump\t// out\n    /* \"#utility.yul\":2316:2671   */\ntag_24:\n    /* \"#utility.yul\":2383:2388   */\n  0x00\n    /* \"#utility.yul\":2432:2435   */\n  dup3\n    /* \"#utility.yul\":2425:2429   */\n  0x1f\n    /* \"#utility.yul\":2417:2423   */\n  dup4\n    /* \"#utility.yul\":2413:2430   */\n  add\n    /* \"#utility.yul\":2409:2436   */\n  slt\n    /* \"#utility.yul\":2399:2521   */\n  tag_74\n  jumpi\n    /* \"#utility.yul\":2440:2519   */\n  tag_75\n  tag_15\n  jump\t// in\ntag_75:\n    /* \"#utility.yul\":2399:2521   */\ntag_74:\n    /* \"#utility.yul\":2550:2556   */\n  dup2\n    /* \"#utility.yul\":2544:2557   */\n  mload\n    /* \"#utility.yul\":2575:2665   */\n  tag_76\n    /* \"#utility.yul\":2661:2664   */\n  dup5\n    /* \"#utility.yul\":2653:2659   */\n  dup3\n    /* \"#utility.yul\":2646:2650   */\n  0x20\n    /* \"#utility.yul\":2638:2644   */\n  dup7\n    /* \"#utility.yul\":2634:2651   */\n  add\n    /* \"#utility.yul\":2575:2665   */\n  tag_23\n  jump\t// in\ntag_76:\n    /* \"#utility.yul\":2566:2665   */\n  swap2\n  pop\n    /* \"#utility.yul\":2389:2671   */\n  pop\n    /* \"#utility.yul\":2316:2671   */\n  swap3\n  swap2\n  pop\n  pop\n  jump\t// out\n    /* \"#utility.yul\":2677:3530   */\ntag_3:\n    /* \"#utility.yul\":2776:2782   */\n  0x00\n    /* \"#utility.yul\":2784:2790   */\n  dup1\n    /* \"#utility.yul\":2833:2835   */\n  0x40\n    /* \"#utility.yul\":2821:2830   */\n  dup4\n    /* \"#utility.yul\":2812:2819   */\n  dup6\n    /* \"#utility.yul\":2808:2831   */\n  sub\n    /* \"#utility.yul\":2804:2836   */\n  slt\n    /* \"#utility.yul\":2801:2920   */\n  iszero\n  tag_78\n  jumpi\n    /* \"#utility.yul\":2839:2918   */\n  tag_79\n  tag_13\n  jump\t// in\ntag_79:\n    /* \"#utility.yul\":2801:2920   */\ntag_78:\n    /* \"#utility.yul\":2980:2981   */\n  0x00\n    /* \"#utility.yul\":2969:2978   */\n  dup4\n    /* \"#utility.yul\":2965:2982   */\n  add\n    /* \"#utility.yul\":2959:2983   */\n  mload\n    /* \"#utility.yul\":3010:3028   */\n  0xffffffffffffffff\n    /* \"#utility.yul\":3002:3008   */\n  dup2\n    /* \"#utility.yul\":2999:3029   */\n  gt\n    /* \"#utility.yul\":2996:3113   */\n  iszero\n  tag_80\n  jumpi\n    /* \"#utility.yul\":3032:3111   */\n  tag_81\n  tag_14\n  jump\t// in\ntag_81:\n    /* \"#utility.yul\":2996:3113   */\ntag_80:\n    /* \"#utility.yul\":3137:3211   */\n  tag_82\n    /* \"#utility.yul\":3203:3210   */\n  dup6\n    /* \"#utility.yul\":3194:3200   */\n  dup3\n    /* \"#utility.yul\":3183:3192   */\n  dup7\n    /* \"#utility.yul\":3179:3201   */\n  add\n    /* \"#utility.yul\":3137:3211   */\n  tag_24\n  jump\t// in\ntag_82:\n    /* \"#utility.yul\":3127:3211   */\n  swap3\n  pop\n    /* \"#utility.yul\":2930:3221   */\n  pop\n    /* \"#utility.yul\":3281:3283   */\n  0x20\n    /* \"#utility.yul\":3270:3279   */\n  dup4\n    /* \"#utility.yul\":3266:3284   */\n  add\n    /* \"#utility.yul\":3260:3285   */\n  mload\n    /* \"#utility.yul\":3312:3330   */\n  0xffffffffffffffff\n    /* \"#utility.yul\":3304:3310   */\n  dup2\n    /* \"#utility.yul\":3301:3331   */\n  gt\n    /* \"#utility.yul\":3298:3415   */\n  iszero\n  tag_83\n  jumpi\n    /* \"#utility.yul\":3334:3413   */\n  tag_84\n  tag_14\n  jump\t// in\ntag_84:\n    /* \"#utility.yul\":3298:3415   */\ntag_83:\n    /* \"#utility.yul\":3439:3513   */\n  tag_85\n    /* \"#utility.yul\":3505:3512   */\n  dup6\n    /* \"#utility.yul\":3496:3502   */\n  dup3\n    /* \"#utility.yul\":3485:3494   */\n  dup7\n    /* \"#utility.yul\":3481:3503   */\n  add\n    /* \"#utility.yul\":3439:3513   */\n  tag_24\n  jump\t// in\ntag_85:\n    /* \"#utility.yul\":3429:3513   */\n  swap2\n  pop\n    /* \"#utility.yul\":3231:3523   */\n  pop\n    /* \"#utility.yul\":2677:3530   */\n  swap3\n  pop\n  swap3\n  swap1\n  pop\n  jump\t// out\n    /* \"#utility.yul\":3536:3635   */\ntag_25:\n    /* \"#utility.yul\":3588:3594   */\n  0x00\n    /* \"#utility.yul\":3622:3627   */\n  dup2\n    /* \"#utility.yul\":3616:3628   */\n  mload\n    /* \"#utility.yul\":3606:3628   */\n  swap1\n  pop\n    /* \"#utility.yul\":3536:3635   */\n  swap2\n  swap1\n  pop\n  jump\t// out\n    /* \"#utility.yul\":3641:3821   */\ntag_26:\n    /* \"#utility.yul\":3689:3766   */\n  0x4e487b7100000000000000000000000000000000000000000000000000000000\n    /* \"#utility.yul\":3686:3687   */\n  0x00\n    /* \"#utility.yul\":3679:3767   */\n  mstore\n    /* \"#utility.yul\":3786:3790   */\n  0x22\n    /* \"#utility.yul\":3783:3784   */\n  0x04\n    /* \"#utility.yul\":3776:3791   */\n  mstore\n    /* \"#utility.yul\":3810:3814   */\n  0x24\n    /* \"#utility.yul\":3807:3808   */\n  0x00\n    /* \"#utility.yul\":3800:3815   */\n  revert\n    /* \"#utility.yul\":3827:4147   */\ntag_27:\n    /* \"#utility.yul\":3871:3877   */\n  0x00\n    /* \"#utility.yul\":3908:3909   */\n  0x02\n    /* \"#utility.yul\":3902:3906   */\n  dup3\n    /* \"#utility.yul\":3898:3910   */\n  div\n    /* \"#utility.yul\":3888:3910   */\n  swap1\n  pop\n    /* \"#utility.yul\":3955:3956   */\n  0x01\n    /* \"#utility.yul\":3949:3953   */\n  dup3\n    /* \"#utility.yul\":3945:3957   */\n  and\n    /* \"#utility.yul\":3976:3994   */\n  dup1\n    /* \"#utility.yul\":3966:4047   */\n  tag_89\n  jumpi\n    /* \"#utility.yul\":4032:4036   */\n  0x7f\n    /* \"#utility.yul\":4024:4030   */\n  dup3\n    /* \"#utility.yul\":4020:4037   */\n  and\n    /* \"#utility.yul\":4010:4037   */\n  swap2\n  pop\n    /* \"#utility.yul\":3966:4047   */\ntag_89:\n    /* \"#utility.yul\":4094:4096   */\n  0x20\n    /* \"#utility.yul\":4086:4092   */\n  dup3\n    /* \"#utility.yul\":4083:4097   */\n  lt\n    /* \"#utility.yul\":4063:4081   */\n  dup2\n    /* \"#utility.yul\":4060:4098   */\n  sub\n    /* \"#utility.yul\":4057:4141   */\n  tag_90\n  jumpi\n    /* \"#utility.yul\":4113:4131   */\n  tag_91\n  tag_26\n  jump\t// in\ntag_91:\n    /* \"#utility.yul\":4057:4141   */\ntag_90:\n    /* \"#utility.yul\":3878:4147   */\n  pop\n    /* \"#utility.yul\":3827:4147   */\n  swap2\n  swap1\n  pop\n  jump\t// out\n    /* \"#utility.yul\":4153:4294   */\ntag_28:\n    /* \"#utility.yul\":4202:4206   */\n  0x00\n    /* \"#utility.yul\":4225:4228   */\n  dup2\n    /* \"#utility.yul\":4217:4228   */\n  swap1\n  pop\n    /* \"#utility.yul\":4248:4251   */\n  dup2\n    /* \"#utility.yul\":4245:4246   */\n  0x00\n    /* \"#utility.yul\":4238:4252   */\n  mstore\n    /* \"#utility.yul\":4282:4286   */\n  0x20\n    /* \"#utility.yul\":4279:4280   */\n  0x00\n    /* \"#utility.yul\":4269:4287   */\n  keccak256\n    /* \"#utility.yul\":4261:4287   */\n  swap1\n  pop\n    /* \"#utility.yul\":4153:4294   */\n  swap2\n  swap1\n  pop\n  jump\t// out\n    /* \"#utility.yul\":4300:4393   */\ntag_29:\n    /* \"#utility.yul\":4337:4343   */\n  0x00\n    /* \"#utility.yul\":4384:4386   */\n  0x20\n    /* \"#utility.yul\":4379:4381   */\n  0x1f\n    /* \"#utility.yul\":4372:4377   */\n  dup4\n    /* \"#utility.yul\":4368:4382   */\n  add\n    /* \"#utility.yul\":4364:4387   */\n  div\n    /* \"#utility.yul\":4354:4387   */\n  swap1\n  pop\n    /* \"#utility.yul\":4300:4393   */\n  swap2\n  swap1\n  pop\n  jump\t// out\n    /* \"#utility.yul\":4399:4506   */\ntag_30:\n    /* \"#utility.yul\":4443:4451   */\n  0x00\n    /* \"#utility.yul\":4493:4498   */\n  dup3\n    /* \"#utility.yul\":4487:4491   */\n  dup3\n    /* \"#utility.yul\":4483:4499   */\n  shl\n    /* \"#utility.yul\":4462:4499   */\n  swap1\n  pop\n    /* \"#utility.yul\":4399:4506   */\n  swap3\n  swap2\n  pop\n  pop\n  jump\t// out\n    /* \"#utility.yul\":4512:4905   */\ntag_31:\n    /* \"#utility.yul\":4581:4587   */\n  0x00\n    /* \"#utility.yul\":4631:4632   */\n  0x08\n    /* \"#utility.yul\":4619:4629   */\n  dup4\n    /* \"#utility.yul\":4615:4633   */\n  mul\n    /* \"#utility.yul\":4654:4751   */\n  tag_96\n    /* \"#utility.yul\":4684:4750   */\n  0xffffffffffffffffffffffffffffffffffffffffffffffffffffffffffffffff\n    /* \"#utility.yul\":4673:4682   */\n  dup3\n    /* \"#utility.yul\":4654:4751   */\n  tag_30\n  jump\t// in\ntag_96:\n    /* \"#utility.yul\":4772:4811   */\n  tag_97\n    /* \"#utility.yul\":4802:4810   */\n  dup7\n    /* \"#utility.yul\":4791:4800   */\n  dup4\n    /* \"#utility.yul\":4772:4811   */\n  tag_30\n  jump\t// in\ntag_97:\n    /* \"#utility.yul\":4760:4811   */\n  swap6\n  pop\n    /* \"#utility.yul\":4844:4848   */\n  dup1\n    /* \"#utility.yul\":4840:4849   */\n  not\n    /* \"#utility.yul\":4833:4838   */\n  dup5\n    /* \"#utility.yul\":4829:4850   */\n  and\n    /* \"#utility.yul\":4820:4850   */\n  swap4\n  pop\n    /* \"#utility.yul\":4893:4897   */\n  dup1\n    /* \"#utility.yul\":4883:4891   */\n  dup7\n    /* \"#utility.yul\":4879:4898   */\n  and\n    /* \"#utility.yul\":4872:4877   */\n  dup5\n    /* \"#utility.yul\":4869:4899   */\n  or\n    /* \"#utility.yul\":4859:4899   */\n  swap3\n  pop\n    /* \"#utility.yul\":4588:4905   */\n  pop\n  pop\n    /* \"#utility.yul\":4512:4905   */\n  swap4\n  swap3\n  pop\n  pop\n  pop\n  jump\t// out\n    /* \"#utility.yul\":4911:4988   */\ntag_32:\n    /* \"#utility.yul\":4948:4955   */\n  0x00\n    /* \"#utility.yul\":4977:4982   */\n  dup2\n    /* \"#utility.yul\":4966:4982   */\n  swap1\n  pop\n    /* \"#utility.yul\":4911:4988   */\n  swap2\n  swap1\n  pop\n  jump\t// out\n    /* \"#utility.yul\":4994:5054   */\ntag_33:\n    /* \"#utility.yul\":5022:5025   */\n  0x00\n    /* \"#utility.yul\":5043:5048   */\n  dup2\n    /* \"#utility.yul\":5036:5048   */\n  swap1\n  pop\n    /* \"#utility.yul\":4994:5054   */\n  swap2\n  swap1\n  pop\n  jump\t// out\n    /* \"#utility.yul\":5060:5202   */\ntag_34:\n    /* \"#utility.yul\":5110:5119   */\n  0x00\n    /* \"#utility.yul\":5143:5196   */\n  tag_101\n    /* \"#utility.yul\":5161:5195   */\n  tag_102\n    /* \"#utility.yul\":5170:5194   */\n  tag_103\n    /* \"#utility.yul\":5188:5193   */\n  dup5\n    /* \"#utility.yul\":5170:5194   */\n  tag_32\n  jump\t// in\ntag_103:\n    /* \"#utility.yul\":5161:5195   */\n  tag_33\n  jump\t// in\ntag_102:\n    /* \"#utility.yul\":5143:5196   */\n  tag_32\n  jump\t// in\ntag_101:\n    /* \"#utility.yul\":5130:5196   */\n  swap1\n  pop\n    /* \"#utility.yul\":5060:5202   */\n  swap2\n  swap1\n  pop\n  jump\t// out\n    /* \"#utility.yul\":5208:5283   */\ntag_35:\n    /* \"#utility.yul\":5251:5254   */\n  0x00\n    /* \"#utility.yul\":5272:5277   */\n  dup2\n    /* \"#utility.yul\":5265:5277   */\n  swap1\n  pop\n    /* \"#utility.yul\":5208:5283   */\n  swap2\n  swap1\n  pop\n  jump\t// out\n    /* \"#utility.yul\":5289:5558   */\ntag_36:\n    /* \"#utility.yul\":5399:5438   */\n  tag_106\n    /* \"#utility.yul\":5430:5437   */\n  dup4\n    /* \"#utility.yul\":5399:5438   */\n  tag_34\n  jump\t// in\ntag_106:\n    /* \"#utility.yul\":5460:5551   */\n  tag_107\n    /* \"#utility.yul\":5509:5550   */\n  tag_108\n    /* \"#utility.yul\":5533:5549   */\n  dup3\n    /* \"#utility.yul\":5509:5550   */\n  tag_35\n  jump\t// in\ntag_108:\n    /* \"#utility.yul\":5501:5507   */\n  dup5\n    /* \"#utility.yul\":5494:5498   */\n  dup5\n    /* \"#utility.yul\":5488:5499   */\n  sload\n    /* \"#utility.yul\":5460:5551   */\n  tag_31\n  jump\t// in\ntag_107:\n    /* \"#utility.yul\":5454:5458   */\n  dup3\n    /* \"#utility.yul\":5447:5552   */\n  sstore\n    /* \"#utility.yul\":5365:5558   */\n  pop\n    /* \"#utility.yul\":5289:5558   */\n  pop\n  pop\n  pop\n  jump\t// out\n    /* \"#utility.yul\":5564:5637   */\ntag_37:\n    /* \"#utility.yul\":5609:5612   */\n  0x00\n    /* \"#utility.yul\":5564:5637   */\n  swap1\n  jump\t// out\n    /* \"#utility.yul\":5643:5832   */\ntag_38:\n    /* \"#utility.yul\":5720:5752   */\n  tag_111\n  tag_37\n  jump\t// in\ntag_111:\n    /* \"#utility.yul\":5761:5826   */\n  tag_112\n    /* \"#utility.yul\":5819:5825   */\n  dup2\n    /* \"#utility.yul\":5811:5817   */\n  dup5\n    /* \"#utility.yul\":5805:5809   */\n  dup5\n    /* \"#utility.yul\":5761:5826   */\n  tag_36\n  jump\t// in\ntag_112:\n    /* \"#utility.yul\":5696:5832   */\n  pop\n    /* \"#utility.yul\":5643:5832   */\n  pop\n  pop\n  jump\t// out\n    /* \"#utility.yul\":5838:6024   */\ntag_39:\n    /* \"#utility.yul\":5898:6018   */\ntag_114:\n    /* \"#utility.yul\":5915:5918   */\n  dup2\n    /* \"#utility.yul\":5908:5913   */\n  dup2\n    /* \"#utility.yul\":5905:5919   */\n  lt\n    /* \"#utility.yul\":5898:6018   */\n  iszero\n  tag_116\n  jumpi\n    /* \"#utility.yul\":5969:6008   */\n  tag_117\n    /* \"#utility.yul\":6006:6007   */\n  0x00\n    /* \"#utility.yul\":5999:6004   */\n  dup3\n    /* \"#utility.yul\":5969:6008   */\n  tag_38\n  jump\t// in\ntag_117:\n    /* \"#utility.yul\":5942:5943   */\n  0x01\n    /* \"#utility.yul\":5935:5940   */\n  dup2\n    /* \"#utility.yul\":5931:5944   */\n  add\n    /* \"#utility.yul\":5922:5944   */\n  swap1\n  pop\n    /* \"#utility.yul\":5898:6018   */\n  jump(tag_114)\ntag_116:\n    /* \"#utility.yul\":5838:6024   */\n  pop\n  pop\n  jump\t// out\n    /* \"#utility.yul\":6030:6573   */\ntag_40:\n    /* \"#utility.yul\":6131:6133   */\n  0x1f\n    /* \"#utility.yul\":6126:6129   */\n  dup3\n    /* \"#utility.yul\":6123:6134   */\n  gt\n    /* \"#utility.yul\":6120:6566   */\n  iszero\n  tag_119\n  jumpi\n    /* \"#utility.yul\":6165:6203   */\n  tag_120\n    /* \"#utility.yul\":6197:6202   */\n  dup2\n    /* \"#utility.yul\":6165:6203   */\n  tag_28\n  jump\t// in\ntag_120:\n    /* \"#utility.yul\":6249:6278   */\n  tag_121\n    /* \"#utility.yul\":6267:6277   */\n  dup5\n    /* \"#utility.yul\":6249:6278   */\n  tag_29\n  jump\t// in\ntag_121:\n    /* \"#utility.yul\":6239:6247   */\n  dup2\n    /* \"#utility.yul\":6235:6279   */\n  add\n    /* \"#utility.yul\":6432:6434   */\n  0x20\n    /* \"#utility.yul\":6420:6430   */\n  dup6\n    /* \"#utility.yul\":6417:6435   */\n  lt\n    /* \"#utility.yul\":6414:6463   */\n  iszero\n  tag_122\n  jumpi\n    /* \"#utility.yul\":6453:6461   */\n  dup2\n    /* \"#utility.yul\":6438:6461   */\n  swap1\n  pop\n    /* \"#utility.yul\":6414:6463   */\ntag_122:\n    /* \"#utility.yul\":6476:6556   */\n  tag_123\n    /* \"#utility.yul\":6532:6554   */\n  tag_124\n    /* \"#utility.yul\":6550:6553   */\n  dup6\n    /* \"#utility.yul\":6532:6554   */\n  tag_29\n  jump\t// in\ntag_124:\n    /* \"#utility.yul\":6522:6530   */\n  dup4\n    /* \"#utility.yul\":6518:6555   */\n  add\n    /* \"#utility.yul\":6505:6516   */\n  dup3\n    /* \"#utility.yul\":6476:6556   */\n  tag_39\n  jump\t// in\ntag_123:\n    /* \"#utility.yul\":6135:6566   */\n  pop\n  pop\n    /* \"#utility.yul\":6120:6566   */\ntag_119:\n    /* \"#utility.yul\":6030:6573   */\n  pop\n  pop\n  pop\n  jump\t// out\n    /* \"#utility.yul\":6579:6696   */\ntag_41:\n    /* \"#utility.yul\":6633:6641   */\n  0x00\n    /* \"#utility.yul\":6683:6688   */\n  dup3\n    /* \"#utility.yul\":6677:6681   */\n  dup3\n    /* \"#utility.yul\":6673:6689   */\n  shr\n    /* \"#utility.yul\":6652:6689   */\n  swap1\n  pop\n    /* \"#utility.yul\":6579:6696   */\n  swap3\n  swap2\n  pop\n  pop\n  jump\t// out\n    /* \"#utility.yul\":6702:6871   */\ntag_42:\n    /* \"#utility.yul\":6746:6752   */\n  0x00\n    /* \"#utility.yul\":6779:6830   */\n  tag_127\n    /* \"#utility.yul\":6827:6828   */\n  0x00\n    /* \"#utility.yul\":6823:6829   */\n  not\n    /* \"#utility.yul\":6815:6820   */\n  dup5\n    /* \"#utility.yul\":6812:6813   */\n  0x08\n    /* \"#utility.yul\":6808:6821   */\n  mul\n    /* \"#utility.yul\":6779:6830   */\n  tag_41\n  jump\t// in\ntag_127:\n    /* \"#utility.yul\":6775:6831   */\n  not\n    /* \"#utility.yul\":6860:6864   */\n  dup1\n    /* \"#utility.yul\":6854:6858   */\n  dup4\n    /* \"#utility.yul\":6850:6865   */\n  and\n    /* \"#utility.yul\":6840:6865   */\n  swap2\n  pop\n    /* \"#utility.yul\":6753:6871   */\n  pop\n    /* \"#utility.yul\":6702:6871   */\n  swap3\n  swap2\n  pop\n  pop\n  jump\t// out\n    /* \"#utility.yul\":6876:7171   */\ntag_43:\n    /* \"#utility.yul\":6952:6956   */\n  0x00\n    /* \"#utility.yul\":7098:7127   */\n  tag_129\n    /* \"#utility.yul\":7123:7126   */\n  dup4\n    /* \"#utility.yul\":7117:7121   */\n  dup4\n    /* \"#utility.yul\":7098:7127   */\n  tag_42\n  jump\t// in\ntag_129:\n    /* \"#utility.yul\":7090:7127   */\n  swap2\n  pop\n    /* \"#utility.yul\":7160:7163   */\n  dup3\n    /* \"#utility.yul\":7157:7158   */\n  0x02\n    /* \"#utility.yul\":7153:7164   */\n  mul\n    /* \"#utility.yul\":7147:7151   */\n  dup3\n    /* \"#utility.yul\":7144:7165   */\n  or\n    /* \"#utility.yul\":7136:7165   */\n  swap1\n  pop\n    /* \"#utility.yul\":6876:7171   */\n  swap3\n  swap2\n  pop\n  pop\n  jump\t// out\n    /* \"#utility.yul\":7176:8571   */\ntag_8:\n    /* \"#utility.yul\":7293:7330   */\n  tag_131\n    /* \"#utility.yul\":7326:7329   */\n  dup3\n    /* \"#utility.yul\":7293:7330   */\n  tag_25\n  jump\t// in\ntag_131:\n    /* \"#utility.yul\":7395:7413   */\n  0xffffffffffffffff\n    /* \"#utility.yul\":7387:7393   */\n  dup2\n    /* \"#utility.yul\":7384:7414   */\n  gt\n    /* \"#utility.yul\":7381:7437   */\n  iszero\n  tag_132\n  jumpi\n    /* \"#utility.yul\":7417:7435   */\n  tag_133\n  tag_18\n  jump\t// in\ntag_133:\n    /* \"#utility.yul\":7381:7437   */\ntag_132:\n    /* \"#utility.yul\":7461:7499   */\n  tag_134\n    /* \"#utility.yul\":7493:7497   */\n  dup3\n    /* \"#utility.yul\":7487:7498   */\n  sload\n    /* \"#utility.yul\":7461:7499   */\n  tag_27\n  jump\t// in\ntag_134:\n    /* \"#utility.yul\":7546:7613   */\n  tag_135\n    /* \"#utility.yul\":7606:7612   */\n  dup3\n    /* \"#utility.yul\":7598:7604   */\n  dup3\n    /* \"#utility.yul\":7592:7596   */\n  dup6\n    /* \"#utility.yul\":7546:7613   */\n  tag_40\n  jump\t// in\ntag_135:\n    /* \"#utility.yul\":7640:7641   */\n  0x00\n    /* \"#utility.yul\":7664:7668   */\n  0x20\n    /* \"#utility.yul\":7651:7668   */\n  swap1\n  pop\n    /* \"#utility.yul\":7696:7698   */\n  0x1f\n    /* \"#utility.yul\":7688:7694   */\n  dup4\n    /* \"#utility.yul\":7685:7699   */\n  gt\n    /* \"#utility.yul\":7713:7714   */\n  0x01\n    /* \"#utility.yul\":7708:8326   */\n  dup2\n  eq\n  tag_137\n  jumpi\n    /* \"#utility.yul\":8370:8371   */\n  0x00\n    /* \"#utility.yul\":8387:8393   */\n  dup5\n    /* \"#utility.yul\":8384:8461   */\n  iszero\n  tag_138\n  jumpi\n    /* \"#utility.yul\":8436:8445   */\n  dup3\n    /* \"#utility.yul\":8431:8434   */\n  dup8\n    /* \"#utility.yul\":8427:8446   */\n  add\n    /* \"#utility.yul\":8421:8447   */\n  mload\n    /* \"#utility.yul\":8412:8447   */\n  swap1\n  pop\n    /* \"#utility.yul\":8384:8461   */\ntag_138:\n    /* \"#utility.yul\":8487:8554   */\n  tag_139\n    /* \"#utility.yul\":8547:8553   */\n  dup6\n    /* \"#utility.yul\":8540:8545   */\n  dup3\n    /* \"#utility.yul\":8487:8554   */\n  tag_43\n  jump\t// in\ntag_139:\n    /* \"#utility.yul\":8481:8485   */\n  dup7\n    /* \"#utility.yul\":8474:8555   */\n  sstore\n    /* \"#utility.yul\":8343:8565   */\n  pop\n    /* \"#utility.yul\":7678:8565   */\n  jump(tag_136)\n    /* \"#utility.yul\":7708:8326   */\ntag_137:\n    /* \"#utility.yul\":7760:7764   */\n  0x1f\n    /* \"#utility.yul\":7756:7765   */\n  not\n    /* \"#utility.yul\":7748:7754   */\n  dup5\n    /* \"#utility.yul\":7744:7766   */\n  and\n    /* \"#utility.yul\":7794:7831   */\n  tag_140\n    /* \"#utility.yul\":7826:7830   */\n  dup7\n    /* \"#utility.yul\":7794:7831   */\n  tag_28\n  jump\t// in\ntag_140:\n    /* \"#utility.yul\":7853:7854   */\n  0x00\n    /* \"#utility.yul\":7867:8075   */\ntag_141:\n    /* \"#utility.yul\":7881:7888   */\n  dup3\n    /* \"#utility.yul\":7878:7879   */\n  dup2\n    /* \"#utility.yul\":7875:7889   */\n  lt\n    /* \"#utility.yul\":7867:8075   */\n  iszero\n  tag_143\n  jumpi\n    /* \"#utility.yul\":7960:7969   */\n  dup5\n    /* \"#utility.yul\":7955:7958   */\n  dup10\n    /* \"#utility.yul\":7951:7970   */\n  add\n    /* \"#utility.yul\":7945:7971   */\n  mload\n    /* \"#utility.yul\":7937:7943   */\n  dup3\n    /* \"#utility.yul\":7930:7972   */\n  sstore\n    /* \"#utility.yul\":8011:8012   */\n  0x01\n    /* \"#utility.yul\":8003:8009   */\n  dup3\n    /* \"#utility.yul\":7999:8013   */\n  add\n    /* \"#utility.yul\":7989:8013   */\n  swap2\n  pop\n    /* \"#utility.yul\":8058:8060   */\n  0x20\n    /* \"#utility.yul\":8047:8056   */\n  dup6\n    /* \"#utility.yul\":8043:8061   */\n  add\n    /* \"#utility.yul\":8030:8061   */\n  swap5\n  pop\n    /* \"#utility.yul\":7904:7908   */\n  0x20\n    /* \"#utility.yul\":7901:7902   */\n  dup2\n    /* \"#utility.yul\":7897:7909   */\n  add\n    /* \"#utility.yul\":7892:7909   */\n  swap1\n  pop\n    /* \"#utility.yul\":7867:8075   */\n  jump(tag_141)\ntag_143:\n    /* \"#utility.yul\":8103:8109   */\n  dup7\n    /* \"#utility.yul\":8094:8101   */\n  dup4\n    /* \"#utility.yul\":8091:8110   */\n  lt\n    /* \"#utility.yul\":8088:8267   */\n  iszero\n  tag_144\n  jumpi\n    /* \"#utility.yul\":8161:8170   */\n  dup5\n    /* \"#utility.yul\":8156:8159   */\n  dup10\n    /* \"#utility.yul\":8152:8171   */\n  add\n    /* \"#utility.yul\":8146:8172   */\n  mload\n    /* \"#utility.yul\":8204:8252   */\n  tag_145\n    /* \"#utility.yul\":8246:8250   */\n  0x1f\n    /* \"#utility.yul\":8238:8244   */\n  dup10\n    /* \"#utility.yul\":8234:8251   */\n  and\n    /* \"#utility.yul\":8223:8232   */\n  dup3\n    /* \"#utility.yul\":8204:8252   */\n  tag_42\n  jump\t// in\ntag_145:\n    /* \"#utility.yul\":8196:8202   */\n  dup4\n    /* \"#utility.yul\":8189:8253   */\n  sstore\n    /* \"#utility.yul\":8111:8267   */\n  pop\n    /* \"#utility.yul\":8088:8267   */\ntag_144:\n    /* \"#utility.yul\":8313:8314   */\n  0x01\n    /* \"#utility.yul\":8309:8310   */\n  0x02\n    /* \"#utility.yul\":8301:8307   */\n  dup9\n    /* \"#utility.yul\":8297:8311   */\n  mul\n    /* \"#utility.yul\":8293:8315   */\n  add\n    /* \"#utility.yul\":8287:8291   */\n  dup9\n    /* \"#utility.yul\":8280:8316   */\n  sstore\n    /* \"#utility.yul\":7715:8326   */\n  pop\n  pop\n  pop\n    /* \"#utility.yul\":7678:8565   */\ntag_136:\n  pop\n    /* \"#utility.yul\":7268:8571   */\n  pop\n  pop\n  pop\n    /* \"#utility.yul\":7176:8571   */\n  pop\n  pop\n  jump\t// out\n    /* \"myNFT.sol\":137:709  contract MyNFT is ERC721 {... */\ntag_11:\n  dataSize(sub_0)\n  dup1\n  dataOffset(sub_0)\n  0x00\n  codecopy\n  0x00\n  return\nstop\n\nsub_0: assembly {\n        /* \"myNFT.sol\":137:709  contract MyNFT is ERC721 {... */\n      mstore(0x40, 0x80)\n      callvalue\n      dup1\n      iszero\n      tag_1\n      jumpi\n      0x00\n      dup1\n      revert\n    tag_1:\n      pop\n      jumpi(tag_2, lt(calldatasize, 0x04))\n      shr(0xe0, calldataload(0x00))\n      dup1\n      0x70a08231\n      gt\n      tag_17\n      jumpi\n      dup1\n      0xb88d4fde\n      gt\n      tag_18\n      jumpi\n      dup1\n      0xb88d4fde\n      eq\n      tag_13\n      jumpi\n      dup1\n      0xc87b56dd\n      eq\n      tag_14\n      jumpi\n      dup1\n      0xe985e9c5\n      eq\n      tag_15\n      jumpi\n      dup1\n      0xf2cee92b\n      eq\n      tag_16\n      jumpi\n      jump(tag_2)\n    tag_18:\n      dup1\n      0x70a08231\n      eq\n      tag_10\n      jumpi\n      dup1\n      0x95d89b41\n      eq\n      tag_11\n      jumpi\n      dup1\n      0xa22cb465\n      eq\n      tag_12\n      jumpi\n      jump(tag_2)\n    tag_17:\n      dup1\n      0x095ea7b3\n      gt\n      tag_19\n      jumpi\n      dup1\n      0x095ea7b3\n      eq\n      tag_6\n      jumpi\n      dup1\n      0x23b872dd\n      eq\n      tag_7\n      jumpi\n      dup1\n      0x42842e0e\n      eq\n      tag_8\n      jumpi\n      dup1\n      0x6352211e\n      eq\n      tag_9\n      jumpi\n      jump(tag_2)\n    tag_19:\n      dup1\n      0x01ffc9a7\n      eq\n      tag_3\n      jumpi\n      dup1\n      0x06fdde03\n      eq\n      tag_4\n      jumpi\n      dup1\n      0x081812fc\n      eq\n      tag_5\n      jumpi\n    tag_2:\n      0x00\n      dup1\n      revert\n        /* \"node_modules/@openzeppelin/contracts/token/ERC721/ERC721.sol\":2569:2869  function supportsInterface(bytes4 interfaceId) public view virtual override(ERC165, IERC165) returns (bool) {... */\n    tag_3:\n      tag_20\n      0x04\n      dup1\n      calldatasize\n      sub\n      dup2\n      add\n      swap1\n      tag_21\n      swap2\n      swap1\n      tag_22\n      jump\t// in\n    tag_21:\n      tag_23\n      jump\t// in\n    tag_20:\n      mload(0x40)\n      tag_24\n      swap2\n      swap1\n      tag_25\n      jump\t// in\n    tag_24:\n      mload(0x40)\n      dup1\n      swap2\n      sub\n      swap1\n      return\n        /* \"node_modules/@openzeppelin/contracts/token/ERC721/ERC721.sol\":3684:3773  function name() public view virtual returns (string memory) {... */\n    tag_4:\n      tag_26\n      tag_27\n      jump\t// in\n    tag_26:\n      mload(0x40)\n      tag_28\n      swap2\n      swap1\n      tag_29\n      jump\t// in\n    tag_28:\n      mload(0x40)\n      dup1\n      swap2\n      sub\n      swap1\n      return\n        /* \"node_modules/@openzeppelin/contracts/token/ERC721/ERC721.sol\":5400:5554  function getApproved(uint256 tokenId) public view virtual returns (address) {... */\n    tag_5:\n      tag_30\n      0x04\n      dup1\n      calldatasize\n      sub\n      dup2\n      add\n      swap1\n      tag_31\n      swap2\n      swap1\n      tag_32\n      jump\t// in\n    tag_31:\n      tag_33\n      jump\t// in\n    tag_30:\n      mload(0x40)\n      tag_34\n      swap2\n      swap1\n      tag_35\n      jump\t// in\n    tag_34:\n      mload(0x40)\n      dup1\n      swap2\n      sub\n      swap1\n      return\n        /* \"node_modules/@openzeppelin/contracts/token/ERC721/ERC721.sol\":5226:5339  function approve(address to, uint256 tokenId) public virtual {... */\n    tag_6:\n      tag_36\n      0x04\n      dup1\n      calldatasize\n      sub\n      dup2\n      add\n      swap1\n      tag_37\n      swap2\n      swap1\n      tag_38\n      jump\t// in\n    tag_37:\n      tag_39\n      jump\t// in\n    tag_36:\n      stop\n        /* \"node_modules/@openzeppelin/contracts/token/ERC721/ERC721.sol\":6046:6624  function transferFrom(address from, address to, uint256 tokenId) public virtual {... */\n    tag_7:\n      tag_40\n      0x04\n      dup1\n      calldatasize\n      sub\n      dup2\n      add\n      swap1\n      tag_41\n      swap2\n      swap1\n      tag_42\n      jump\t// in\n    tag_41:\n      tag_43\n      jump\t// in\n    tag_40:\n      stop\n        /* \"node_modules/@openzeppelin/contracts/token/ERC721/ERC721.sol\":6690:6822  function safeTransferFrom(address from, address to, uint256 tokenId) public {... */\n    tag_8:\n      tag_44\n      0x04\n      dup1\n      calldatasize\n      sub\n      dup2\n      add\n      swap1\n      tag_45\n      swap2\n      swap1\n      tag_42\n      jump\t// in\n    tag_45:\n      tag_46\n      jump\t// in\n    tag_44:\n      stop\n        /* \"node_modules/@openzeppelin/contracts/token/ERC721/ERC721.sol\":3459:3577  function ownerOf(uint256 tokenId) public view virtual returns (address) {... */\n    tag_9:\n      tag_47\n      0x04\n      dup1\n      calldatasize\n      sub\n      dup2\n      add\n      swap1\n      tag_48\n      swap2\n      swap1\n      tag_32\n      jump\t// in\n    tag_48:\n      tag_49\n      jump\t// in\n    tag_47:\n      mload(0x40)\n      tag_50\n      swap2\n      swap1\n      tag_35\n      jump\t// in\n    tag_50:\n      mload(0x40)\n      dup1\n      swap2\n      sub\n      swap1\n      return\n        /* \"node_modules/@openzeppelin/contracts/token/ERC721/ERC721.sol\":3013:3221  function balanceOf(address owner) public view virtual returns (uint256) {... */\n    tag_10:\n      tag_51\n      0x04\n      dup1\n      calldatasize\n      sub\n      dup2\n      add\n      swap1\n      tag_52\n      swap2\n      swap1\n      tag_53\n      jump\t// in\n    tag_52:\n      tag_54\n      jump\t// in\n    tag_51:\n      mload(0x40)\n      tag_55\n      swap2\n      swap1\n      tag_56\n      jump\t// in\n    tag_55:\n      mload(0x40)\n      dup1\n      swap2\n      sub\n      swap1\n      return\n        /* \"node_modules/@openzeppelin/contracts/token/ERC721/ERC721.sol\":3837:3930  function symbol() public view virtual returns (string memory) {... */\n    tag_11:\n      tag_57\n      tag_58\n      jump\t// in\n    tag_57:\n      mload(0x40)\n      tag_59\n      swap2\n      swap1\n      tag_29\n      jump\t// in\n    tag_59:\n      mload(0x40)\n      dup1\n      swap2\n      sub\n      swap1\n      return\n        /* \"node_modules/@openzeppelin/contracts/token/ERC721/ERC721.sol\":5621:5765  function setApprovalForAll(address operator, bool approved) public virtual {... */\n    tag_12:\n      tag_60\n      0x04\n      dup1\n      calldatasize\n      sub\n      dup2\n      add\n      swap1\n      tag_61\n      swap2\n      swap1\n      tag_62\n      jump\t// in\n    tag_61:\n      tag_63\n      jump\t// in\n    tag_60:\n      stop\n        /* \"node_modules/@openzeppelin/contracts/token/ERC721/ERC721.sol\":6888:7096  function safeTransferFrom(address from, address to, uint256 tokenId, bytes memory data) public virtual {... */\n    tag_13:\n      tag_64\n      0x04\n      dup1\n      calldatasize\n      sub\n      dup2\n      add\n      swap1\n      tag_65\n      swap2\n      swap1\n      tag_66\n      jump\t// in\n    tag_65:\n      tag_67\n      jump\t// in\n    tag_64:\n      stop\n        /* \"myNFT.sol\":379:550  function tokenURI(... */\n    tag_14:\n      tag_68\n      0x04\n      dup1\n      calldatasize\n      sub\n      dup2\n      add\n      swap1\n      tag_69\n      swap2\n      swap1\n      tag_32\n      jump\t// in\n    tag_69:\n      tag_70\n      jump\t// in\n    tag_68:\n      mload(0x40)\n      tag_71\n      swap2\n      swap1\n      tag_29\n      jump\t// in\n    tag_71:\n      mload(0x40)\n      dup1\n      swap2\n      sub\n      swap1\n      return\n        /* \"node_modules/@openzeppelin/contracts/token/ERC721/ERC721.sol\":5831:5984  function isApprovedForAll(address owner, address operator) public view virtual returns (bool) {... */\n    tag_15:\n      tag_72\n      0x04\n      dup1\n      calldatasize\n      sub\n      dup2\n      add\n      swap1\n      tag_73\n      swap2\n      swap1\n      tag_74\n      jump\t// in\n    tag_73:\n      tag_75\n      jump\t// in\n    tag_72:\n      mload(0x40)\n      tag_76\n      swap2\n      swap1\n      tag_25\n      jump\t// in\n    tag_76:\n      mload(0x40)\n      dup1\n      swap2\n      sub\n      swap1\n      return\n        /* \"myNFT.sol\":283:371  function minting(uint256 _tokenId) public {... */\n    tag_16:\n      tag_77\n      0x04\n      dup1\n      calldatasize\n      sub\n      dup2\n      add\n      swap1\n      tag_78\n      swap2\n      swap1\n      tag_32\n      jump\t// in\n    tag_78:\n      tag_79\n      jump\t// in\n    tag_77:\n      stop\n        /* \"node_modules/@openzeppelin/contracts/token/ERC721/ERC721.sol\":2569:2869  function supportsInterface(bytes4 interfaceId) public view virtual override(ERC165, IERC165) returns (bool) {... */\n    tag_23:\n        /* \"node_modules/@openzeppelin/contracts/token/ERC721/ERC721.sol\":2671:2675  bool */\n      0x00\n        /* \"node_modules/@openzeppelin/contracts/token/ERC721/ERC721.sol\":2721:2746  type(IERC721).interfaceId */\n      0x80ac58cd00000000000000000000000000000000000000000000000000000000\n        /* \"node_modules/@openzeppelin/contracts/token/ERC721/ERC721.sol\":2706:2746  interfaceId == type(IERC721).interfaceId */\n      not(0xffffffffffffffffffffffffffffffffffffffffffffffffffffffff)\n      and\n        /* \"node_modules/@openzeppelin/contracts/token/ERC721/ERC721.sol\":2706:2717  interfaceId */\n      dup3\n        /* \"node_modules/@openzeppelin/contracts/token/ERC721/ERC721.sol\":2706:2746  interfaceId == type(IERC721).interfaceId */\n      not(0xffffffffffffffffffffffffffffffffffffffffffffffffffffffff)\n      and\n      eq\n        /* \"node_modules/@openzeppelin/contracts/token/ERC721/ERC721.sol\":2706:2810  interfaceId == type(IERC721).interfaceId ||... */\n      dup1\n      tag_81\n      jumpi\n      pop\n        /* \"node_modules/@openzeppelin/contracts/token/ERC721/ERC721.sol\":2777:2810  type(IERC721Metadata).interfaceId */\n      0x5b5e139f00000000000000000000000000000000000000000000000000000000\n        /* \"node_modules/@openzeppelin/contracts/token/ERC721/ERC721.sol\":2762:2810  interfaceId == type(IERC721Metadata).interfaceId */\n      not(0xffffffffffffffffffffffffffffffffffffffffffffffffffffffff)\n      and\n        /* \"node_modules/@openzeppelin/contracts/token/ERC721/ERC721.sol\":2762:2773  interfaceId */\n      dup3\n        /* \"node_modules/@openzeppelin/contracts/token/ERC721/ERC721.sol\":2762:2810  interfaceId == type(IERC721Metadata).interfaceId */\n      not(0xffffffffffffffffffffffffffffffffffffffffffffffffffffffff)\n      and\n      eq\n        /* \"node_modules/@openzeppelin/contracts/token/ERC721/ERC721.sol\":2706:2810  interfaceId == type(IERC721).interfaceId ||... */\n    tag_81:\n        /* \"node_modules/@openzeppelin/contracts/token/ERC721/ERC721.sol\":2706:2862  interfaceId == type(IERC721).interfaceId ||... */\n      dup1\n      tag_82\n      jumpi\n      pop\n        /* \"node_modules/@openzeppelin/contracts/token/ERC721/ERC721.sol\":2826:2862  super.supportsInterface(interfaceId) */\n      tag_83\n        /* \"node_modules/@openzeppelin/contracts/token/ERC721/ERC721.sol\":2850:2861  interfaceId */\n      dup3\n        /* \"node_modules/@openzeppelin/contracts/token/ERC721/ERC721.sol\":2826:2849  super.supportsInterface */\n      tag_84\n        /* \"node_modules/@openzeppelin/contracts/token/ERC721/ERC721.sol\":2826:2862  super.supportsInterface(interfaceId) */\n      jump\t// in\n    tag_83:\n        /* \"node_modules/@openzeppelin/contracts/token/ERC721/ERC721.sol\":2706:2862  interfaceId == type(IERC721).interfaceId ||... */\n    tag_82:\n        /* \"node_modules/@openzeppelin/contracts/token/ERC721/ERC721.sol\":2687:2862  return... */\n      swap1\n      pop\n        /* \"node_modules/@openzeppelin/contracts/token/ERC721/ERC721.sol\":2569:2869  function supportsInterface(bytes4 interfaceId) public view virtual override(ERC165, IERC165) returns (bool) {... */\n      swap2\n      swap1\n      pop\n      jump\t// out\n        /* \"node_modules/@openzeppelin/contracts/token/ERC721/ERC721.sol\":3684:3773  function name() public view virtual returns (string memory) {... */\n    tag_27:\n        /* \"node_modules/@openzeppelin/contracts/token/ERC721/ERC721.sol\":3729:3742  string memory */\n      0x60\n        /* \"node_modules/@openzeppelin/contracts/token/ERC721/ERC721.sol\":3761:3766  _name */\n      0x00\n        /* \"node_modules/@openzeppelin/contracts/token/ERC721/ERC721.sol\":3754:3766  return _name */\n      dup1\n      sload\n      tag_86\n      swap1\n      tag_87\n      jump\t// in\n    tag_86:\n      dup1\n      0x1f\n      add\n      0x20\n      dup1\n      swap2\n      div\n      mul\n      0x20\n      add\n      mload(0x40)\n      swap1\n      dup2\n      add\n      0x40\n      mstore\n      dup1\n      swap3\n      swap2\n      swap1\n      dup2\n      dup2\n      mstore\n      0x20\n      add\n      dup3\n      dup1\n      sload\n      tag_88\n      swap1\n      tag_87\n      jump\t// in\n    tag_88:\n      dup1\n      iszero\n      tag_89\n      jumpi\n      dup1\n      0x1f\n      lt\n      tag_90\n      jumpi\n      0x0100\n      dup1\n      dup4\n      sload\n      div\n      mul\n      dup4\n      mstore\n      swap2\n      0x20\n      add\n      swap2\n      jump(tag_89)\n    tag_90:\n      dup3\n      add\n      swap2\n      swap1\n      0x00\n      mstore\n      keccak256(0x00, 0x20)\n      swap1\n    tag_91:\n      dup2\n      sload\n      dup2\n      mstore\n      swap1\n      0x01\n      add\n      swap1\n      0x20\n      add\n      dup1\n      dup4\n      gt\n      tag_91\n      jumpi\n      dup3\n      swap1\n      sub\n      0x1f\n      and\n      dup3\n      add\n      swap2\n    tag_89:\n      pop\n      pop\n      pop\n      pop\n      pop\n      swap1\n      pop\n        /* \"node_modules/@openzeppelin/contracts/token/ERC721/ERC721.sol\":3684:3773  function name() public view virtual returns (string memory) {... */\n      swap1\n      jump\t// out\n        /* \"node_modules/@openzeppelin/contracts/token/ERC721/ERC721.sol\":5400:5554  function getApproved(uint256 tokenId) public view virtual returns (address) {... */\n    tag_33:\n        /* \"node_modules/@openzeppelin/contracts/token/ERC721/ERC721.sol\":5467:5474  address */\n      0x00\n        /* \"node_modules/@openzeppelin/contracts/token/ERC721/ERC721.sol\":5486:5508  _requireOwned(tokenId) */\n      tag_93\n        /* \"node_modules/@openzeppelin/contracts/token/ERC721/ERC721.sol\":5500:5507  tokenId */\n      dup3\n        /* \"node_modules/@openzeppelin/contracts/token/ERC721/ERC721.sol\":5486:5499  _requireOwned */\n      tag_94\n        /* \"node_modules/@openzeppelin/contracts/token/ERC721/ERC721.sol\":5486:5508  _requireOwned(tokenId) */\n      jump\t// in\n    tag_93:\n      pop\n        /* \"node_modules/@openzeppelin/contracts/token/ERC721/ERC721.sol\":5526:5547  _getApproved(tokenId) */\n      tag_95\n        /* \"node_modules/@openzeppelin/contracts/token/ERC721/ERC721.sol\":5539:5546  tokenId */\n      dup3\n        /* \"node_modules/@openzeppelin/contracts/token/ERC721/ERC721.sol\":5526:5538  _getApproved */\n      tag_96\n        /* \"node_modules/@openzeppelin/contracts/token/ERC721/ERC721.sol\":5526:5547  _getApproved(tokenId) */\n      jump\t// in\n    tag_95:\n        /* \"node_modules/@openzeppelin/contracts/token/ERC721/ERC721.sol\":5519:5547  return _getApproved(tokenId) */\n      swap1\n      pop\n        /* \"node_modules/@openzeppelin/contracts/token/ERC721/ERC721.sol\":5400:5554  function getApproved(uint256 tokenId) public view virtual returns (address) {... */\n      swap2\n      swap1\n      pop\n      jump\t// out\n        /* \"node_modules/@openzeppelin/contracts/token/ERC721/ERC721.sol\":5226:5339  function approve(address to, uint256 tokenId) public virtual {... */\n    tag_39:\n        /* \"node_modules/@openzeppelin/contracts/token/ERC721/ERC721.sol\":5297:5332  _approve(to, tokenId, _msgSender()) */\n      tag_98\n        /* \"node_modules/@openzeppelin/contracts/token/ERC721/ERC721.sol\":5306:5308  to */\n      dup3\n        /* \"node_modules/@openzeppelin/contracts/token/ERC721/ERC721.sol\":5310:5317  tokenId */\n      dup3\n        /* \"node_modules/@openzeppelin/contracts/token/ERC721/ERC721.sol\":5319:5331  _msgSender() */\n      tag_99\n        /* \"node_modules/@openzeppelin/contracts/token/ERC721/ERC721.sol\":5319:5329  _msgSender */\n      tag_100\n        /* \"node_modules/@openzeppelin/contracts/token/ERC721/ERC721.sol\":5319:5331  _msgSender() */\n      jump\t// in\n    tag_99:\n        /* \"node_modules/@openzeppelin/contracts/token/ERC721/ERC721.sol\":5297:5305  _approve */\n      tag_101\n        /* \"node_modules/@openzeppelin/contracts/token/ERC721/ERC721.sol\":5297:5332  _approve(to, tokenId, _msgSender()) */\n      jump\t// in\n    tag_98:\n        /* \"node_modules/@openzeppelin/contracts/token/ERC721/ERC721.sol\":5226:5339  function approve(address to, uint256 tokenId) public virtual {... */\n      pop\n      pop\n      jump\t// out\n        /* \"node_modules/@openzeppelin/contracts/token/ERC721/ERC721.sol\":6046:6624  function transferFrom(address from, address to, uint256 tokenId) public virtual {... */\n    tag_43:\n        /* \"node_modules/@openzeppelin/contracts/token/ERC721/ERC721.sol\":6154:6155  0 */\n      0x00\n        /* \"node_modules/@openzeppelin/contracts/token/ERC721/ERC721.sol\":6140:6156  to == address(0) */\n      0xffffffffffffffffffffffffffffffffffffffff\n      and\n        /* \"node_modules/@openzeppelin/contracts/token/ERC721/ERC721.sol\":6140:6142  to */\n      dup3\n        /* \"node_modules/@openzeppelin/contracts/token/ERC721/ERC721.sol\":6140:6156  to == address(0) */\n      0xffffffffffffffffffffffffffffffffffffffff\n      and\n      sub\n        /* \"node_modules/@openzeppelin/contracts/token/ERC721/ERC721.sol\":6136:6223  if (to == address(0)) {... */\n      tag_103\n      jumpi\n        /* \"node_modules/@openzeppelin/contracts/token/ERC721/ERC721.sol\":6209:6210  0 */\n      0x00\n        /* \"node_modules/@openzeppelin/contracts/token/ERC721/ERC721.sol\":6179:6212  ERC721InvalidReceiver(address(0)) */\n      mload(0x40)\n      0x64a0ae9200000000000000000000000000000000000000000000000000000000\n      dup2\n      mstore\n      0x04\n      add\n      tag_104\n      swap2\n      swap1\n      tag_35\n      jump\t// in\n    tag_104:\n      mload(0x40)\n      dup1\n      swap2\n      sub\n      swap1\n      revert\n        /* \"node_modules/@openzeppelin/contracts/token/ERC721/ERC721.sol\":6136:6223  if (to == address(0)) {... */\n    tag_103:\n        /* \"node_modules/@openzeppelin/contracts/token/ERC721/ERC721.sol\":6441:6462  address previousOwner */\n      0x00\n        /* \"node_modules/@openzeppelin/contracts/token/ERC721/ERC721.sol\":6465:6499  _update(to, tokenId, _msgSender()) */\n      tag_105\n        /* \"node_modules/@openzeppelin/contracts/token/ERC721/ERC721.sol\":6473:6475  to */\n      dup4\n        /* \"node_modules/@openzeppelin/contracts/token/ERC721/ERC721.sol\":6477:6484  tokenId */\n      dup4\n        /* \"node_modules/@openzeppelin/contracts/token/ERC721/ERC721.sol\":6486:6498  _msgSender() */\n      tag_106\n        /* \"node_modules/@openzeppelin/contracts/token/ERC721/ERC721.sol\":6486:6496  _msgSender */\n      tag_100\n        /* \"node_modules/@openzeppelin/contracts/token/ERC721/ERC721.sol\":6486:6498  _msgSender() */\n      jump\t// in\n    tag_106:\n        /* \"node_modules/@openzeppelin/contracts/token/ERC721/ERC721.sol\":6465:6472  _update */\n      tag_107\n        /* \"node_modules/@openzeppelin/contracts/token/ERC721/ERC721.sol\":6465:6499  _update(to, tokenId, _msgSender()) */\n      jump\t// in\n    tag_105:\n        /* \"node_modules/@openzeppelin/contracts/token/ERC721/ERC721.sol\":6441:6499  address previousOwner = _update(to, tokenId, _msgSender()) */\n      swap1\n      pop\n        /* \"node_modules/@openzeppelin/contracts/token/ERC721/ERC721.sol\":6530:6534  from */\n      dup4\n        /* \"node_modules/@openzeppelin/contracts/token/ERC721/ERC721.sol\":6513:6534  previousOwner != from */\n      0xffffffffffffffffffffffffffffffffffffffff\n      and\n        /* \"node_modules/@openzeppelin/contracts/token/ERC721/ERC721.sol\":6513:6526  previousOwner */\n      dup2\n        /* \"node_modules/@openzeppelin/contracts/token/ERC721/ERC721.sol\":6513:6534  previousOwner != from */\n      0xffffffffffffffffffffffffffffffffffffffff\n      and\n      eq\n        /* \"node_modules/@openzeppelin/contracts/token/ERC721/ERC721.sol\":6509:6618  if (previousOwner != from) {... */\n      tag_108\n      jumpi\n        /* \"node_modules/@openzeppelin/contracts/token/ERC721/ERC721.sol\":6578:6582  from */\n      dup4\n        /* \"node_modules/@openzeppelin/contracts/token/ERC721/ERC721.sol\":6584:6591  tokenId */\n      dup3\n        /* \"node_modules/@openzeppelin/contracts/token/ERC721/ERC721.sol\":6593:6606  previousOwner */\n      dup3\n        /* \"node_modules/@openzeppelin/contracts/token/ERC721/ERC721.sol\":6557:6607  ERC721IncorrectOwner(from, tokenId, previousOwner) */\n      mload(0x40)\n      0x64283d7b00000000000000000000000000000000000000000000000000000000\n      dup2\n      mstore\n      0x04\n      add\n      tag_109\n      swap4\n      swap3\n      swap2\n      swap1\n      tag_110\n      jump\t// in\n    tag_109:\n      mload(0x40)\n      dup1\n      swap2\n      sub\n      swap1\n      revert\n        /* \"node_modules/@openzeppelin/contracts/token/ERC721/ERC721.sol\":6509:6618  if (previousOwner != from) {... */\n    tag_108:\n        /* \"node_modules/@openzeppelin/contracts/token/ERC721/ERC721.sol\":6126:6624  {... */\n      pop\n        /* \"node_modules/@openzeppelin/contracts/token/ERC721/ERC721.sol\":6046:6624  function transferFrom(address from, address to, uint256 tokenId) public virtual {... */\n      pop\n      pop\n      pop\n      jump\t// out\n        /* \"node_modules/@openzeppelin/contracts/token/ERC721/ERC721.sol\":6690:6822  function safeTransferFrom(address from, address to, uint256 tokenId) public {... */\n    tag_46:\n        /* \"node_modules/@openzeppelin/contracts/token/ERC721/ERC721.sol\":6776:6815  safeTransferFrom(from, to, tokenId, \"\") */\n      tag_112\n        /* \"node_modules/@openzeppelin/contracts/token/ERC721/ERC721.sol\":6793:6797  from */\n      dup4\n        /* \"node_modules/@openzeppelin/contracts/token/ERC721/ERC721.sol\":6799:6801  to */\n      dup4\n        /* \"node_modules/@openzeppelin/contracts/token/ERC721/ERC721.sol\":6803:6810  tokenId */\n      dup4\n        /* \"node_modules/@openzeppelin/contracts/token/ERC721/ERC721.sol\":6776:6815  safeTransferFrom(from, to, tokenId, \"\") */\n      mload(0x40)\n      dup1\n      0x20\n      add\n      0x40\n      mstore\n      dup1\n      0x00\n      dup2\n      mstore\n      pop\n        /* \"node_modules/@openzeppelin/contracts/token/ERC721/ERC721.sol\":6776:6792  safeTransferFrom */\n      tag_67\n        /* \"node_modules/@openzeppelin/contracts/token/ERC721/ERC721.sol\":6776:6815  safeTransferFrom(from, to, tokenId, \"\") */\n      jump\t// in\n    tag_112:\n        /* \"node_modules/@openzeppelin/contracts/token/ERC721/ERC721.sol\":6690:6822  function safeTransferFrom(address from, address to, uint256 tokenId) public {... */\n      pop\n      pop\n      pop\n      jump\t// out\n        /* \"node_modules/@openzeppelin/contracts/token/ERC721/ERC721.sol\":3459:3577  function ownerOf(uint256 tokenId) public view virtual returns (address) {... */\n    tag_49:\n        /* \"node_modules/@openzeppelin/contracts/token/ERC721/ERC721.sol\":3522:3529  address */\n      0x00\n        /* \"node_modules/@openzeppelin/contracts/token/ERC721/ERC721.sol\":3548:3570  _requireOwned(tokenId) */\n      tag_114\n        /* \"node_modules/@openzeppelin/contracts/token/ERC721/ERC721.sol\":3562:3569  tokenId */\n      dup3\n        /* \"node_modules/@openzeppelin/contracts/token/ERC721/ERC721.sol\":3548:3561  _requireOwned */\n      tag_94\n        /* \"node_modules/@openzeppelin/contracts/token/ERC721/ERC721.sol\":3548:3570  _requireOwned(tokenId) */\n      jump\t// in\n    tag_114:\n        /* \"node_modules/@openzeppelin/contracts/token/ERC721/ERC721.sol\":3541:3570  return _requireOwned(tokenId) */\n      swap1\n      pop\n        /* \"node_modules/@openzeppelin/contracts/token/ERC721/ERC721.sol\":3459:3577  function ownerOf(uint256 tokenId) public view virtual returns (address) {... */\n      swap2\n      swap1\n      pop\n      jump\t// out\n        /* \"node_modules/@openzeppelin/contracts/token/ERC721/ERC721.sol\":3013:3221  function balanceOf(address owner) public view virtual returns (uint256) {... */\n    tag_54:\n        /* \"node_modules/@openzeppelin/contracts/token/ERC721/ERC721.sol\":3076:3083  uint256 */\n      0x00\n        /* \"node_modules/@openzeppelin/contracts/token/ERC721/ERC721.sol\":3116:3117  0 */\n      dup1\n        /* \"node_modules/@openzeppelin/contracts/token/ERC721/ERC721.sol\":3099:3118  owner == address(0) */\n      0xffffffffffffffffffffffffffffffffffffffff\n      and\n        /* \"node_modules/@openzeppelin/contracts/token/ERC721/ERC721.sol\":3099:3104  owner */\n      dup3\n        /* \"node_modules/@openzeppelin/contracts/token/ERC721/ERC721.sol\":3099:3118  owner == address(0) */\n      0xffffffffffffffffffffffffffffffffffffffff\n      and\n      sub\n        /* \"node_modules/@openzeppelin/contracts/token/ERC721/ERC721.sol\":3095:3182  if (owner == address(0)) {... */\n      tag_116\n      jumpi\n        /* \"node_modules/@openzeppelin/contracts/token/ERC721/ERC721.sol\":3168:3169  0 */\n      0x00\n        /* \"node_modules/@openzeppelin/contracts/token/ERC721/ERC721.sol\":3141:3171  ERC721InvalidOwner(address(0)) */\n      mload(0x40)\n      0x89c62b6400000000000000000000000000000000000000000000000000000000\n      dup2\n      mstore\n      0x04\n      add\n      tag_117\n      swap2\n      swap1\n      tag_35\n      jump\t// in\n    tag_117:\n      mload(0x40)\n      dup1\n      swap2\n      sub\n      swap1\n      revert\n        /* \"node_modules/@openzeppelin/contracts/token/ERC721/ERC721.sol\":3095:3182  if (owner == address(0)) {... */\n    tag_116:\n        /* \"node_modules/@openzeppelin/contracts/token/ERC721/ERC721.sol\":3198:3207  _balances */\n      0x03\n        /* \"node_modules/@openzeppelin/contracts/token/ERC721/ERC721.sol\":3198:3214  _balances[owner] */\n      0x00\n        /* \"node_modules/@openzeppelin/contracts/token/ERC721/ERC721.sol\":3208:3213  owner */\n      dup4\n        /* \"node_modules/@openzeppelin/contracts/token/ERC721/ERC721.sol\":3198:3214  _balances[owner] */\n      0xffffffffffffffffffffffffffffffffffffffff\n      and\n      0xffffffffffffffffffffffffffffffffffffffff\n      and\n      dup2\n      mstore\n      0x20\n      add\n      swap1\n      dup2\n      mstore\n      0x20\n      add\n      0x00\n      keccak256\n      sload\n        /* \"node_modules/@openzeppelin/contracts/token/ERC721/ERC721.sol\":3191:3214  return _balances[owner] */\n      swap1\n      pop\n        /* \"node_modules/@openzeppelin/contracts/token/ERC721/ERC721.sol\":3013:3221  function balanceOf(address owner) public view virtual returns (uint256) {... */\n      swap2\n      swap1\n      pop\n      jump\t// out\n        /* \"node_modules/@openzeppelin/contracts/token/ERC721/ERC721.sol\":3837:3930  function symbol() public view virtual returns (string memory) {... */\n    tag_58:\n        /* \"node_modules/@openzeppelin/contracts/token/ERC721/ERC721.sol\":3884:3897  string memory */\n      0x60\n        /* \"node_modules/@openzeppelin/contracts/token/ERC721/ERC721.sol\":3916:3923  _symbol */\n      0x01\n        /* \"node_modules/@openzeppelin/contracts/token/ERC721/ERC721.sol\":3909:3923  return _symbol */\n      dup1\n      sload\n      tag_119\n      swap1\n      tag_87\n      jump\t// in\n    tag_119:\n      dup1\n      0x1f\n      add\n      0x20\n      dup1\n      swap2\n      div\n      mul\n      0x20\n      add\n      mload(0x40)\n      swap1\n      dup2\n      add\n      0x40\n      mstore\n      dup1\n      swap3\n      swap2\n      swap1\n      dup2\n      dup2\n      mstore\n      0x20\n      add\n      dup3\n      dup1\n      sload\n      tag_120\n      swap1\n      tag_87\n      jump\t// in\n    tag_120:\n      dup1\n      iszero\n      tag_121\n      jumpi\n      dup1\n      0x1f\n      lt\n      tag_122\n      jumpi\n      0x0100\n      dup1\n      dup4\n      sload\n      div\n      mul\n      dup4\n      mstore\n      swap2\n      0x20\n      add\n      swap2\n      jump(tag_121)\n    tag_122:\n      dup3\n      add\n      swap2\n      swap1\n      0x00\n      mstore\n      keccak256(0x00, 0x20)\n      swap1\n    tag_123:\n      dup2\n      sload\n      dup2\n      mstore\n      swap1\n      0x01\n      add\n      swap1\n      0x20\n      add\n      dup1\n      dup4\n      gt\n      tag_123\n      jumpi\n      dup3\n      swap1\n      sub\n      0x1f\n      and\n      dup3\n      add\n      swap2\n    tag_121:\n      pop\n      pop\n      pop\n      pop\n      pop\n      swap1\n      pop\n        /* \"node_modules/@openzeppelin/contracts/token/ERC721/ERC721.sol\":3837:3930  function symbol() public view virtual returns (string memory) {... */\n      swap1\n      jump\t// out\n        /* \"node_modules/@openzeppelin/contracts/token/ERC721/ERC721.sol\":5621:5765  function setApprovalForAll(address operator, bool approved) public virtual {... */\n    tag_63:\n        /* \"node_modules/@openzeppelin/contracts/token/ERC721/ERC721.sol\":5706:5758  _setApprovalForAll(_msgSender(), operator, approved) */\n      tag_125\n        /* \"node_modules/@openzeppelin/contracts/token/ERC721/ERC721.sol\":5725:5737  _msgSender() */\n      tag_126\n        /* \"node_modules/@openzeppelin/contracts/token/ERC721/ERC721.sol\":5725:5735  _msgSender */\n      tag_100\n        /* \"node_modules/@openzeppelin/contracts/token/ERC721/ERC721.sol\":5725:5737  _msgSender() */\n      jump\t// in\n    tag_126:\n        /* \"node_modules/@openzeppelin/contracts/token/ERC721/ERC721.sol\":5739:5747  operator */\n      dup4\n        /* \"node_modules/@openzeppelin/contracts/token/ERC721/ERC721.sol\":5749:5757  approved */\n      dup4\n        /* \"node_modules/@openzeppelin/contracts/token/ERC721/ERC721.sol\":5706:5724  _setApprovalForAll */\n      tag_127\n        /* \"node_modules/@openzeppelin/contracts/token/ERC721/ERC721.sol\":5706:5758  _setApprovalForAll(_msgSender(), operator, approved) */\n      jump\t// in\n    tag_125:\n        /* \"node_modules/@openzeppelin/contracts/token/ERC721/ERC721.sol\":5621:5765  function setApprovalForAll(address operator, bool approved) public virtual {... */\n      pop\n      pop\n      jump\t// out\n        /* \"node_modules/@openzeppelin/contracts/token/ERC721/ERC721.sol\":6888:7096  function safeTransferFrom(address from, address to, uint256 tokenId, bytes memory data) public virtual {... */\n    tag_67:\n        /* \"node_modules/@openzeppelin/contracts/token/ERC721/ERC721.sol\":7001:7032  transferFrom(from, to, tokenId) */\n      tag_129\n        /* \"node_modules/@openzeppelin/contracts/token/ERC721/ERC721.sol\":7014:7018  from */\n      dup5\n        /* \"node_modules/@openzeppelin/contracts/token/ERC721/ERC721.sol\":7020:7022  to */\n      dup5\n        /* \"node_modules/@openzeppelin/contracts/token/ERC721/ERC721.sol\":7024:7031  tokenId */\n      dup5\n        /* \"node_modules/@openzeppelin/contracts/token/ERC721/ERC721.sol\":7001:7013  transferFrom */\n      tag_43\n        /* \"node_modules/@openzeppelin/contracts/token/ERC721/ERC721.sol\":7001:7032  transferFrom(from, to, tokenId) */\n      jump\t// in\n    tag_129:\n        /* \"node_modules/@openzeppelin/contracts/token/ERC721/ERC721.sol\":7042:7089  _checkOnERC721Received(from, to, tokenId, data) */\n      tag_130\n        /* \"node_modules/@openzeppelin/contracts/token/ERC721/ERC721.sol\":7065:7069  from */\n      dup5\n        /* \"node_modules/@openzeppelin/contracts/token/ERC721/ERC721.sol\":7071:7073  to */\n      dup5\n        /* \"node_modules/@openzeppelin/contracts/token/ERC721/ERC721.sol\":7075:7082  tokenId */\n      dup5\n        /* \"node_modules/@openzeppelin/contracts/token/ERC721/ERC721.sol\":7084:7088  data */\n      dup5\n        /* \"node_modules/@openzeppelin/contracts/token/ERC721/ERC721.sol\":7042:7064  _checkOnERC721Received */\n      tag_131\n        /* \"node_modules/@openzeppelin/contracts/token/ERC721/ERC721.sol\":7042:7089  _checkOnERC721Received(from, to, tokenId, data) */\n      jump\t// in\n    tag_130:\n        /* \"node_modules/@openzeppelin/contracts/token/ERC721/ERC721.sol\":6888:7096  function safeTransferFrom(address from, address to, uint256 tokenId, bytes memory data) public virtual {... */\n      pop\n      pop\n      pop\n      pop\n      jump\t// out\n        /* \"myNFT.sol\":379:550  function tokenURI(... */\n    tag_70:\n        /* \"myNFT.sol\":461:474  string memory */\n      0x60\n        /* \"myNFT.sol\":487:542  return \"QmaXwrKka13cNLEHEZmWtbtbysbSfFCVumHXumcZfutXw6\" */\n      mload(0x40)\n      dup1\n      0x60\n      add\n      0x40\n      mstore\n      dup1\n      0x2e\n      dup2\n      mstore\n      0x20\n      add\n      data_dadc0df0a11c43ee9e277bc0d58e2fee47c3a204d3119fd9be0f3310f01fa1e1\n      0x2e\n      swap2\n      codecopy\n      swap1\n      pop\n        /* \"myNFT.sol\":379:550  function tokenURI(... */\n      swap2\n      swap1\n      pop\n      jump\t// out\n        /* \"node_modules/@openzeppelin/contracts/token/ERC721/ERC721.sol\":5831:5984  function isApprovedForAll(address owner, address operator) public view virtual returns (bool) {... */\n    tag_75:\n        /* \"node_modules/@openzeppelin/contracts/token/ERC721/ERC721.sol\":5919:5923  bool */\n      0x00\n        /* \"node_modules/@openzeppelin/contracts/token/ERC721/ERC721.sol\":5942:5960  _operatorApprovals */\n      0x05\n        /* \"node_modules/@openzeppelin/contracts/token/ERC721/ERC721.sol\":5942:5967  _operatorApprovals[owner] */\n      0x00\n        /* \"node_modules/@openzeppelin/contracts/token/ERC721/ERC721.sol\":5961:5966  owner */\n      dup5\n        /* \"node_modules/@openzeppelin/contracts/token/ERC721/ERC721.sol\":5942:5967  _operatorApprovals[owner] */\n      0xffffffffffffffffffffffffffffffffffffffff\n      and\n      0xffffffffffffffffffffffffffffffffffffffff\n      and\n      dup2\n      mstore\n      0x20\n      add\n      swap1\n      dup2\n      mstore\n      0x20\n      add\n      0x00\n      keccak256\n        /* \"node_modules/@openzeppelin/contracts/token/ERC721/ERC721.sol\":5942:5977  _operatorApprovals[owner][operator] */\n      0x00\n        /* \"node_modules/@openzeppelin/contracts/token/ERC721/ERC721.sol\":5968:5976  operator */\n      dup4\n        /* \"node_modules/@openzeppelin/contracts/token/ERC721/ERC721.sol\":5942:5977  _operatorApprovals[owner][operator] */\n      0xffffffffffffffffffffffffffffffffffffffff\n      and\n      0xffffffffffffffffffffffffffffffffffffffff\n      and\n      dup2\n      mstore\n      0x20\n      add\n      swap1\n      dup2\n      mstore\n      0x20\n      add\n      0x00\n      keccak256\n      0x00\n      swap1\n      sload\n      swap1\n      0x0100\n      exp\n      swap1\n      div\n      0xff\n      and\n        /* \"node_modules/@openzeppelin/contracts/token/ERC721/ERC721.sol\":5935:5977  return _operatorApprovals[owner][operator] */\n      swap1\n      pop\n        /* \"node_modules/@openzeppelin/contracts/token/ERC721/ERC721.sol\":5831:5984  function isApprovedForAll(address owner, address operator) public view virtual returns (bool) {... */\n      swap3\n      swap2\n      pop\n      pop\n      jump\t// out\n        /* \"myNFT.sol\":283:371  function minting(uint256 _tokenId) public {... */\n    tag_79:\n        /* \"myNFT.sol\":336:363  _mint(msg.sender, _tokenId) */\n      tag_135\n        /* \"myNFT.sol\":342:352  msg.sender */\n      caller\n        /* \"myNFT.sol\":354:362  _tokenId */\n      dup3\n        /* \"myNFT.sol\":336:341  _mint */\n      tag_136\n        /* \"myNFT.sol\":336:363  _mint(msg.sender, _tokenId) */\n      jump\t// in\n    tag_135:\n        /* \"myNFT.sol\":283:371  function minting(uint256 _tokenId) public {... */\n      pop\n      jump\t// out\n        /* \"node_modules/@openzeppelin/contracts/utils/introspection/ERC165.sol\":762:908  function supportsInterface(bytes4 interfaceId) public view virtual returns (bool) {... */\n    tag_84:\n        /* \"node_modules/@openzeppelin/contracts/utils/introspection/ERC165.sol\":838:842  bool */\n      0x00\n        /* \"node_modules/@openzeppelin/contracts/utils/introspection/ERC165.sol\":876:901  type(IERC165).interfaceId */\n      0x01ffc9a700000000000000000000000000000000000000000000000000000000\n        /* \"node_modules/@openzeppelin/contracts/utils/introspection/ERC165.sol\":861:901  interfaceId == type(IERC165).interfaceId */\n      not(0xffffffffffffffffffffffffffffffffffffffffffffffffffffffff)\n      and\n        /* \"node_modules/@openzeppelin/contracts/utils/introspection/ERC165.sol\":861:872  interfaceId */\n      dup3\n        /* \"node_modules/@openzeppelin/contracts/utils/introspection/ERC165.sol\":861:901  interfaceId == type(IERC165).interfaceId */\n      not(0xffffffffffffffffffffffffffffffffffffffffffffffffffffffff)\n      and\n      eq\n        /* \"node_modules/@openzeppelin/contracts/utils/introspection/ERC165.sol\":854:901  return interfaceId == type(IERC165).interfaceId */\n      swap1\n      pop\n        /* \"node_modules/@openzeppelin/contracts/utils/introspection/ERC165.sol\":762:908  function supportsInterface(bytes4 interfaceId) public view virtual returns (bool) {... */\n      swap2\n      swap1\n      pop\n      jump\t// out\n        /* \"node_modules/@openzeppelin/contracts/token/ERC721/ERC721.sol\":18041:18282  function _requireOwned(uint256 tokenId) internal view returns (address) {... */\n    tag_94:\n        /* \"node_modules/@openzeppelin/contracts/token/ERC721/ERC721.sol\":18104:18111  address */\n      0x00\n        /* \"node_modules/@openzeppelin/contracts/token/ERC721/ERC721.sol\":18123:18136  address owner */\n      dup1\n        /* \"node_modules/@openzeppelin/contracts/token/ERC721/ERC721.sol\":18139:18156  _ownerOf(tokenId) */\n      tag_139\n        /* \"node_modules/@openzeppelin/contracts/token/ERC721/ERC721.sol\":18148:18155  tokenId */\n      dup4\n        /* \"node_modules/@openzeppelin/contracts/token/ERC721/ERC721.sol\":18139:18147  _ownerOf */\n      tag_140\n        /* \"node_modules/@openzeppelin/contracts/token/ERC721/ERC721.sol\":18139:18156  _ownerOf(tokenId) */\n      jump\t// in\n    tag_139:\n        /* \"node_modules/@openzeppelin/contracts/token/ERC721/ERC721.sol\":18123:18156  address owner = _ownerOf(tokenId) */\n      swap1\n      pop\n        /* \"node_modules/@openzeppelin/contracts/token/ERC721/ERC721.sol\":18187:18188  0 */\n      0x00\n        /* \"node_modules/@openzeppelin/contracts/token/ERC721/ERC721.sol\":18170:18189  owner == address(0) */\n      0xffffffffffffffffffffffffffffffffffffffff\n      and\n        /* \"node_modules/@openzeppelin/contracts/token/ERC721/ERC721.sol\":18170:18175  owner */\n      dup2\n        /* \"node_modules/@openzeppelin/contracts/token/ERC721/ERC721.sol\":18170:18189  owner == address(0) */\n      0xffffffffffffffffffffffffffffffffffffffff\n      and\n      sub\n        /* \"node_modules/@openzeppelin/contracts/token/ERC721/ERC721.sol\":18166:18254  if (owner == address(0)) {... */\n      tag_141\n      jumpi\n        /* \"node_modules/@openzeppelin/contracts/token/ERC721/ERC721.sol\":18235:18242  tokenId */\n      dup3\n        /* \"node_modules/@openzeppelin/contracts/token/ERC721/ERC721.sol\":18212:18243  ERC721NonexistentToken(tokenId) */\n      mload(0x40)\n      0x7e27328900000000000000000000000000000000000000000000000000000000\n      dup2\n      mstore\n      0x04\n      add\n      tag_142\n      swap2\n      swap1\n      tag_56\n      jump\t// in\n    tag_142:\n      mload(0x40)\n      dup1\n      swap2\n      sub\n      swap1\n      revert\n        /* \"node_modules/@openzeppelin/contracts/token/ERC721/ERC721.sol\":18166:18254  if (owner == address(0)) {... */\n    tag_141:\n        /* \"node_modules/@openzeppelin/contracts/token/ERC721/ERC721.sol\":18270:18275  owner */\n      dup1\n        /* \"node_modules/@openzeppelin/contracts/token/ERC721/ERC721.sol\":18263:18275  return owner */\n      swap2\n      pop\n      pop\n        /* \"node_modules/@openzeppelin/contracts/token/ERC721/ERC721.sol\":18041:18282  function _requireOwned(uint256 tokenId) internal view returns (address) {... */\n      swap2\n      swap1\n      pop\n      jump\t// out\n        /* \"node_modules/@openzeppelin/contracts/token/ERC721/ERC721.sol\":7841:7968  function _getApproved(uint256 tokenId) internal view virtual returns (address) {... */\n    tag_96:\n        /* \"node_modules/@openzeppelin/contracts/token/ERC721/ERC721.sol\":7911:7918  address */\n      0x00\n        /* \"node_modules/@openzeppelin/contracts/token/ERC721/ERC721.sol\":7937:7952  _tokenApprovals */\n      0x04\n        /* \"node_modules/@openzeppelin/contracts/token/ERC721/ERC721.sol\":7937:7961  _tokenApprovals[tokenId] */\n      0x00\n        /* \"node_modules/@openzeppelin/contracts/token/ERC721/ERC721.sol\":7953:7960  tokenId */\n      dup4\n        /* \"node_modules/@openzeppelin/contracts/token/ERC721/ERC721.sol\":7937:7961  _tokenApprovals[tokenId] */\n      dup2\n      mstore\n      0x20\n      add\n      swap1\n      dup2\n      mstore\n      0x20\n      add\n      0x00\n      keccak256\n      0x00\n      swap1\n      sload\n      swap1\n      0x0100\n      exp\n      swap1\n      div\n      0xffffffffffffffffffffffffffffffffffffffff\n      and\n        /* \"node_modules/@openzeppelin/contracts/token/ERC721/ERC721.sol\":7930:7961  return _tokenApprovals[tokenId] */\n      swap1\n      pop\n        /* \"node_modules/@openzeppelin/contracts/token/ERC721/ERC721.sol\":7841:7968  function _getApproved(uint256 tokenId) internal view virtual returns (address) {... */\n      swap2\n      swap1\n      pop\n      jump\t// out\n        /* \"node_modules/@openzeppelin/contracts/utils/Context.sol\":656:752  function _msgSender() internal view virtual returns (address) {... */\n    tag_100:\n        /* \"node_modules/@openzeppelin/contracts/utils/Context.sol\":709:716  address */\n      0x00\n        /* \"node_modules/@openzeppelin/contracts/utils/Context.sol\":735:745  msg.sender */\n      caller\n        /* \"node_modules/@openzeppelin/contracts/utils/Context.sol\":728:745  return msg.sender */\n      swap1\n      pop\n        /* \"node_modules/@openzeppelin/contracts/utils/Context.sol\":656:752  function _msgSender() internal view virtual returns (address) {... */\n      swap1\n      jump\t// out\n        /* \"node_modules/@openzeppelin/contracts/token/ERC721/ERC721.sol\":16321:16441  function _approve(address to, uint256 tokenId, address auth) internal {... */\n    tag_101:\n        /* \"node_modules/@openzeppelin/contracts/token/ERC721/ERC721.sol\":16401:16434  _approve(to, tokenId, auth, true) */\n      tag_146\n        /* \"node_modules/@openzeppelin/contracts/token/ERC721/ERC721.sol\":16410:16412  to */\n      dup4\n        /* \"node_modules/@openzeppelin/contracts/token/ERC721/ERC721.sol\":16414:16421  tokenId */\n      dup4\n        /* \"node_modules/@openzeppelin/contracts/token/ERC721/ERC721.sol\":16423:16427  auth */\n      dup4\n        /* \"node_modules/@openzeppelin/contracts/token/ERC721/ERC721.sol\":16429:16433  true */\n      0x01\n        /* \"node_modules/@openzeppelin/contracts/token/ERC721/ERC721.sol\":16401:16409  _approve */\n      tag_147\n        /* \"node_modules/@openzeppelin/contracts/token/ERC721/ERC721.sol\":16401:16434  _approve(to, tokenId, auth, true) */\n      jump\t// in\n    tag_146:\n        /* \"node_modules/@openzeppelin/contracts/token/ERC721/ERC721.sol\":16321:16441  function _approve(address to, uint256 tokenId, address auth) internal {... */\n      pop\n      pop\n      pop\n      jump\t// out\n        /* \"node_modules/@openzeppelin/contracts/token/ERC721/ERC721.sol\":10741:11536  function _update(address to, uint256 tokenId, address auth) internal virtual returns (address) {... */\n    tag_107:\n        /* \"node_modules/@openzeppelin/contracts/token/ERC721/ERC721.sol\":10827:10834  address */\n      0x00\n        /* \"node_modules/@openzeppelin/contracts/token/ERC721/ERC721.sol\":10846:10858  address from */\n      dup1\n        /* \"node_modules/@openzeppelin/contracts/token/ERC721/ERC721.sol\":10861:10878  _ownerOf(tokenId) */\n      tag_149\n        /* \"node_modules/@openzeppelin/contracts/token/ERC721/ERC721.sol\":10870:10877  tokenId */\n      dup5\n        /* \"node_modules/@openzeppelin/contracts/token/ERC721/ERC721.sol\":10861:10869  _ownerOf */\n      tag_140\n        /* \"node_modules/@openzeppelin/contracts/token/ERC721/ERC721.sol\":10861:10878  _ownerOf(tokenId) */\n      jump\t// in\n    tag_149:\n        /* \"node_modules/@openzeppelin/contracts/token/ERC721/ERC721.sol\":10846:10878  address from = _ownerOf(tokenId) */\n      swap1\n      pop\n        /* \"node_modules/@openzeppelin/contracts/token/ERC721/ERC721.sol\":10954:10955  0 */\n      0x00\n        /* \"node_modules/@openzeppelin/contracts/token/ERC721/ERC721.sol\":10938:10956  auth != address(0) */\n      0xffffffffffffffffffffffffffffffffffffffff\n      and\n        /* \"node_modules/@openzeppelin/contracts/token/ERC721/ERC721.sol\":10938:10942  auth */\n      dup4\n        /* \"node_modules/@openzeppelin/contracts/token/ERC721/ERC721.sol\":10938:10956  auth != address(0) */\n      0xffffffffffffffffffffffffffffffffffffffff\n      and\n      eq\n        /* \"node_modules/@openzeppelin/contracts/token/ERC721/ERC721.sol\":10934:11020  if (auth != address(0)) {... */\n      tag_150\n      jumpi\n        /* \"node_modules/@openzeppelin/contracts/token/ERC721/ERC721.sol\":10972:11009  _checkAuthorized(from, auth, tokenId) */\n      tag_151\n        /* \"node_modules/@openzeppelin/contracts/token/ERC721/ERC721.sol\":10989:10993  from */\n      dup2\n        /* \"node_modules/@openzeppelin/contracts/token/ERC721/ERC721.sol\":10995:10999  auth */\n      dup5\n        /* \"node_modules/@openzeppelin/contracts/token/ERC721/ERC721.sol\":11001:11008  tokenId */\n      dup7\n        /* \"node_modules/@openzeppelin/contracts/token/ERC721/ERC721.sol\":10972:10988  _checkAuthorized */\n      tag_152\n        /* \"node_modules/@openzeppelin/contracts/token/ERC721/ERC721.sol\":10972:11009  _checkAuthorized(from, auth, tokenId) */\n      jump\t// in\n    tag_151:\n        /* \"node_modules/@openzeppelin/contracts/token/ERC721/ERC721.sol\":10934:11020  if (auth != address(0)) {... */\n    tag_150:\n        /* \"node_modules/@openzeppelin/contracts/token/ERC721/ERC721.sol\":11080:11081  0 */\n      0x00\n        /* \"node_modules/@openzeppelin/contracts/token/ERC721/ERC721.sol\":11064:11082  from != address(0) */\n      0xffffffffffffffffffffffffffffffffffffffff\n      and\n        /* \"node_modules/@openzeppelin/contracts/token/ERC721/ERC721.sol\":11064:11068  from */\n      dup2\n        /* \"node_modules/@openzeppelin/contracts/token/ERC721/ERC721.sol\":11064:11082  from != address(0) */\n      0xffffffffffffffffffffffffffffffffffffffff\n      and\n      eq\n        /* \"node_modules/@openzeppelin/contracts/token/ERC721/ERC721.sol\":11060:11316  if (from != address(0)) {... */\n      tag_153\n      jumpi\n        /* \"node_modules/@openzeppelin/contracts/token/ERC721/ERC721.sol\":11180:11228  _approve(address(0), tokenId, address(0), false) */\n      tag_154\n        /* \"node_modules/@openzeppelin/contracts/token/ERC721/ERC721.sol\":11197:11198  0 */\n      0x00\n        /* \"node_modules/@openzeppelin/contracts/token/ERC721/ERC721.sol\":11201:11208  tokenId */\n      dup6\n        /* \"node_modules/@openzeppelin/contracts/token/ERC721/ERC721.sol\":11218:11219  0 */\n      0x00\n        /* \"node_modules/@openzeppelin/contracts/token/ERC721/ERC721.sol\":11222:11227  false */\n      dup1\n        /* \"node_modules/@openzeppelin/contracts/token/ERC721/ERC721.sol\":11180:11188  _approve */\n      tag_147\n        /* \"node_modules/@openzeppelin/contracts/token/ERC721/ERC721.sol\":11180:11228  _approve(address(0), tokenId, address(0), false) */\n      jump\t// in\n    tag_154:\n        /* \"node_modules/@openzeppelin/contracts/token/ERC721/ERC721.sol\":11290:11291  1 */\n      0x01\n        /* \"node_modules/@openzeppelin/contracts/token/ERC721/ERC721.sol\":11271:11280  _balances */\n      0x03\n        /* \"node_modules/@openzeppelin/contracts/token/ERC721/ERC721.sol\":11271:11286  _balances[from] */\n      0x00\n        /* \"node_modules/@openzeppelin/contracts/token/ERC721/ERC721.sol\":11281:11285  from */\n      dup4\n        /* \"node_modules/@openzeppelin/contracts/token/ERC721/ERC721.sol\":11271:11286  _balances[from] */\n      0xffffffffffffffffffffffffffffffffffffffff\n      and\n      0xffffffffffffffffffffffffffffffffffffffff\n      and\n      dup2\n      mstore\n      0x20\n      add\n      swap1\n      dup2\n      mstore\n      0x20\n      add\n      0x00\n      keccak256\n      0x00\n        /* \"node_modules/@openzeppelin/contracts/token/ERC721/ERC721.sol\":11271:11291  _balances[from] -= 1 */\n      dup3\n      dup3\n      sload\n      sub\n      swap3\n      pop\n      pop\n      dup2\n      swap1\n      sstore\n      pop\n        /* \"node_modules/@openzeppelin/contracts/token/ERC721/ERC721.sol\":11060:11316  if (from != address(0)) {... */\n    tag_153:\n        /* \"node_modules/@openzeppelin/contracts/token/ERC721/ERC721.sol\":11344:11345  0 */\n      0x00\n        /* \"node_modules/@openzeppelin/contracts/token/ERC721/ERC721.sol\":11330:11346  to != address(0) */\n      0xffffffffffffffffffffffffffffffffffffffff\n      and\n        /* \"node_modules/@openzeppelin/contracts/token/ERC721/ERC721.sol\":11330:11332  to */\n      dup6\n        /* \"node_modules/@openzeppelin/contracts/token/ERC721/ERC721.sol\":11330:11346  to != address(0) */\n      0xffffffffffffffffffffffffffffffffffffffff\n      and\n      eq\n        /* \"node_modules/@openzeppelin/contracts/token/ERC721/ERC721.sol\":11326:11433  if (to != address(0)) {... */\n      tag_155\n      jumpi\n        /* \"node_modules/@openzeppelin/contracts/token/ERC721/ERC721.sol\":11407:11408  1 */\n      0x01\n        /* \"node_modules/@openzeppelin/contracts/token/ERC721/ERC721.sol\":11390:11399  _balances */\n      0x03\n        /* \"node_modules/@openzeppelin/contracts/token/ERC721/ERC721.sol\":11390:11403  _balances[to] */\n      0x00\n        /* \"node_modules/@openzeppelin/contracts/token/ERC721/ERC721.sol\":11400:11402  to */\n      dup8\n        /* \"node_modules/@openzeppelin/contracts/token/ERC721/ERC721.sol\":11390:11403  _balances[to] */\n      0xffffffffffffffffffffffffffffffffffffffff\n      and\n      0xffffffffffffffffffffffffffffffffffffffff\n      and\n      dup2\n      mstore\n      0x20\n      add\n      swap1\n      dup2\n      mstore\n      0x20\n      add\n      0x00\n      keccak256\n      0x00\n        /* \"node_modules/@openzeppelin/contracts/token/ERC721/ERC721.sol\":11390:11408  _balances[to] += 1 */\n      dup3\n      dup3\n      sload\n      add\n      swap3\n      pop\n      pop\n      dup2\n      swap1\n      sstore\n      pop\n        /* \"node_modules/@openzeppelin/contracts/token/ERC721/ERC721.sol\":11326:11433  if (to != address(0)) {... */\n    tag_155:\n        /* \"node_modules/@openzeppelin/contracts/token/ERC721/ERC721.sol\":11462:11464  to */\n      dup5\n        /* \"node_modules/@openzeppelin/contracts/token/ERC721/ERC721.sol\":11443:11450  _owners */\n      0x02\n        /* \"node_modules/@openzeppelin/contracts/token/ERC721/ERC721.sol\":11443:11459  _owners[tokenId] */\n      0x00\n        /* \"node_modules/@openzeppelin/contracts/token/ERC721/ERC721.sol\":11451:11458  tokenId */\n      dup7\n        /* \"node_modules/@openzeppelin/contracts/token/ERC721/ERC721.sol\":11443:11459  _owners[tokenId] */\n      dup2\n      mstore\n      0x20\n      add\n      swap1\n      dup2\n      mstore\n      0x20\n      add\n      0x00\n      keccak256\n      0x00\n        /* \"node_modules/@openzeppelin/contracts/token/ERC721/ERC721.sol\":11443:11464  _owners[tokenId] = to */\n      0x0100\n      exp\n      dup2\n      sload\n      dup2\n      0xffffffffffffffffffffffffffffffffffffffff\n      mul\n      not\n      and\n      swap1\n      dup4\n      0xffffffffffffffffffffffffffffffffffffffff\n      and\n      mul\n      or\n      swap1\n      sstore\n      pop\n        /* \"node_modules/@openzeppelin/contracts/token/ERC721/ERC721.sol\":11499:11506  tokenId */\n      dup4\n        /* \"node_modules/@openzeppelin/contracts/token/ERC721/ERC721.sol\":11495:11497  to */\n      dup6\n        /* \"node_modules/@openzeppelin/contracts/token/ERC721/ERC721.sol\":11480:11507  Transfer(from, to, tokenId) */\n      0xffffffffffffffffffffffffffffffffffffffff\n      and\n        /* \"node_modules/@openzeppelin/contracts/token/ERC721/ERC721.sol\":11489:11493  from */\n      dup3\n        /* \"node_modules/@openzeppelin/contracts/token/ERC721/ERC721.sol\":11480:11507  Transfer(from, to, tokenId) */\n      0xffffffffffffffffffffffffffffffffffffffff\n      and\n      0xddf252ad1be2c89b69c2b068fc378daa952ba7f163c4a11628f55a4df523b3ef\n      mload(0x40)\n      mload(0x40)\n      dup1\n      swap2\n      sub\n      swap1\n      log4\n        /* \"node_modules/@openzeppelin/contracts/token/ERC721/ERC721.sol\":11525:11529  from */\n      dup1\n        /* \"node_modules/@openzeppelin/contracts/token/ERC721/ERC721.sol\":11518:11529  return from */\n      swap2\n      pop\n      pop\n        /* \"node_modules/@openzeppelin/contracts/token/ERC721/ERC721.sol\":10741:11536  function _update(address to, uint256 tokenId, address auth) internal virtual returns (address) {... */\n      swap4\n      swap3\n      pop\n      pop\n      pop\n      jump\t// out\n        /* \"node_modules/@openzeppelin/contracts/token/ERC721/ERC721.sol\":17494:17806  function _setApprovalForAll(address owner, address operator, bool approved) internal virtual {... */\n    tag_127:\n        /* \"node_modules/@openzeppelin/contracts/token/ERC721/ERC721.sol\":17621:17622  0 */\n      0x00\n        /* \"node_modules/@openzeppelin/contracts/token/ERC721/ERC721.sol\":17601:17623  operator == address(0) */\n      0xffffffffffffffffffffffffffffffffffffffff\n      and\n        /* \"node_modules/@openzeppelin/contracts/token/ERC721/ERC721.sol\":17601:17609  operator */\n      dup3\n        /* \"node_modules/@openzeppelin/contracts/token/ERC721/ERC721.sol\":17601:17623  operator == address(0) */\n      0xffffffffffffffffffffffffffffffffffffffff\n      and\n      sub\n        /* \"node_modules/@openzeppelin/contracts/token/ERC721/ERC721.sol\":17597:17688  if (operator == address(0)) {... */\n      tag_157\n      jumpi\n        /* \"node_modules/@openzeppelin/contracts/token/ERC721/ERC721.sol\":17668:17676  operator */\n      dup2\n        /* \"node_modules/@openzeppelin/contracts/token/ERC721/ERC721.sol\":17646:17677  ERC721InvalidOperator(operator) */\n      mload(0x40)\n      0x5b08ba1800000000000000000000000000000000000000000000000000000000\n      dup2\n      mstore\n      0x04\n      add\n      tag_158\n      swap2\n      swap1\n      tag_35\n      jump\t// in\n    tag_158:\n      mload(0x40)\n      dup1\n      swap2\n      sub\n      swap1\n      revert\n        /* \"node_modules/@openzeppelin/contracts/token/ERC721/ERC721.sol\":17597:17688  if (operator == address(0)) {... */\n    tag_157:\n        /* \"node_modules/@openzeppelin/contracts/token/ERC721/ERC721.sol\":17735:17743  approved */\n      dup1\n        /* \"node_modules/@openzeppelin/contracts/token/ERC721/ERC721.sol\":17697:17715  _operatorApprovals */\n      0x05\n        /* \"node_modules/@openzeppelin/contracts/token/ERC721/ERC721.sol\":17697:17722  _operatorApprovals[owner] */\n      0x00\n        /* \"node_modules/@openzeppelin/contracts/token/ERC721/ERC721.sol\":17716:17721  owner */\n      dup6\n        /* \"node_modules/@openzeppelin/contracts/token/ERC721/ERC721.sol\":17697:17722  _operatorApprovals[owner] */\n      0xffffffffffffffffffffffffffffffffffffffff\n      and\n      0xffffffffffffffffffffffffffffffffffffffff\n      and\n      dup2\n      mstore\n      0x20\n      add\n      swap1\n      dup2\n      mstore\n      0x20\n      add\n      0x00\n      keccak256\n        /* \"node_modules/@openzeppelin/contracts/token/ERC721/ERC721.sol\":17697:17732  _operatorApprovals[owner][operator] */\n      0x00\n        /* \"node_modules/@openzeppelin/contracts/token/ERC721/ERC721.sol\":17723:17731  operator */\n      dup5\n        /* \"node_modules/@openzeppelin/contracts/token/ERC721/ERC721.sol\":17697:17732  _operatorApprovals[owner][operator] */\n      0xffffffffffffffffffffffffffffffffffffffff\n      and\n      0xffffffffffffffffffffffffffffffffffffffff\n      and\n      dup2\n      mstore\n      0x20\n      add\n      swap1\n      dup2\n      mstore\n      0x20\n      add\n      0x00\n      keccak256\n      0x00\n        /* \"node_modules/@openzeppelin/contracts/token/ERC721/ERC721.sol\":17697:17743  _operatorApprovals[owner][operator] = approved */\n      0x0100\n      exp\n      dup2\n      sload\n      dup2\n      0xff\n      mul\n      not\n      and\n      swap1\n      dup4\n      iszero\n      iszero\n      mul\n      or\n      swap1\n      sstore\n      pop\n        /* \"node_modules/@openzeppelin/contracts/token/ERC721/ERC721.sol\":17780:17788  operator */\n      dup2\n        /* \"node_modules/@openzeppelin/contracts/token/ERC721/ERC721.sol\":17758:17799  ApprovalForAll(owner, operator, approved) */\n      0xffffffffffffffffffffffffffffffffffffffff\n      and\n        /* \"node_modules/@openzeppelin/contracts/token/ERC721/ERC721.sol\":17773:17778  owner */\n      dup4\n        /* \"node_modules/@openzeppelin/contracts/token/ERC721/ERC721.sol\":17758:17799  ApprovalForAll(owner, operator, approved) */\n      0xffffffffffffffffffffffffffffffffffffffff\n      and\n      0x17307eab39ab6107e8899845ad3d59bd9653f200f220920489ca2b5937696c31\n        /* \"node_modules/@openzeppelin/contracts/token/ERC721/ERC721.sol\":17790:17798  approved */\n      dup4\n        /* \"node_modules/@openzeppelin/contracts/token/ERC721/ERC721.sol\":17758:17799  ApprovalForAll(owner, operator, approved) */\n      mload(0x40)\n      tag_159\n      swap2\n      swap1\n      tag_25\n      jump\t// in\n    tag_159:\n      mload(0x40)\n      dup1\n      swap2\n      sub\n      swap1\n      log3\n        /* \"node_modules/@openzeppelin/contracts/token/ERC721/ERC721.sol\":17494:17806  function _setApprovalForAll(address owner, address operator, bool approved) internal virtual {... */\n      pop\n      pop\n      pop\n      jump\t// out\n        /* \"node_modules/@openzeppelin/contracts/token/ERC721/ERC721.sol\":18821:19603  function _checkOnERC721Received(address from, address to, uint256 tokenId, bytes memory data) private {... */\n    tag_131:\n        /* \"node_modules/@openzeppelin/contracts/token/ERC721/ERC721.sol\":18954:18955  0 */\n      0x00\n        /* \"node_modules/@openzeppelin/contracts/token/ERC721/ERC721.sol\":18937:18939  to */\n      dup4\n        /* \"node_modules/@openzeppelin/contracts/token/ERC721/ERC721.sol\":18937:18951  to.code.length */\n      0xffffffffffffffffffffffffffffffffffffffff\n      and\n      extcodesize\n        /* \"node_modules/@openzeppelin/contracts/token/ERC721/ERC721.sol\":18937:18955  to.code.length > 0 */\n      gt\n        /* \"node_modules/@openzeppelin/contracts/token/ERC721/ERC721.sol\":18933:19597  if (to.code.length > 0) {... */\n      iszero\n      tag_161\n      jumpi\n        /* \"node_modules/@openzeppelin/contracts/token/ERC721/ERC721.sol\":18991:18993  to */\n      dup3\n        /* \"node_modules/@openzeppelin/contracts/token/ERC721/ERC721.sol\":18975:19011  IERC721Receiver(to).onERC721Received */\n      0xffffffffffffffffffffffffffffffffffffffff\n      and\n      0x150b7a02\n        /* \"node_modules/@openzeppelin/contracts/token/ERC721/ERC721.sol\":19012:19024  _msgSender() */\n      tag_162\n        /* \"node_modules/@openzeppelin/contracts/token/ERC721/ERC721.sol\":19012:19022  _msgSender */\n      tag_100\n        /* \"node_modules/@openzeppelin/contracts/token/ERC721/ERC721.sol\":19012:19024  _msgSender() */\n      jump\t// in\n    tag_162:\n        /* \"node_modules/@openzeppelin/contracts/token/ERC721/ERC721.sol\":19026:19030  from */\n      dup7\n        /* \"node_modules/@openzeppelin/contracts/token/ERC721/ERC721.sol\":19032:19039  tokenId */\n      dup6\n        /* \"node_modules/@openzeppelin/contracts/token/ERC721/ERC721.sol\":19041:19045  data */\n      dup6\n        /* \"node_modules/@openzeppelin/contracts/token/ERC721/ERC721.sol\":18975:19046  IERC721Receiver(to).onERC721Received(_msgSender(), from, tokenId, data) */\n      mload(0x40)\n      dup6\n      0xffffffff\n      and\n      0xe0\n      shl\n      dup2\n      mstore\n      0x04\n      add\n      tag_163\n      swap5\n      swap4\n      swap3\n      swap2\n      swap1\n      tag_164\n      jump\t// in\n    tag_163:\n      0x20\n      mload(0x40)\n      dup1\n      dup4\n      sub\n      dup2\n      0x00\n      dup8\n      gas\n      call\n      swap3\n      pop\n      pop\n      pop\n      dup1\n      iszero\n      tag_165\n      jumpi\n      pop\n      mload(0x40)\n      returndatasize\n      not(0x1f)\n      0x1f\n      dup3\n      add\n      and\n      dup3\n      add\n      dup1\n      0x40\n      mstore\n      pop\n      dup2\n      add\n      swap1\n      tag_166\n      swap2\n      swap1\n      tag_167\n      jump\t// in\n    tag_166:\n      0x01\n    tag_165:\n        /* \"node_modules/@openzeppelin/contracts/token/ERC721/ERC721.sol\":18971:19587  try IERC721Receiver(to).onERC721Received(_msgSender(), from, tokenId, data) returns (bytes4 retval) {... */\n      tag_168\n      jumpi\n      returndatasize\n      dup1\n      0x00\n      dup2\n      eq\n      tag_173\n      jumpi\n      mload(0x40)\n      swap2\n      pop\n      and(add(returndatasize, 0x3f), not(0x1f))\n      dup3\n      add\n      0x40\n      mstore\n      returndatasize\n      dup3\n      mstore\n      returndatasize\n      0x00\n      0x20\n      dup5\n      add\n      returndatacopy\n      jump(tag_172)\n    tag_173:\n      0x60\n      swap2\n      pop\n    tag_172:\n      pop\n        /* \"node_modules/@openzeppelin/contracts/token/ERC721/ERC721.sol\":19301:19302  0 */\n      0x00\n        /* \"node_modules/@openzeppelin/contracts/token/ERC721/ERC721.sol\":19284:19290  reason */\n      dup2\n        /* \"node_modules/@openzeppelin/contracts/token/ERC721/ERC721.sol\":19284:19297  reason.length */\n      mload\n        /* \"node_modules/@openzeppelin/contracts/token/ERC721/ERC721.sol\":19284:19302  reason.length == 0 */\n      sub\n        /* \"node_modules/@openzeppelin/contracts/token/ERC721/ERC721.sol\":19280:19573  if (reason.length == 0) {... */\n      tag_174\n      jumpi\n        /* \"node_modules/@openzeppelin/contracts/token/ERC721/ERC721.sol\":19355:19357  to */\n      dup4\n        /* \"node_modules/@openzeppelin/contracts/token/ERC721/ERC721.sol\":19333:19358  ERC721InvalidReceiver(to) */\n      mload(0x40)\n      0x64a0ae9200000000000000000000000000000000000000000000000000000000\n      dup2\n      mstore\n      0x04\n      add\n      tag_175\n      swap2\n      swap1\n      tag_35\n      jump\t// in\n    tag_175:\n      mload(0x40)\n      dup1\n      swap2\n      sub\n      swap1\n      revert\n        /* \"node_modules/@openzeppelin/contracts/token/ERC721/ERC721.sol\":19280:19573  if (reason.length == 0) {... */\n    tag_174:\n        /* \"node_modules/@openzeppelin/contracts/token/ERC721/ERC721.sol\":19525:19531  reason */\n      dup1\n        /* \"node_modules/@openzeppelin/contracts/token/ERC721/ERC721.sol\":19519:19532  mload(reason) */\n      mload\n        /* \"node_modules/@openzeppelin/contracts/token/ERC721/ERC721.sol\":19510:19516  reason */\n      dup2\n        /* \"node_modules/@openzeppelin/contracts/token/ERC721/ERC721.sol\":19506:19508  32 */\n      0x20\n        /* \"node_modules/@openzeppelin/contracts/token/ERC721/ERC721.sol\":19502:19517  add(32, reason) */\n      add\n        /* \"node_modules/@openzeppelin/contracts/token/ERC721/ERC721.sol\":19495:19533  revert(add(32, reason), mload(reason)) */\n      revert\n        /* \"node_modules/@openzeppelin/contracts/token/ERC721/ERC721.sol\":18971:19587  try IERC721Receiver(to).onERC721Received(_msgSender(), from, tokenId, data) returns (bytes4 retval) {... */\n    tag_168:\n        /* \"node_modules/@openzeppelin/contracts/token/ERC721/ERC721.sol\":19103:19144  IERC721Receiver.onERC721Received.selector */\n      shl(0xe0, 0x150b7a02)\n        /* \"node_modules/@openzeppelin/contracts/token/ERC721/ERC721.sol\":19093:19144  retval != IERC721Receiver.onERC721Received.selector */\n      not(0xffffffffffffffffffffffffffffffffffffffffffffffffffffffff)\n      and\n        /* \"node_modules/@openzeppelin/contracts/token/ERC721/ERC721.sol\":19093:19099  retval */\n      dup2\n        /* \"node_modules/@openzeppelin/contracts/token/ERC721/ERC721.sol\":19093:19144  retval != IERC721Receiver.onERC721Received.selector */\n      not(0xffffffffffffffffffffffffffffffffffffffffffffffffffffffff)\n      and\n      eq\n        /* \"node_modules/@openzeppelin/contracts/token/ERC721/ERC721.sol\":19089:19219  if (retval != IERC721Receiver.onERC721Received.selector) {... */\n      tag_178\n      jumpi\n        /* \"node_modules/@openzeppelin/contracts/token/ERC721/ERC721.sol\":19197:19199  to */\n      dup4\n        /* \"node_modules/@openzeppelin/contracts/token/ERC721/ERC721.sol\":19175:19200  ERC721InvalidReceiver(to) */\n      mload(0x40)\n      0x64a0ae9200000000000000000000000000000000000000000000000000000000\n      dup2\n      mstore\n      0x04\n      add\n      tag_179\n      swap2\n      swap1\n      tag_35\n      jump\t// in\n    tag_179:\n      mload(0x40)\n      dup1\n      swap2\n      sub\n      swap1\n      revert\n        /* \"node_modules/@openzeppelin/contracts/token/ERC721/ERC721.sol\":19089:19219  if (retval != IERC721Receiver.onERC721Received.selector) {... */\n    tag_178:\n        /* \"node_modules/@openzeppelin/contracts/token/ERC721/ERC721.sol\":19047:19233  returns (bytes4 retval) {... */\n      pop\n        /* \"node_modules/@openzeppelin/contracts/token/ERC721/ERC721.sol\":18933:19597  if (to.code.length > 0) {... */\n    tag_161:\n        /* \"node_modules/@openzeppelin/contracts/token/ERC721/ERC721.sol\":18821:19603  function _checkOnERC721Received(address from, address to, uint256 tokenId, bytes memory data) private {... */\n      pop\n      pop\n      pop\n      pop\n      jump\t// out\n        /* \"node_modules/@openzeppelin/contracts/token/ERC721/ERC721.sol\":11858:12185  function _mint(address to, uint256 tokenId) internal {... */\n    tag_136:\n        /* \"node_modules/@openzeppelin/contracts/token/ERC721/ERC721.sol\":11939:11940  0 */\n      0x00\n        /* \"node_modules/@openzeppelin/contracts/token/ERC721/ERC721.sol\":11925:11941  to == address(0) */\n      0xffffffffffffffffffffffffffffffffffffffff\n      and\n        /* \"node_modules/@openzeppelin/contracts/token/ERC721/ERC721.sol\":11925:11927  to */\n      dup3\n        /* \"node_modules/@openzeppelin/contracts/token/ERC721/ERC721.sol\":11925:11941  to == address(0) */\n      0xffffffffffffffffffffffffffffffffffffffff\n      and\n      sub\n        /* \"node_modules/@openzeppelin/contracts/token/ERC721/ERC721.sol\":11921:12008  if (to == address(0)) {... */\n      tag_181\n      jumpi\n        /* \"node_modules/@openzeppelin/contracts/token/ERC721/ERC721.sol\":11994:11995  0 */\n      0x00\n        /* \"node_modules/@openzeppelin/contracts/token/ERC721/ERC721.sol\":11964:11997  ERC721InvalidReceiver(address(0)) */\n      mload(0x40)\n      0x64a0ae9200000000000000000000000000000000000000000000000000000000\n      dup2\n      mstore\n      0x04\n      add\n      tag_182\n      swap2\n      swap1\n      tag_35\n      jump\t// in\n    tag_182:\n      mload(0x40)\n      dup1\n      swap2\n      sub\n      swap1\n      revert\n        /* \"node_modules/@openzeppelin/contracts/token/ERC721/ERC721.sol\":11921:12008  if (to == address(0)) {... */\n    tag_181:\n        /* \"node_modules/@openzeppelin/contracts/token/ERC721/ERC721.sol\":12017:12038  address previousOwner */\n      0x00\n        /* \"node_modules/@openzeppelin/contracts/token/ERC721/ERC721.sol\":12041:12073  _update(to, tokenId, address(0)) */\n      tag_183\n        /* \"node_modules/@openzeppelin/contracts/token/ERC721/ERC721.sol\":12049:12051  to */\n      dup4\n        /* \"node_modules/@openzeppelin/contracts/token/ERC721/ERC721.sol\":12053:12060  tokenId */\n      dup4\n        /* \"node_modules/@openzeppelin/contracts/token/ERC721/ERC721.sol\":12070:12071  0 */\n      0x00\n        /* \"node_modules/@openzeppelin/contracts/token/ERC721/ERC721.sol\":12041:12048  _update */\n      tag_107\n        /* \"node_modules/@openzeppelin/contracts/token/ERC721/ERC721.sol\":12041:12073  _update(to, tokenId, address(0)) */\n      jump\t// in\n    tag_183:\n        /* \"node_modules/@openzeppelin/contracts/token/ERC721/ERC721.sol\":12017:12073  address previousOwner = _update(to, tokenId, address(0)) */\n      swap1\n      pop\n        /* \"node_modules/@openzeppelin/contracts/token/ERC721/ERC721.sol\":12112:12113  0 */\n      0x00\n        /* \"node_modules/@openzeppelin/contracts/token/ERC721/ERC721.sol\":12087:12114  previousOwner != address(0) */\n      0xffffffffffffffffffffffffffffffffffffffff\n      and\n        /* \"node_modules/@openzeppelin/contracts/token/ERC721/ERC721.sol\":12087:12100  previousOwner */\n      dup2\n        /* \"node_modules/@openzeppelin/contracts/token/ERC721/ERC721.sol\":12087:12114  previousOwner != address(0) */\n      0xffffffffffffffffffffffffffffffffffffffff\n      and\n      eq\n        /* \"node_modules/@openzeppelin/contracts/token/ERC721/ERC721.sol\":12083:12179  if (previousOwner != address(0)) {... */\n      tag_184\n      jumpi\n        /* \"node_modules/@openzeppelin/contracts/token/ERC721/ERC721.sol\":12165:12166  0 */\n      0x00\n        /* \"node_modules/@openzeppelin/contracts/token/ERC721/ERC721.sol\":12137:12168  ERC721InvalidSender(address(0)) */\n      mload(0x40)\n      0x73c6ac6e00000000000000000000000000000000000000000000000000000000\n      dup2\n      mstore\n      0x04\n      add\n      tag_185\n      swap2\n      swap1\n      tag_35\n      jump\t// in\n    tag_185:\n      mload(0x40)\n      dup1\n      swap2\n      sub\n      swap1\n      revert\n        /* \"node_modules/@openzeppelin/contracts/token/ERC721/ERC721.sol\":12083:12179  if (previousOwner != address(0)) {... */\n    tag_184:\n        /* \"node_modules/@openzeppelin/contracts/token/ERC721/ERC721.sol\":11911:12185  {... */\n      pop\n        /* \"node_modules/@openzeppelin/contracts/token/ERC721/ERC721.sol\":11858:12185  function _mint(address to, uint256 tokenId) internal {... */\n      pop\n      pop\n      jump\t// out\n        /* \"node_modules/@openzeppelin/contracts/token/ERC721/ERC721.sol\":7610:7725  function _ownerOf(uint256 tokenId) internal view virtual returns (address) {... */\n    tag_140:\n        /* \"node_modules/@openzeppelin/contracts/token/ERC721/ERC721.sol\":7676:7683  address */\n      0x00\n        /* \"node_modules/@openzeppelin/contracts/token/ERC721/ERC721.sol\":7702:7709  _owners */\n      0x02\n        /* \"node_modules/@openzeppelin/contracts/token/ERC721/ERC721.sol\":7702:7718  _owners[tokenId] */\n      0x00\n        /* \"node_modules/@openzeppelin/contracts/token/ERC721/ERC721.sol\":7710:7717  tokenId */\n      dup4\n        /* \"node_modules/@openzeppelin/contracts/token/ERC721/ERC721.sol\":7702:7718  _owners[tokenId] */\n      dup2\n      mstore\n      0x20\n      add\n      swap1\n      dup2\n      mstore\n      0x20\n      add\n      0x00\n      keccak256\n      0x00\n      swap1\n      sload\n      swap1\n      0x0100\n      exp\n      swap1\n      div\n      0xffffffffffffffffffffffffffffffffffffffff\n      and\n        /* \"node_modules/@openzeppelin/contracts/token/ERC721/ERC721.sol\":7695:7718  return _owners[tokenId] */\n      swap1\n      pop\n        /* \"node_modules/@openzeppelin/contracts/token/ERC721/ERC721.sol\":7610:7725  function _ownerOf(uint256 tokenId) internal view virtual returns (address) {... */\n      swap2\n      swap1\n      pop\n      jump\t// out\n        /* \"node_modules/@openzeppelin/contracts/token/ERC721/ERC721.sol\":16623:17285  function _approve(address to, uint256 tokenId, address auth, bool emitEvent) internal virtual {... */\n    tag_147:\n        /* \"node_modules/@openzeppelin/contracts/token/ERC721/ERC721.sol\":16783:16792  emitEvent */\n      dup1\n        /* \"node_modules/@openzeppelin/contracts/token/ERC721/ERC721.sol\":16783:16814  emitEvent || auth != address(0) */\n      dup1\n      tag_188\n      jumpi\n      pop\n        /* \"node_modules/@openzeppelin/contracts/token/ERC721/ERC721.sol\":16812:16813  0 */\n      0x00\n        /* \"node_modules/@openzeppelin/contracts/token/ERC721/ERC721.sol\":16796:16814  auth != address(0) */\n      0xffffffffffffffffffffffffffffffffffffffff\n      and\n        /* \"node_modules/@openzeppelin/contracts/token/ERC721/ERC721.sol\":16796:16800  auth */\n      dup3\n        /* \"node_modules/@openzeppelin/contracts/token/ERC721/ERC721.sol\":16796:16814  auth != address(0) */\n      0xffffffffffffffffffffffffffffffffffffffff\n      and\n      eq\n      iszero\n        /* \"node_modules/@openzeppelin/contracts/token/ERC721/ERC721.sol\":16783:16814  emitEvent || auth != address(0) */\n    tag_188:\n        /* \"node_modules/@openzeppelin/contracts/token/ERC721/ERC721.sol\":16779:17239  if (emitEvent || auth != address(0)) {... */\n      iszero\n      tag_189\n      jumpi\n        /* \"node_modules/@openzeppelin/contracts/token/ERC721/ERC721.sol\":16830:16843  address owner */\n      0x00\n        /* \"node_modules/@openzeppelin/contracts/token/ERC721/ERC721.sol\":16846:16868  _requireOwned(tokenId) */\n      tag_190\n        /* \"node_modules/@openzeppelin/contracts/token/ERC721/ERC721.sol\":16860:16867  tokenId */\n      dup5\n        /* \"node_modules/@openzeppelin/contracts/token/ERC721/ERC721.sol\":16846:16859  _requireOwned */\n      tag_94\n        /* \"node_modules/@openzeppelin/contracts/token/ERC721/ERC721.sol\":16846:16868  _requireOwned(tokenId) */\n      jump\t// in\n    tag_190:\n        /* \"node_modules/@openzeppelin/contracts/token/ERC721/ERC721.sol\":16830:16868  address owner = _requireOwned(tokenId) */\n      swap1\n      pop\n        /* \"node_modules/@openzeppelin/contracts/token/ERC721/ERC721.sol\":17012:17013  0 */\n      0x00\n        /* \"node_modules/@openzeppelin/contracts/token/ERC721/ERC721.sol\":16996:17014  auth != address(0) */\n      0xffffffffffffffffffffffffffffffffffffffff\n      and\n        /* \"node_modules/@openzeppelin/contracts/token/ERC721/ERC721.sol\":16996:17000  auth */\n      dup4\n        /* \"node_modules/@openzeppelin/contracts/token/ERC721/ERC721.sol\":16996:17014  auth != address(0) */\n      0xffffffffffffffffffffffffffffffffffffffff\n      and\n      eq\n      iszero\n        /* \"node_modules/@openzeppelin/contracts/token/ERC721/ERC721.sol\":16996:17031  auth != address(0) && owner != auth */\n      dup1\n      iszero\n      tag_191\n      jumpi\n      pop\n        /* \"node_modules/@openzeppelin/contracts/token/ERC721/ERC721.sol\":17027:17031  auth */\n      dup3\n        /* \"node_modules/@openzeppelin/contracts/token/ERC721/ERC721.sol\":17018:17031  owner != auth */\n      0xffffffffffffffffffffffffffffffffffffffff\n      and\n        /* \"node_modules/@openzeppelin/contracts/token/ERC721/ERC721.sol\":17018:17023  owner */\n      dup2\n        /* \"node_modules/@openzeppelin/contracts/token/ERC721/ERC721.sol\":17018:17031  owner != auth */\n      0xffffffffffffffffffffffffffffffffffffffff\n      and\n      eq\n      iszero\n        /* \"node_modules/@openzeppelin/contracts/token/ERC721/ERC721.sol\":16996:17031  auth != address(0) && owner != auth */\n    tag_191:\n        /* \"node_modules/@openzeppelin/contracts/token/ERC721/ERC721.sol\":16996:17065  auth != address(0) && owner != auth && !isApprovedForAll(owner, auth) */\n      dup1\n      iszero\n      tag_192\n      jumpi\n      pop\n        /* \"node_modules/@openzeppelin/contracts/token/ERC721/ERC721.sol\":17036:17065  isApprovedForAll(owner, auth) */\n      tag_193\n        /* \"node_modules/@openzeppelin/contracts/token/ERC721/ERC721.sol\":17053:17058  owner */\n      dup2\n        /* \"node_modules/@openzeppelin/contracts/token/ERC721/ERC721.sol\":17060:17064  auth */\n      dup5\n        /* \"node_modules/@openzeppelin/contracts/token/ERC721/ERC721.sol\":17036:17052  isApprovedForAll */\n      tag_75\n        /* \"node_modules/@openzeppelin/contracts/token/ERC721/ERC721.sol\":17036:17065  isApprovedForAll(owner, auth) */\n      jump\t// in\n    tag_193:\n        /* \"node_modules/@openzeppelin/contracts/token/ERC721/ERC721.sol\":17035:17065  !isApprovedForAll(owner, auth) */\n      iszero\n        /* \"node_modules/@openzeppelin/contracts/token/ERC721/ERC721.sol\":16996:17065  auth != address(0) && owner != auth && !isApprovedForAll(owner, auth) */\n    tag_192:\n        /* \"node_modules/@openzeppelin/contracts/token/ERC721/ERC721.sol\":16992:17134  if (auth != address(0) && owner != auth && !isApprovedForAll(owner, auth)) {... */\n      iszero\n      tag_194\n      jumpi\n        /* \"node_modules/@openzeppelin/contracts/token/ERC721/ERC721.sol\":17114:17118  auth */\n      dup3\n        /* \"node_modules/@openzeppelin/contracts/token/ERC721/ERC721.sol\":17092:17119  ERC721InvalidApprover(auth) */\n      mload(0x40)\n      0xa9fbf51f00000000000000000000000000000000000000000000000000000000\n      dup2\n      mstore\n      0x04\n      add\n      tag_195\n      swap2\n      swap1\n      tag_35\n      jump\t// in\n    tag_195:\n      mload(0x40)\n      dup1\n      swap2\n      sub\n      swap1\n      revert\n        /* \"node_modules/@openzeppelin/contracts/token/ERC721/ERC721.sol\":16992:17134  if (auth != address(0) && owner != auth && !isApprovedForAll(owner, auth)) {... */\n    tag_194:\n        /* \"node_modules/@openzeppelin/contracts/token/ERC721/ERC721.sol\":17152:17161  emitEvent */\n      dup2\n        /* \"node_modules/@openzeppelin/contracts/token/ERC721/ERC721.sol\":17148:17229  if (emitEvent) {... */\n      iszero\n      tag_196\n      jumpi\n        /* \"node_modules/@openzeppelin/contracts/token/ERC721/ERC721.sol\":17206:17213  tokenId */\n      dup4\n        /* \"node_modules/@openzeppelin/contracts/token/ERC721/ERC721.sol\":17202:17204  to */\n      dup6\n        /* \"node_modules/@openzeppelin/contracts/token/ERC721/ERC721.sol\":17186:17214  Approval(owner, to, tokenId) */\n      0xffffffffffffffffffffffffffffffffffffffff\n      and\n        /* \"node_modules/@openzeppelin/contracts/token/ERC721/ERC721.sol\":17195:17200  owner */\n      dup3\n        /* \"node_modules/@openzeppelin/contracts/token/ERC721/ERC721.sol\":17186:17214  Approval(owner, to, tokenId) */\n      0xffffffffffffffffffffffffffffffffffffffff\n      and\n      0x8c5be1e5ebec7d5bd14f71427d1e84f3dd0314c0f7b2291e5b200ac8c7c3b925\n      mload(0x40)\n      mload(0x40)\n      dup1\n      swap2\n      sub\n      swap1\n      log4\n        /* \"node_modules/@openzeppelin/contracts/token/ERC721/ERC721.sol\":17148:17229  if (emitEvent) {... */\n    tag_196:\n        /* \"node_modules/@openzeppelin/contracts/token/ERC721/ERC721.sol\":16816:17239  {... */\n      pop\n        /* \"node_modules/@openzeppelin/contracts/token/ERC721/ERC721.sol\":16779:17239  if (emitEvent || auth != address(0)) {... */\n    tag_189:\n        /* \"node_modules/@openzeppelin/contracts/token/ERC721/ERC721.sol\":17276:17278  to */\n      dup4\n        /* \"node_modules/@openzeppelin/contracts/token/ERC721/ERC721.sol\":17249:17264  _tokenApprovals */\n      0x04\n        /* \"node_modules/@openzeppelin/contracts/token/ERC721/ERC721.sol\":17249:17273  _tokenApprovals[tokenId] */\n      0x00\n        /* \"node_modules/@openzeppelin/contracts/token/ERC721/ERC721.sol\":17265:17272  tokenId */\n      dup6\n        /* \"node_modules/@openzeppelin/contracts/token/ERC721/ERC721.sol\":17249:17273  _tokenApprovals[tokenId] */\n      dup2\n      mstore\n      0x20\n      add\n      swap1\n      dup2\n      mstore\n      0x20\n      add\n      0x00\n      keccak256\n      0x00\n        /* \"node_modules/@openzeppelin/contracts/token/ERC721/ERC721.sol\":17249:17278  _tokenApprovals[tokenId] = to */\n      0x0100\n      exp\n      dup2\n      sload\n      dup2\n      0xffffffffffffffffffffffffffffffffffffffff\n      mul\n      not\n      and\n      swap1\n      dup4\n      0xffffffffffffffffffffffffffffffffffffffff\n      and\n      mul\n      or\n      swap1\n      sstore\n      pop\n        /* \"node_modules/@openzeppelin/contracts/token/ERC721/ERC721.sol\":16623:17285  function _approve(address to, uint256 tokenId, address auth, bool emitEvent) internal virtual {... */\n      pop\n      pop\n      pop\n      pop\n      jump\t// out\n        /* \"node_modules/@openzeppelin/contracts/token/ERC721/ERC721.sol\":8985:9353  function _checkAuthorized(address owner, address spender, uint256 tokenId) internal view virtual {... */\n    tag_152:\n        /* \"node_modules/@openzeppelin/contracts/token/ERC721/ERC721.sol\":9097:9135  _isAuthorized(owner, spender, tokenId) */\n      tag_198\n        /* \"node_modules/@openzeppelin/contracts/token/ERC721/ERC721.sol\":9111:9116  owner */\n      dup4\n        /* \"node_modules/@openzeppelin/contracts/token/ERC721/ERC721.sol\":9118:9125  spender */\n      dup4\n        /* \"node_modules/@openzeppelin/contracts/token/ERC721/ERC721.sol\":9127:9134  tokenId */\n      dup4\n        /* \"node_modules/@openzeppelin/contracts/token/ERC721/ERC721.sol\":9097:9110  _isAuthorized */\n      tag_199\n        /* \"node_modules/@openzeppelin/contracts/token/ERC721/ERC721.sol\":9097:9135  _isAuthorized(owner, spender, tokenId) */\n      jump\t// in\n    tag_198:\n        /* \"node_modules/@openzeppelin/contracts/token/ERC721/ERC721.sol\":9092:9347  if (!_isAuthorized(owner, spender, tokenId)) {... */\n      tag_200\n      jumpi\n        /* \"node_modules/@openzeppelin/contracts/token/ERC721/ERC721.sol\":9172:9173  0 */\n      0x00\n        /* \"node_modules/@openzeppelin/contracts/token/ERC721/ERC721.sol\":9155:9174  owner == address(0) */\n      0xffffffffffffffffffffffffffffffffffffffff\n      and\n        /* \"node_modules/@openzeppelin/contracts/token/ERC721/ERC721.sol\":9155:9160  owner */\n      dup4\n        /* \"node_modules/@openzeppelin/contracts/token/ERC721/ERC721.sol\":9155:9174  owner == address(0) */\n      0xffffffffffffffffffffffffffffffffffffffff\n      and\n      sub\n        /* \"node_modules/@openzeppelin/contracts/token/ERC721/ERC721.sol\":9151:9337  if (owner == address(0)) {... */\n      tag_201\n      jumpi\n        /* \"node_modules/@openzeppelin/contracts/token/ERC721/ERC721.sol\":9224:9231  tokenId */\n      dup1\n        /* \"node_modules/@openzeppelin/contracts/token/ERC721/ERC721.sol\":9201:9232  ERC721NonexistentToken(tokenId) */\n      mload(0x40)\n      0x7e27328900000000000000000000000000000000000000000000000000000000\n      dup2\n      mstore\n      0x04\n      add\n      tag_202\n      swap2\n      swap1\n      tag_56\n      jump\t// in\n    tag_202:\n      mload(0x40)\n      dup1\n      swap2\n      sub\n      swap1\n      revert\n        /* \"node_modules/@openzeppelin/contracts/token/ERC721/ERC721.sol\":9151:9337  if (owner == address(0)) {... */\n    tag_201:\n        /* \"node_modules/@openzeppelin/contracts/token/ERC721/ERC721.sol\":9305:9312  spender */\n      dup2\n        /* \"node_modules/@openzeppelin/contracts/token/ERC721/ERC721.sol\":9314:9321  tokenId */\n      dup2\n        /* \"node_modules/@openzeppelin/contracts/token/ERC721/ERC721.sol\":9278:9322  ERC721InsufficientApproval(spender, tokenId) */\n      mload(0x40)\n      0x177e802f00000000000000000000000000000000000000000000000000000000\n      dup2\n      mstore\n      0x04\n      add\n      tag_204\n      swap3\n      swap2\n      swap1\n      tag_205\n      jump\t// in\n    tag_204:\n      mload(0x40)\n      dup1\n      swap2\n      sub\n      swap1\n      revert\n        /* \"node_modules/@openzeppelin/contracts/token/ERC721/ERC721.sol\":9092:9347  if (!_isAuthorized(owner, spender, tokenId)) {... */\n    tag_200:\n        /* \"node_modules/@openzeppelin/contracts/token/ERC721/ERC721.sol\":8985:9353  function _checkAuthorized(address owner, address spender, uint256 tokenId) internal view virtual {... */\n      pop\n      pop\n      pop\n      jump\t// out\n        /* \"node_modules/@openzeppelin/contracts/token/ERC721/ERC721.sol\":8279:8551  function _isAuthorized(address owner, address spender, uint256 tokenId) internal view virtual returns (bool) {... */\n    tag_199:\n        /* \"node_modules/@openzeppelin/contracts/token/ERC721/ERC721.sol\":8382:8386  bool */\n      0x00\n        /* \"node_modules/@openzeppelin/contracts/token/ERC721/ERC721.sol\":8436:8437  0 */\n      dup1\n        /* \"node_modules/@openzeppelin/contracts/token/ERC721/ERC721.sol\":8417:8438  spender != address(0) */\n      0xffffffffffffffffffffffffffffffffffffffff\n      and\n        /* \"node_modules/@openzeppelin/contracts/token/ERC721/ERC721.sol\":8417:8424  spender */\n      dup4\n        /* \"node_modules/@openzeppelin/contracts/token/ERC721/ERC721.sol\":8417:8438  spender != address(0) */\n      0xffffffffffffffffffffffffffffffffffffffff\n      and\n      eq\n      iszero\n        /* \"node_modules/@openzeppelin/contracts/token/ERC721/ERC721.sol\":8417:8544  spender != address(0) &&... */\n      dup1\n      iszero\n      tag_207\n      jumpi\n      pop\n        /* \"node_modules/@openzeppelin/contracts/token/ERC721/ERC721.sol\":8464:8471  spender */\n      dup3\n        /* \"node_modules/@openzeppelin/contracts/token/ERC721/ERC721.sol\":8455:8471  owner == spender */\n      0xffffffffffffffffffffffffffffffffffffffff\n      and\n        /* \"node_modules/@openzeppelin/contracts/token/ERC721/ERC721.sol\":8455:8460  owner */\n      dup5\n        /* \"node_modules/@openzeppelin/contracts/token/ERC721/ERC721.sol\":8455:8471  owner == spender */\n      0xffffffffffffffffffffffffffffffffffffffff\n      and\n      eq\n        /* \"node_modules/@openzeppelin/contracts/token/ERC721/ERC721.sol\":8455:8507  owner == spender || isApprovedForAll(owner, spender) */\n      dup1\n      tag_208\n      jumpi\n      pop\n        /* \"node_modules/@openzeppelin/contracts/token/ERC721/ERC721.sol\":8475:8507  isApprovedForAll(owner, spender) */\n      tag_209\n        /* \"node_modules/@openzeppelin/contracts/token/ERC721/ERC721.sol\":8492:8497  owner */\n      dup5\n        /* \"node_modules/@openzeppelin/contracts/token/ERC721/ERC721.sol\":8499:8506  spender */\n      dup5\n        /* \"node_modules/@openzeppelin/contracts/token/ERC721/ERC721.sol\":8475:8491  isApprovedForAll */\n      tag_75\n        /* \"node_modules/@openzeppelin/contracts/token/ERC721/ERC721.sol\":8475:8507  isApprovedForAll(owner, spender) */\n      jump\t// in\n    tag_209:\n        /* \"node_modules/@openzeppelin/contracts/token/ERC721/ERC721.sol\":8455:8507  owner == spender || isApprovedForAll(owner, spender) */\n    tag_208:\n        /* \"node_modules/@openzeppelin/contracts/token/ERC721/ERC721.sol\":8455:8543  owner == spender || isApprovedForAll(owner, spender) || _getApproved(tokenId) == spender */\n      dup1\n      tag_210\n      jumpi\n      pop\n        /* \"node_modules/@openzeppelin/contracts/token/ERC721/ERC721.sol\":8536:8543  spender */\n      dup3\n        /* \"node_modules/@openzeppelin/contracts/token/ERC721/ERC721.sol\":8511:8543  _getApproved(tokenId) == spender */\n      0xffffffffffffffffffffffffffffffffffffffff\n      and\n        /* \"node_modules/@openzeppelin/contracts/token/ERC721/ERC721.sol\":8511:8532  _getApproved(tokenId) */\n      tag_211\n        /* \"node_modules/@openzeppelin/contracts/token/ERC721/ERC721.sol\":8524:8531  tokenId */\n      dup4\n        /* \"node_modules/@openzeppelin/contracts/token/ERC721/ERC721.sol\":8511:8523  _getApproved */\n      tag_96\n        /* \"node_modules/@openzeppelin/contracts/token/ERC721/ERC721.sol\":8511:8532  _getApproved(tokenId) */\n      jump\t// in\n    tag_211:\n        /* \"node_modules/@openzeppelin/contracts/token/ERC721/ERC721.sol\":8511:8543  _getApproved(tokenId) == spender */\n      0xffffffffffffffffffffffffffffffffffffffff\n      and\n      eq\n        /* \"node_modules/@openzeppelin/contracts/token/ERC721/ERC721.sol\":8455:8543  owner == spender || isApprovedForAll(owner, spender) || _getApproved(tokenId) == spender */\n    tag_210:\n        /* \"node_modules/@openzeppelin/contracts/token/ERC721/ERC721.sol\":8417:8544  spender != address(0) &&... */\n    tag_207:\n        /* \"node_modules/@openzeppelin/contracts/token/ERC721/ERC721.sol\":8398:8544  return... */\n      swap1\n      pop\n        /* \"node_modules/@openzeppelin/contracts/token/ERC721/ERC721.sol\":8279:8551  function _isAuthorized(address owner, address spender, uint256 tokenId) internal view virtual returns (bool) {... */\n      swap4\n      swap3\n      pop\n      pop\n      pop\n      jump\t// out\n        /* \"#utility.yul\":7:82   */\n    tag_212:\n        /* \"#utility.yul\":40:46   */\n      0x00\n        /* \"#utility.yul\":73:75   */\n      0x40\n        /* \"#utility.yul\":67:76   */\n      mload\n        /* \"#utility.yul\":57:76   */\n      swap1\n      pop\n        /* \"#utility.yul\":7:82   */\n      swap1\n      jump\t// out\n        /* \"#utility.yul\":88:205   */\n    tag_213:\n        /* \"#utility.yul\":197:198   */\n      0x00\n        /* \"#utility.yul\":194:195   */\n      dup1\n        /* \"#utility.yul\":187:199   */\n      revert\n        /* \"#utility.yul\":211:328   */\n    tag_214:\n        /* \"#utility.yul\":320:321   */\n      0x00\n        /* \"#utility.yul\":317:318   */\n      dup1\n        /* \"#utility.yul\":310:322   */\n      revert\n        /* \"#utility.yul\":334:483   */\n    tag_215:\n        /* \"#utility.yul\":370:377   */\n      0x00\n        /* \"#utility.yul\":410:476   */\n      0xffffffff00000000000000000000000000000000000000000000000000000000\n        /* \"#utility.yul\":403:408   */\n      dup3\n        /* \"#utility.yul\":399:477   */\n      and\n        /* \"#utility.yul\":388:477   */\n      swap1\n      pop\n        /* \"#utility.yul\":334:483   */\n      swap2\n      swap1\n      pop\n      jump\t// out\n        /* \"#utility.yul\":489:609   */\n    tag_216:\n        /* \"#utility.yul\":561:584   */\n      tag_256\n        /* \"#utility.yul\":578:583   */\n      dup2\n        /* \"#utility.yul\":561:584   */\n      tag_215\n      jump\t// in\n    tag_256:\n        /* \"#utility.yul\":554:559   */\n      dup2\n        /* \"#utility.yul\":551:585   */\n      eq\n        /* \"#utility.yul\":541:603   */\n      tag_257\n      jumpi\n        /* \"#utility.yul\":599:600   */\n      0x00\n        /* \"#utility.yul\":596:597   */\n      dup1\n        /* \"#utility.yul\":589:601   */\n      revert\n        /* \"#utility.yul\":541:603   */\n    tag_257:\n        /* \"#utility.yul\":489:609   */\n      pop\n      jump\t// out\n        /* \"#utility.yul\":615:752   */\n    tag_217:\n        /* \"#utility.yul\":660:665   */\n      0x00\n        /* \"#utility.yul\":698:704   */\n      dup2\n        /* \"#utility.yul\":685:705   */\n      calldataload\n        /* \"#utility.yul\":676:705   */\n      swap1\n      pop\n        /* \"#utility.yul\":714:746   */\n      tag_259\n        /* \"#utility.yul\":740:745   */\n      dup2\n        /* \"#utility.yul\":714:746   */\n      tag_216\n      jump\t// in\n    tag_259:\n        /* \"#utility.yul\":615:752   */\n      swap3\n      swap2\n      pop\n      pop\n      jump\t// out\n        /* \"#utility.yul\":758:1085   */\n    tag_22:\n        /* \"#utility.yul\":816:822   */\n      0x00\n        /* \"#utility.yul\":865:867   */\n      0x20\n        /* \"#utility.yul\":853:862   */\n      dup3\n        /* \"#utility.yul\":844:851   */\n      dup5\n        /* \"#utility.yul\":840:863   */\n      sub\n        /* \"#utility.yul\":836:868   */\n      slt\n        /* \"#utility.yul\":833:952   */\n      iszero\n      tag_261\n      jumpi\n        /* \"#utility.yul\":871:950   */\n      tag_262\n      tag_213\n      jump\t// in\n    tag_262:\n        /* \"#utility.yul\":833:952   */\n    tag_261:\n        /* \"#utility.yul\":991:992   */\n      0x00\n        /* \"#utility.yul\":1016:1068   */\n      tag_263\n        /* \"#utility.yul\":1060:1067   */\n      dup5\n        /* \"#utility.yul\":1051:1057   */\n      dup3\n        /* \"#utility.yul\":1040:1049   */\n      dup6\n        /* \"#utility.yul\":1036:1058   */\n      add\n        /* \"#utility.yul\":1016:1068   */\n      tag_217\n      jump\t// in\n    tag_263:\n        /* \"#utility.yul\":1006:1068   */\n      swap2\n      pop\n        /* \"#utility.yul\":962:1078   */\n      pop\n        /* \"#utility.yul\":758:1085   */\n      swap3\n      swap2\n      pop\n      pop\n      jump\t// out\n        /* \"#utility.yul\":1091:1181   */\n    tag_218:\n        /* \"#utility.yul\":1125:1132   */\n      0x00\n        /* \"#utility.yul\":1168:1173   */\n      dup2\n        /* \"#utility.yul\":1161:1174   */\n      iszero\n        /* \"#utility.yul\":1154:1175   */\n      iszero\n        /* \"#utility.yul\":1143:1175   */\n      swap1\n      pop\n        /* \"#utility.yul\":1091:1181   */\n      swap2\n      swap1\n      pop\n      jump\t// out\n        /* \"#utility.yul\":1187:1296   */\n    tag_219:\n        /* \"#utility.yul\":1268:1289   */\n      tag_266\n        /* \"#utility.yul\":1283:1288   */\n      dup2\n        /* \"#utility.yul\":1268:1289   */\n      tag_218\n      jump\t// in\n    tag_266:\n        /* \"#utility.yul\":1263:1266   */\n      dup3\n        /* \"#utility.yul\":1256:1290   */\n      mstore\n        /* \"#utility.yul\":1187:1296   */\n      pop\n      pop\n      jump\t// out\n        /* \"#utility.yul\":1302:1512   */\n    tag_25:\n        /* \"#utility.yul\":1389:1393   */\n      0x00\n        /* \"#utility.yul\":1427:1429   */\n      0x20\n        /* \"#utility.yul\":1416:1425   */\n      dup3\n        /* \"#utility.yul\":1412:1430   */\n      add\n        /* \"#utility.yul\":1404:1430   */\n      swap1\n      pop\n        /* \"#utility.yul\":1440:1505   */\n      tag_268\n        /* \"#utility.yul\":1502:1503   */\n      0x00\n        /* \"#utility.yul\":1491:1500   */\n      dup4\n        /* \"#utility.yul\":1487:1504   */\n      add\n        /* \"#utility.yul\":1478:1484   */\n      dup5\n        /* \"#utility.yul\":1440:1505   */\n      tag_219\n      jump\t// in\n    tag_268:\n        /* \"#utility.yul\":1302:1512   */\n      swap3\n      swap2\n      pop\n      pop\n      jump\t// out\n        /* \"#utility.yul\":1518:1617   */\n    tag_220:\n        /* \"#utility.yul\":1570:1576   */\n      0x00\n        /* \"#utility.yul\":1604:1609   */\n      dup2\n        /* \"#utility.yul\":1598:1610   */\n      mload\n        /* \"#utility.yul\":1588:1610   */\n      swap1\n      pop\n        /* \"#utility.yul\":1518:1617   */\n      swap2\n      swap1\n      pop\n      jump\t// out\n        /* \"#utility.yul\":1623:1792   */\n    tag_221:\n        /* \"#utility.yul\":1707:1718   */\n      0x00\n        /* \"#utility.yul\":1741:1747   */\n      dup3\n        /* \"#utility.yul\":1736:1739   */\n      dup3\n        /* \"#utility.yul\":1729:1748   */\n      mstore\n        /* \"#utility.yul\":1781:1785   */\n      0x20\n        /* \"#utility.yul\":1776:1779   */\n      dup3\n        /* \"#utility.yul\":1772:1786   */\n      add\n        /* \"#utility.yul\":1757:1786   */\n      swap1\n      pop\n        /* \"#utility.yul\":1623:1792   */\n      swap3\n      swap2\n      pop\n      pop\n      jump\t// out\n        /* \"#utility.yul\":1798:2044   */\n    tag_222:\n        /* \"#utility.yul\":1879:1880   */\n      0x00\n        /* \"#utility.yul\":1889:2002   */\n    tag_272:\n        /* \"#utility.yul\":1903:1909   */\n      dup4\n        /* \"#utility.yul\":1900:1901   */\n      dup2\n        /* \"#utility.yul\":1897:1910   */\n      lt\n        /* \"#utility.yul\":1889:2002   */\n      iszero\n      tag_274\n      jumpi\n        /* \"#utility.yul\":1988:1989   */\n      dup1\n        /* \"#utility.yul\":1983:1986   */\n      dup3\n        /* \"#utility.yul\":1979:1990   */\n      add\n        /* \"#utility.yul\":1973:1991   */\n      mload\n        /* \"#utility.yul\":1969:1970   */\n      dup2\n        /* \"#utility.yul\":1964:1967   */\n      dup5\n        /* \"#utility.yul\":1960:1971   */\n      add\n        /* \"#utility.yul\":1953:1992   */\n      mstore\n        /* \"#utility.yul\":1925:1927   */\n      0x20\n        /* \"#utility.yul\":1922:1923   */\n      dup2\n        /* \"#utility.yul\":1918:1928   */\n      add\n        /* \"#utility.yul\":1913:1928   */\n      swap1\n      pop\n        /* \"#utility.yul\":1889:2002   */\n      jump(tag_272)\n    tag_274:\n        /* \"#utility.yul\":2036:2037   */\n      0x00\n        /* \"#utility.yul\":2027:2033   */\n      dup5\n        /* \"#utility.yul\":2022:2025   */\n      dup5\n        /* \"#utility.yul\":2018:2034   */\n      add\n        /* \"#utility.yul\":2011:2038   */\n      mstore\n        /* \"#utility.yul\":1860:2044   */\n      pop\n        /* \"#utility.yul\":1798:2044   */\n      pop\n      pop\n      pop\n      jump\t// out\n        /* \"#utility.yul\":2050:2152   */\n    tag_223:\n        /* \"#utility.yul\":2091:2097   */\n      0x00\n        /* \"#utility.yul\":2142:2144   */\n      0x1f\n        /* \"#utility.yul\":2138:2145   */\n      not\n        /* \"#utility.yul\":2133:2135   */\n      0x1f\n        /* \"#utility.yul\":2126:2131   */\n      dup4\n        /* \"#utility.yul\":2122:2136   */\n      add\n        /* \"#utility.yul\":2118:2146   */\n      and\n        /* \"#utility.yul\":2108:2146   */\n      swap1\n      pop\n        /* \"#utility.yul\":2050:2152   */\n      swap2\n      swap1\n      pop\n      jump\t// out\n        /* \"#utility.yul\":2158:2535   */\n    tag_224:\n        /* \"#utility.yul\":2246:2249   */\n      0x00\n        /* \"#utility.yul\":2274:2313   */\n      tag_277\n        /* \"#utility.yul\":2307:2312   */\n      dup3\n        /* \"#utility.yul\":2274:2313   */\n      tag_220\n      jump\t// in\n    tag_277:\n        /* \"#utility.yul\":2329:2400   */\n      tag_278\n        /* \"#utility.yul\":2393:2399   */\n      dup2\n        /* \"#utility.yul\":2388:2391   */\n      dup6\n        /* \"#utility.yul\":2329:2400   */\n      tag_221\n      jump\t// in\n    tag_278:\n        /* \"#utility.yul\":2322:2400   */\n      swap4\n      pop\n        /* \"#utility.yul\":2409:2474   */\n      tag_279\n        /* \"#utility.yul\":2467:2473   */\n      dup2\n        /* \"#utility.yul\":2462:2465   */\n      dup6\n        /* \"#utility.yul\":2455:2459   */\n      0x20\n        /* \"#utility.yul\":2448:2453   */\n      dup7\n        /* \"#utility.yul\":2444:2460   */\n      add\n        /* \"#utility.yul\":2409:2474   */\n      tag_222\n      jump\t// in\n    tag_279:\n        /* \"#utility.yul\":2499:2528   */\n      tag_280\n        /* \"#utility.yul\":2521:2527   */\n      dup2\n        /* \"#utility.yul\":2499:2528   */\n      tag_223\n      jump\t// in\n    tag_280:\n        /* \"#utility.yul\":2494:2497   */\n      dup5\n        /* \"#utility.yul\":2490:2529   */\n      add\n        /* \"#utility.yul\":2483:2529   */\n      swap2\n      pop\n        /* \"#utility.yul\":2250:2535   */\n      pop\n        /* \"#utility.yul\":2158:2535   */\n      swap3\n      swap2\n      pop\n      pop\n      jump\t// out\n        /* \"#utility.yul\":2541:2854   */\n    tag_29:\n        /* \"#utility.yul\":2654:2658   */\n      0x00\n        /* \"#utility.yul\":2692:2694   */\n      0x20\n        /* \"#utility.yul\":2681:2690   */\n      dup3\n        /* \"#utility.yul\":2677:2695   */\n      add\n        /* \"#utility.yul\":2669:2695   */\n      swap1\n      pop\n        /* \"#utility.yul\":2741:2750   */\n      dup2\n        /* \"#utility.yul\":2735:2739   */\n      dup2\n        /* \"#utility.yul\":2731:2751   */\n      sub\n        /* \"#utility.yul\":2727:2728   */\n      0x00\n        /* \"#utility.yul\":2716:2725   */\n      dup4\n        /* \"#utility.yul\":2712:2729   */\n      add\n        /* \"#utility.yul\":2705:2752   */\n      mstore\n        /* \"#utility.yul\":2769:2847   */\n      tag_282\n        /* \"#utility.yul\":2842:2846   */\n      dup2\n        /* \"#utility.yul\":2833:2839   */\n      dup5\n        /* \"#utility.yul\":2769:2847   */\n      tag_224\n      jump\t// in\n    tag_282:\n        /* \"#utility.yul\":2761:2847   */\n      swap1\n      pop\n        /* \"#utility.yul\":2541:2854   */\n      swap3\n      swap2\n      pop\n      pop\n      jump\t// out\n        /* \"#utility.yul\":2860:2937   */\n    tag_225:\n        /* \"#utility.yul\":2897:2904   */\n      0x00\n        /* \"#utility.yul\":2926:2931   */\n      dup2\n        /* \"#utility.yul\":2915:2931   */\n      swap1\n      pop\n        /* \"#utility.yul\":2860:2937   */\n      swap2\n      swap1\n      pop\n      jump\t// out\n        /* \"#utility.yul\":2943:3065   */\n    tag_226:\n        /* \"#utility.yul\":3016:3040   */\n      tag_285\n        /* \"#utility.yul\":3034:3039   */\n      dup2\n        /* \"#utility.yul\":3016:3040   */\n      tag_225\n      jump\t// in\n    tag_285:\n        /* \"#utility.yul\":3009:3014   */\n      dup2\n        /* \"#utility.yul\":3006:3041   */\n      eq\n        /* \"#utility.yul\":2996:3059   */\n      tag_286\n      jumpi\n        /* \"#utility.yul\":3055:3056   */\n      0x00\n        /* \"#utility.yul\":3052:3053   */\n      dup1\n        /* \"#utility.yul\":3045:3057   */\n      revert\n        /* \"#utility.yul\":2996:3059   */\n    tag_286:\n        /* \"#utility.yul\":2943:3065   */\n      pop\n      jump\t// out\n        /* \"#utility.yul\":3071:3210   */\n    tag_227:\n        /* \"#utility.yul\":3117:3122   */\n      0x00\n        /* \"#utility.yul\":3155:3161   */\n      dup2\n        /* \"#utility.yul\":3142:3162   */\n      calldataload\n        /* \"#utility.yul\":3133:3162   */\n      swap1\n      pop\n        /* \"#utility.yul\":3171:3204   */\n      tag_288\n        /* \"#utility.yul\":3198:3203   */\n      dup2\n        /* \"#utility.yul\":3171:3204   */\n      tag_226\n      jump\t// in\n    tag_288:\n        /* \"#utility.yul\":3071:3210   */\n      swap3\n      swap2\n      pop\n      pop\n      jump\t// out\n        /* \"#utility.yul\":3216:3545   */\n    tag_32:\n        /* \"#utility.yul\":3275:3281   */\n      0x00\n        /* \"#utility.yul\":3324:3326   */\n      0x20\n        /* \"#utility.yul\":3312:3321   */\n      dup3\n        /* \"#utility.yul\":3303:3310   */\n      dup5\n        /* \"#utility.yul\":3299:3322   */\n      sub\n        /* \"#utility.yul\":3295:3327   */\n      slt\n        /* \"#utility.yul\":3292:3411   */\n      iszero\n      tag_290\n      jumpi\n        /* \"#utility.yul\":3330:3409   */\n      tag_291\n      tag_213\n      jump\t// in\n    tag_291:\n        /* \"#utility.yul\":3292:3411   */\n    tag_290:\n        /* \"#utility.yul\":3450:3451   */\n      0x00\n        /* \"#utility.yul\":3475:3528   */\n      tag_292\n        /* \"#utility.yul\":3520:3527   */\n      dup5\n        /* \"#utility.yul\":3511:3517   */\n      dup3\n        /* \"#utility.yul\":3500:3509   */\n      dup6\n        /* \"#utility.yul\":3496:3518   */\n      add\n        /* \"#utility.yul\":3475:3528   */\n      tag_227\n      jump\t// in\n    tag_292:\n        /* \"#utility.yul\":3465:3528   */\n      swap2\n      pop\n        /* \"#utility.yul\":3421:3538   */\n      pop\n        /* \"#utility.yul\":3216:3545   */\n      swap3\n      swap2\n      pop\n      pop\n      jump\t// out\n        /* \"#utility.yul\":3551:3677   */\n    tag_228:\n        /* \"#utility.yul\":3588:3595   */\n      0x00\n        /* \"#utility.yul\":3628:3670   */\n      0xffffffffffffffffffffffffffffffffffffffff\n        /* \"#utility.yul\":3621:3626   */\n      dup3\n        /* \"#utility.yul\":3617:3671   */\n      and\n        /* \"#utility.yul\":3606:3671   */\n      swap1\n      pop\n        /* \"#utility.yul\":3551:3677   */\n      swap2\n      swap1\n      pop\n      jump\t// out\n        /* \"#utility.yul\":3683:3779   */\n    tag_229:\n        /* \"#utility.yul\":3720:3727   */\n      0x00\n        /* \"#utility.yul\":3749:3773   */\n      tag_295\n        /* \"#utility.yul\":3767:3772   */\n      dup3\n        /* \"#utility.yul\":3749:3773   */\n      tag_228\n      jump\t// in\n    tag_295:\n        /* \"#utility.yul\":3738:3773   */\n      swap1\n      pop\n        /* \"#utility.yul\":3683:3779   */\n      swap2\n      swap1\n      pop\n      jump\t// out\n        /* \"#utility.yul\":3785:3903   */\n    tag_230:\n        /* \"#utility.yul\":3872:3896   */\n      tag_297\n        /* \"#utility.yul\":3890:3895   */\n      dup2\n        /* \"#utility.yul\":3872:3896   */\n      tag_229\n      jump\t// in\n    tag_297:\n        /* \"#utility.yul\":3867:3870   */\n      dup3\n        /* \"#utility.yul\":3860:3897   */\n      mstore\n        /* \"#utility.yul\":3785:3903   */\n      pop\n      pop\n      jump\t// out\n        /* \"#utility.yul\":3909:4131   */\n    tag_35:\n        /* \"#utility.yul\":4002:4006   */\n      0x00\n        /* \"#utility.yul\":4040:4042   */\n      0x20\n        /* \"#utility.yul\":4029:4038   */\n      dup3\n        /* \"#utility.yul\":4025:4043   */\n      add\n        /* \"#utility.yul\":4017:4043   */\n      swap1\n      pop\n        /* \"#utility.yul\":4053:4124   */\n      tag_299\n        /* \"#utility.yul\":4121:4122   */\n      0x00\n        /* \"#utility.yul\":4110:4119   */\n      dup4\n        /* \"#utility.yul\":4106:4123   */\n      add\n        /* \"#utility.yul\":4097:4103   */\n      dup5\n        /* \"#utility.yul\":4053:4124   */\n      tag_230\n      jump\t// in\n    tag_299:\n        /* \"#utility.yul\":3909:4131   */\n      swap3\n      swap2\n      pop\n      pop\n      jump\t// out\n        /* \"#utility.yul\":4137:4259   */\n    tag_231:\n        /* \"#utility.yul\":4210:4234   */\n      tag_301\n        /* \"#utility.yul\":4228:4233   */\n      dup2\n        /* \"#utility.yul\":4210:4234   */\n      tag_229\n      jump\t// in\n    tag_301:\n        /* \"#utility.yul\":4203:4208   */\n      dup2\n        /* \"#utility.yul\":4200:4235   */\n      eq\n        /* \"#utility.yul\":4190:4253   */\n      tag_302\n      jumpi\n        /* \"#utility.yul\":4249:4250   */\n      0x00\n        /* \"#utility.yul\":4246:4247   */\n      dup1\n        /* \"#utility.yul\":4239:4251   */\n      revert\n        /* \"#utility.yul\":4190:4253   */\n    tag_302:\n        /* \"#utility.yul\":4137:4259   */\n      pop\n      jump\t// out\n        /* \"#utility.yul\":4265:4404   */\n    tag_232:\n        /* \"#utility.yul\":4311:4316   */\n      0x00\n        /* \"#utility.yul\":4349:4355   */\n      dup2\n        /* \"#utility.yul\":4336:4356   */\n      calldataload\n        /* \"#utility.yul\":4327:4356   */\n      swap1\n      pop\n        /* \"#utility.yul\":4365:4398   */\n      tag_304\n        /* \"#utility.yul\":4392:4397   */\n      dup2\n        /* \"#utility.yul\":4365:4398   */\n      tag_231\n      jump\t// in\n    tag_304:\n        /* \"#utility.yul\":4265:4404   */\n      swap3\n      swap2\n      pop\n      pop\n      jump\t// out\n        /* \"#utility.yul\":4410:4884   */\n    tag_38:\n        /* \"#utility.yul\":4478:4484   */\n      0x00\n        /* \"#utility.yul\":4486:4492   */\n      dup1\n        /* \"#utility.yul\":4535:4537   */\n      0x40\n        /* \"#utility.yul\":4523:4532   */\n      dup4\n        /* \"#utility.yul\":4514:4521   */\n      dup6\n        /* \"#utility.yul\":4510:4533   */\n      sub\n        /* \"#utility.yul\":4506:4538   */\n      slt\n        /* \"#utility.yul\":4503:4622   */\n      iszero\n      tag_306\n      jumpi\n        /* \"#utility.yul\":4541:4620   */\n      tag_307\n      tag_213\n      jump\t// in\n    tag_307:\n        /* \"#utility.yul\":4503:4622   */\n    tag_306:\n        /* \"#utility.yul\":4661:4662   */\n      0x00\n        /* \"#utility.yul\":4686:4739   */\n      tag_308\n        /* \"#utility.yul\":4731:4738   */\n      dup6\n        /* \"#utility.yul\":4722:4728   */\n      dup3\n        /* \"#utility.yul\":4711:4720   */\n      dup7\n        /* \"#utility.yul\":4707:4729   */\n      add\n        /* \"#utility.yul\":4686:4739   */\n      tag_232\n      jump\t// in\n    tag_308:\n        /* \"#utility.yul\":4676:4739   */\n      swap3\n      pop\n        /* \"#utility.yul\":4632:4749   */\n      pop\n        /* \"#utility.yul\":4788:4790   */\n      0x20\n        /* \"#utility.yul\":4814:4867   */\n      tag_309\n        /* \"#utility.yul\":4859:4866   */\n      dup6\n        /* \"#utility.yul\":4850:4856   */\n      dup3\n        /* \"#utility.yul\":4839:4848   */\n      dup7\n        /* \"#utility.yul\":4835:4857   */\n      add\n        /* \"#utility.yul\":4814:4867   */\n      tag_227\n      jump\t// in\n    tag_309:\n        /* \"#utility.yul\":4804:4867   */\n      swap2\n      pop\n        /* \"#utility.yul\":4759:4877   */\n      pop\n        /* \"#utility.yul\":4410:4884   */\n      swap3\n      pop\n      swap3\n      swap1\n      pop\n      jump\t// out\n        /* \"#utility.yul\":4890:5509   */\n    tag_42:\n        /* \"#utility.yul\":4967:4973   */\n      0x00\n        /* \"#utility.yul\":4975:4981   */\n      dup1\n        /* \"#utility.yul\":4983:4989   */\n      0x00\n        /* \"#utility.yul\":5032:5034   */\n      0x60\n        /* \"#utility.yul\":5020:5029   */\n      dup5\n        /* \"#utility.yul\":5011:5018   */\n      dup7\n        /* \"#utility.yul\":5007:5030   */\n      sub\n        /* \"#utility.yul\":5003:5035   */\n      slt\n        /* \"#utility.yul\":5000:5119   */\n      iszero\n      tag_311\n      jumpi\n        /* \"#utility.yul\":5038:5117   */\n      tag_312\n      tag_213\n      jump\t// in\n    tag_312:\n        /* \"#utility.yul\":5000:5119   */\n    tag_311:\n        /* \"#utility.yul\":5158:5159   */\n      0x00\n        /* \"#utility.yul\":5183:5236   */\n      tag_313\n        /* \"#utility.yul\":5228:5235   */\n      dup7\n        /* \"#utility.yul\":5219:5225   */\n      dup3\n        /* \"#utility.yul\":5208:5217   */\n      dup8\n        /* \"#utility.yul\":5204:5226   */\n      add\n        /* \"#utility.yul\":5183:5236   */\n      tag_232\n      jump\t// in\n    tag_313:\n        /* \"#utility.yul\":5173:5236   */\n      swap4\n      pop\n        /* \"#utility.yul\":5129:5246   */\n      pop\n        /* \"#utility.yul\":5285:5287   */\n      0x20\n        /* \"#utility.yul\":5311:5364   */\n      tag_314\n        /* \"#utility.yul\":5356:5363   */\n      dup7\n        /* \"#utility.yul\":5347:5353   */\n      dup3\n        /* \"#utility.yul\":5336:5345   */\n      dup8\n        /* \"#utility.yul\":5332:5354   */\n      add\n        /* \"#utility.yul\":5311:5364   */\n      tag_232\n      jump\t// in\n    tag_314:\n        /* \"#utility.yul\":5301:5364   */\n      swap3\n      pop\n        /* \"#utility.yul\":5256:5374   */\n      pop\n        /* \"#utility.yul\":5413:5415   */\n      0x40\n        /* \"#utility.yul\":5439:5492   */\n      tag_315\n        /* \"#utility.yul\":5484:5491   */\n      dup7\n        /* \"#utility.yul\":5475:5481   */\n      dup3\n        /* \"#utility.yul\":5464:5473   */\n      dup8\n        /* \"#utility.yul\":5460:5482   */\n      add\n        /* \"#utility.yul\":5439:5492   */\n      tag_227\n      jump\t// in\n    tag_315:\n        /* \"#utility.yul\":5429:5492   */\n      swap2\n      pop\n        /* \"#utility.yul\":5384:5502   */\n      pop\n        /* \"#utility.yul\":4890:5509   */\n      swap3\n      pop\n      swap3\n      pop\n      swap3\n      jump\t// out\n        /* \"#utility.yul\":5515:5844   */\n    tag_53:\n        /* \"#utility.yul\":5574:5580   */\n      0x00\n        /* \"#utility.yul\":5623:5625   */\n      0x20\n        /* \"#utility.yul\":5611:5620   */\n      dup3\n        /* \"#utility.yul\":5602:5609   */\n      dup5\n        /* \"#utility.yul\":5598:5621   */\n      sub\n        /* \"#utility.yul\":5594:5626   */\n      slt\n        /* \"#utility.yul\":5591:5710   */\n      iszero\n      tag_317\n      jumpi\n        /* \"#utility.yul\":5629:5708   */\n      tag_318\n      tag_213\n      jump\t// in\n    tag_318:\n        /* \"#utility.yul\":5591:5710   */\n    tag_317:\n        /* \"#utility.yul\":5749:5750   */\n      0x00\n        /* \"#utility.yul\":5774:5827   */\n      tag_319\n        /* \"#utility.yul\":5819:5826   */\n      dup5\n        /* \"#utility.yul\":5810:5816   */\n      dup3\n        /* \"#utility.yul\":5799:5808   */\n      dup6\n        /* \"#utility.yul\":5795:5817   */\n      add\n        /* \"#utility.yul\":5774:5827   */\n      tag_232\n      jump\t// in\n    tag_319:\n        /* \"#utility.yul\":5764:5827   */\n      swap2\n      pop\n        /* \"#utility.yul\":5720:5837   */\n      pop\n        /* \"#utility.yul\":5515:5844   */\n      swap3\n      swap2\n      pop\n      pop\n      jump\t// out\n        /* \"#utility.yul\":5850:5968   */\n    tag_233:\n        /* \"#utility.yul\":5937:5961   */\n      tag_321\n        /* \"#utility.yul\":5955:5960   */\n      dup2\n        /* \"#utility.yul\":5937:5961   */\n      tag_225\n      jump\t// in\n    tag_321:\n        /* \"#utility.yul\":5932:5935   */\n      dup3\n        /* \"#utility.yul\":5925:5962   */\n      mstore\n        /* \"#utility.yul\":5850:5968   */\n      pop\n      pop\n      jump\t// out\n        /* \"#utility.yul\":5974:6196   */\n    tag_56:\n        /* \"#utility.yul\":6067:6071   */\n      0x00\n        /* \"#utility.yul\":6105:6107   */\n      0x20\n        /* \"#utility.yul\":6094:6103   */\n      dup3\n        /* \"#utility.yul\":6090:6108   */\n      add\n        /* \"#utility.yul\":6082:6108   */\n      swap1\n      pop\n        /* \"#utility.yul\":6118:6189   */\n      tag_323\n        /* \"#utility.yul\":6186:6187   */\n      0x00\n        /* \"#utility.yul\":6175:6184   */\n      dup4\n        /* \"#utility.yul\":6171:6188   */\n      add\n        /* \"#utility.yul\":6162:6168   */\n      dup5\n        /* \"#utility.yul\":6118:6189   */\n      tag_233\n      jump\t// in\n    tag_323:\n        /* \"#utility.yul\":5974:6196   */\n      swap3\n      swap2\n      pop\n      pop\n      jump\t// out\n        /* \"#utility.yul\":6202:6318   */\n    tag_234:\n        /* \"#utility.yul\":6272:6293   */\n      tag_325\n        /* \"#utility.yul\":6287:6292   */\n      dup2\n        /* \"#utility.yul\":6272:6293   */\n      tag_218\n      jump\t// in\n    tag_325:\n        /* \"#utility.yul\":6265:6270   */\n      dup2\n        /* \"#utility.yul\":6262:6294   */\n      eq\n        /* \"#utility.yul\":6252:6312   */\n      tag_326\n      jumpi\n        /* \"#utility.yul\":6308:6309   */\n      0x00\n        /* \"#utility.yul\":6305:6306   */\n      dup1\n        /* \"#utility.yul\":6298:6310   */\n      revert\n        /* \"#utility.yul\":6252:6312   */\n    tag_326:\n        /* \"#utility.yul\":6202:6318   */\n      pop\n      jump\t// out\n        /* \"#utility.yul\":6324:6457   */\n    tag_235:\n        /* \"#utility.yul\":6367:6372   */\n      0x00\n        /* \"#utility.yul\":6405:6411   */\n      dup2\n        /* \"#utility.yul\":6392:6412   */\n      calldataload\n        /* \"#utility.yul\":6383:6412   */\n      swap1\n      pop\n        /* \"#utility.yul\":6421:6451   */\n      tag_328\n        /* \"#utility.yul\":6445:6450   */\n      dup2\n        /* \"#utility.yul\":6421:6451   */\n      tag_234\n      jump\t// in\n    tag_328:\n        /* \"#utility.yul\":6324:6457   */\n      swap3\n      swap2\n      pop\n      pop\n      jump\t// out\n        /* \"#utility.yul\":6463:6931   */\n    tag_62:\n        /* \"#utility.yul\":6528:6534   */\n      0x00\n        /* \"#utility.yul\":6536:6542   */\n      dup1\n        /* \"#utility.yul\":6585:6587   */\n      0x40\n        /* \"#utility.yul\":6573:6582   */\n      dup4\n        /* \"#utility.yul\":6564:6571   */\n      dup6\n        /* \"#utility.yul\":6560:6583   */\n      sub\n        /* \"#utility.yul\":6556:6588   */\n      slt\n        /* \"#utility.yul\":6553:6672   */\n      iszero\n      tag_330\n      jumpi\n        /* \"#utility.yul\":6591:6670   */\n      tag_331\n      tag_213\n      jump\t// in\n    tag_331:\n        /* \"#utility.yul\":6553:6672   */\n    tag_330:\n        /* \"#utility.yul\":6711:6712   */\n      0x00\n        /* \"#utility.yul\":6736:6789   */\n      tag_332\n        /* \"#utility.yul\":6781:6788   */\n      dup6\n        /* \"#utility.yul\":6772:6778   */\n      dup3\n        /* \"#utility.yul\":6761:6770   */\n      dup7\n        /* \"#utility.yul\":6757:6779   */\n      add\n        /* \"#utility.yul\":6736:6789   */\n      tag_232\n      jump\t// in\n    tag_332:\n        /* \"#utility.yul\":6726:6789   */\n      swap3\n      pop\n        /* \"#utility.yul\":6682:6799   */\n      pop\n        /* \"#utility.yul\":6838:6840   */\n      0x20\n        /* \"#utility.yul\":6864:6914   */\n      tag_333\n        /* \"#utility.yul\":6906:6913   */\n      dup6\n        /* \"#utility.yul\":6897:6903   */\n      dup3\n        /* \"#utility.yul\":6886:6895   */\n      dup7\n        /* \"#utility.yul\":6882:6904   */\n      add\n        /* \"#utility.yul\":6864:6914   */\n      tag_235\n      jump\t// in\n    tag_333:\n        /* \"#utility.yul\":6854:6914   */\n      swap2\n      pop\n        /* \"#utility.yul\":6809:6924   */\n      pop\n        /* \"#utility.yul\":6463:6931   */\n      swap3\n      pop\n      swap3\n      swap1\n      pop\n      jump\t// out\n        /* \"#utility.yul\":6937:7054   */\n    tag_236:\n        /* \"#utility.yul\":7046:7047   */\n      0x00\n        /* \"#utility.yul\":7043:7044   */\n      dup1\n        /* \"#utility.yul\":7036:7048   */\n      revert\n        /* \"#utility.yul\":7060:7177   */\n    tag_237:\n        /* \"#utility.yul\":7169:7170   */\n      0x00\n        /* \"#utility.yul\":7166:7167   */\n      dup1\n        /* \"#utility.yul\":7159:7171   */\n      revert\n        /* \"#utility.yul\":7183:7363   */\n    tag_238:\n        /* \"#utility.yul\":7231:7308   */\n      0x4e487b7100000000000000000000000000000000000000000000000000000000\n        /* \"#utility.yul\":7228:7229   */\n      0x00\n        /* \"#utility.yul\":7221:7309   */\n      mstore\n        /* \"#utility.yul\":7328:7332   */\n      0x41\n        /* \"#utility.yul\":7325:7326   */\n      0x04\n        /* \"#utility.yul\":7318:7333   */\n      mstore\n        /* \"#utility.yul\":7352:7356   */\n      0x24\n        /* \"#utility.yul\":7349:7350   */\n      0x00\n        /* \"#utility.yul\":7342:7357   */\n      revert\n        /* \"#utility.yul\":7369:7650   */\n    tag_239:\n        /* \"#utility.yul\":7452:7479   */\n      tag_338\n        /* \"#utility.yul\":7474:7478   */\n      dup3\n        /* \"#utility.yul\":7452:7479   */\n      tag_223\n      jump\t// in\n    tag_338:\n        /* \"#utility.yul\":7444:7450   */\n      dup2\n        /* \"#utility.yul\":7440:7480   */\n      add\n        /* \"#utility.yul\":7582:7588   */\n      dup2\n        /* \"#utility.yul\":7570:7580   */\n      dup2\n        /* \"#utility.yul\":7567:7589   */\n      lt\n        /* \"#utility.yul\":7546:7564   */\n      0xffffffffffffffff\n        /* \"#utility.yul\":7534:7544   */\n      dup3\n        /* \"#utility.yul\":7531:7565   */\n      gt\n        /* \"#utility.yul\":7528:7590   */\n      or\n        /* \"#utility.yul\":7525:7613   */\n      iszero\n      tag_339\n      jumpi\n        /* \"#utility.yul\":7593:7611   */\n      tag_340\n      tag_238\n      jump\t// in\n    tag_340:\n        /* \"#utility.yul\":7525:7613   */\n    tag_339:\n        /* \"#utility.yul\":7633:7643   */\n      dup1\n        /* \"#utility.yul\":7629:7631   */\n      0x40\n        /* \"#utility.yul\":7622:7644   */\n      mstore\n        /* \"#utility.yul\":7412:7650   */\n      pop\n        /* \"#utility.yul\":7369:7650   */\n      pop\n      pop\n      jump\t// out\n        /* \"#utility.yul\":7656:7785   */\n    tag_240:\n        /* \"#utility.yul\":7690:7696   */\n      0x00\n        /* \"#utility.yul\":7717:7737   */\n      tag_342\n      tag_212\n      jump\t// in\n    tag_342:\n        /* \"#utility.yul\":7707:7737   */\n      swap1\n      pop\n        /* \"#utility.yul\":7746:7779   */\n      tag_343\n        /* \"#utility.yul\":7774:7778   */\n      dup3\n        /* \"#utility.yul\":7766:7772   */\n      dup3\n        /* \"#utility.yul\":7746:7779   */\n      tag_239\n      jump\t// in\n    tag_343:\n        /* \"#utility.yul\":7656:7785   */\n      swap2\n      swap1\n      pop\n      jump\t// out\n        /* \"#utility.yul\":7791:8098   */\n    tag_241:\n        /* \"#utility.yul\":7852:7856   */\n      0x00\n        /* \"#utility.yul\":7942:7960   */\n      0xffffffffffffffff\n        /* \"#utility.yul\":7934:7940   */\n      dup3\n        /* \"#utility.yul\":7931:7961   */\n      gt\n        /* \"#utility.yul\":7928:7984   */\n      iszero\n      tag_345\n      jumpi\n        /* \"#utility.yul\":7964:7982   */\n      tag_346\n      tag_238\n      jump\t// in\n    tag_346:\n        /* \"#utility.yul\":7928:7984   */\n    tag_345:\n        /* \"#utility.yul\":8002:8031   */\n      tag_347\n        /* \"#utility.yul\":8024:8030   */\n      dup3\n        /* \"#utility.yul\":8002:8031   */\n      tag_223\n      jump\t// in\n    tag_347:\n        /* \"#utility.yul\":7994:8031   */\n      swap1\n      pop\n        /* \"#utility.yul\":8086:8090   */\n      0x20\n        /* \"#utility.yul\":8080:8084   */\n      dup2\n        /* \"#utility.yul\":8076:8091   */\n      add\n        /* \"#utility.yul\":8068:8091   */\n      swap1\n      pop\n        /* \"#utility.yul\":7791:8098   */\n      swap2\n      swap1\n      pop\n      jump\t// out\n        /* \"#utility.yul\":8104:8250   */\n    tag_242:\n        /* \"#utility.yul\":8201:8207   */\n      dup3\n        /* \"#utility.yul\":8196:8199   */\n      dup2\n        /* \"#utility.yul\":8191:8194   */\n      dup4\n        /* \"#utility.yul\":8178:8208   */\n      calldatacopy\n        /* \"#utility.yul\":8242:8243   */\n      0x00\n        /* \"#utility.yul\":8233:8239   */\n      dup4\n        /* \"#utility.yul\":8228:8231   */\n      dup4\n        /* \"#utility.yul\":8224:8240   */\n      add\n        /* \"#utility.yul\":8217:8244   */\n      mstore\n        /* \"#utility.yul\":8104:8250   */\n      pop\n      pop\n      pop\n      jump\t// out\n        /* \"#utility.yul\":8256:8679   */\n    tag_243:\n        /* \"#utility.yul\":8333:8338   */\n      0x00\n        /* \"#utility.yul\":8358:8423   */\n      tag_350\n        /* \"#utility.yul\":8374:8422   */\n      tag_351\n        /* \"#utility.yul\":8415:8421   */\n      dup5\n        /* \"#utility.yul\":8374:8422   */\n      tag_241\n      jump\t// in\n    tag_351:\n        /* \"#utility.yul\":8358:8423   */\n      tag_240\n      jump\t// in\n    tag_350:\n        /* \"#utility.yul\":8349:8423   */\n      swap1\n      pop\n        /* \"#utility.yul\":8446:8452   */\n      dup3\n        /* \"#utility.yul\":8439:8444   */\n      dup2\n        /* \"#utility.yul\":8432:8453   */\n      mstore\n        /* \"#utility.yul\":8484:8488   */\n      0x20\n        /* \"#utility.yul\":8477:8482   */\n      dup2\n        /* \"#utility.yul\":8473:8489   */\n      add\n        /* \"#utility.yul\":8522:8525   */\n      dup5\n        /* \"#utility.yul\":8513:8519   */\n      dup5\n        /* \"#utility.yul\":8508:8511   */\n      dup5\n        /* \"#utility.yul\":8504:8520   */\n      add\n        /* \"#utility.yul\":8501:8526   */\n      gt\n        /* \"#utility.yul\":8498:8610   */\n      iszero\n      tag_352\n      jumpi\n        /* \"#utility.yul\":8529:8608   */\n      tag_353\n      tag_237\n      jump\t// in\n    tag_353:\n        /* \"#utility.yul\":8498:8610   */\n    tag_352:\n        /* \"#utility.yul\":8619:8673   */\n      tag_354\n        /* \"#utility.yul\":8666:8672   */\n      dup5\n        /* \"#utility.yul\":8661:8664   */\n      dup3\n        /* \"#utility.yul\":8656:8659   */\n      dup6\n        /* \"#utility.yul\":8619:8673   */\n      tag_242\n      jump\t// in\n    tag_354:\n        /* \"#utility.yul\":8339:8679   */\n      pop\n        /* \"#utility.yul\":8256:8679   */\n      swap4\n      swap3\n      pop\n      pop\n      pop\n      jump\t// out\n        /* \"#utility.yul\":8698:9036   */\n    tag_244:\n        /* \"#utility.yul\":8753:8758   */\n      0x00\n        /* \"#utility.yul\":8802:8805   */\n      dup3\n        /* \"#utility.yul\":8795:8799   */\n      0x1f\n        /* \"#utility.yul\":8787:8793   */\n      dup4\n        /* \"#utility.yul\":8783:8800   */\n      add\n        /* \"#utility.yul\":8779:8806   */\n      slt\n        /* \"#utility.yul\":8769:8891   */\n      tag_356\n      jumpi\n        /* \"#utility.yul\":8810:8889   */\n      tag_357\n      tag_236\n      jump\t// in\n    tag_357:\n        /* \"#utility.yul\":8769:8891   */\n    tag_356:\n        /* \"#utility.yul\":8927:8933   */\n      dup2\n        /* \"#utility.yul\":8914:8934   */\n      calldataload\n        /* \"#utility.yul\":8952:9030   */\n      tag_358\n        /* \"#utility.yul\":9026:9029   */\n      dup5\n        /* \"#utility.yul\":9018:9024   */\n      dup3\n        /* \"#utility.yul\":9011:9015   */\n      0x20\n        /* \"#utility.yul\":9003:9009   */\n      dup7\n        /* \"#utility.yul\":8999:9016   */\n      add\n        /* \"#utility.yul\":8952:9030   */\n      tag_243\n      jump\t// in\n    tag_358:\n        /* \"#utility.yul\":8943:9030   */\n      swap2\n      pop\n        /* \"#utility.yul\":8759:9036   */\n      pop\n        /* \"#utility.yul\":8698:9036   */\n      swap3\n      swap2\n      pop\n      pop\n      jump\t// out\n        /* \"#utility.yul\":9042:9985   */\n    tag_66:\n        /* \"#utility.yul\":9137:9143   */\n      0x00\n        /* \"#utility.yul\":9145:9151   */\n      dup1\n        /* \"#utility.yul\":9153:9159   */\n      0x00\n        /* \"#utility.yul\":9161:9167   */\n      dup1\n        /* \"#utility.yul\":9210:9213   */\n      0x80\n        /* \"#utility.yul\":9198:9207   */\n      dup6\n        /* \"#utility.yul\":9189:9196   */\n      dup8\n        /* \"#utility.yul\":9185:9208   */\n      sub\n        /* \"#utility.yul\":9181:9214   */\n      slt\n        /* \"#utility.yul\":9178:9298   */\n      iszero\n      tag_360\n      jumpi\n        /* \"#utility.yul\":9217:9296   */\n      tag_361\n      tag_213\n      jump\t// in\n    tag_361:\n        /* \"#utility.yul\":9178:9298   */\n    tag_360:\n        /* \"#utility.yul\":9337:9338   */\n      0x00\n        /* \"#utility.yul\":9362:9415   */\n      tag_362\n        /* \"#utility.yul\":9407:9414   */\n      dup8\n        /* \"#utility.yul\":9398:9404   */\n      dup3\n        /* \"#utility.yul\":9387:9396   */\n      dup9\n        /* \"#utility.yul\":9383:9405   */\n      add\n        /* \"#utility.yul\":9362:9415   */\n      tag_232\n      jump\t// in\n    tag_362:\n        /* \"#utility.yul\":9352:9415   */\n      swap5\n      pop\n        /* \"#utility.yul\":9308:9425   */\n      pop\n        /* \"#utility.yul\":9464:9466   */\n      0x20\n        /* \"#utility.yul\":9490:9543   */\n      tag_363\n        /* \"#utility.yul\":9535:9542   */\n      dup8\n        /* \"#utility.yul\":9526:9532   */\n      dup3\n        /* \"#utility.yul\":9515:9524   */\n      dup9\n        /* \"#utility.yul\":9511:9533   */\n      add\n        /* \"#utility.yul\":9490:9543   */\n      tag_232\n      jump\t// in\n    tag_363:\n        /* \"#utility.yul\":9480:9543   */\n      swap4\n      pop\n        /* \"#utility.yul\":9435:9553   */\n      pop\n        /* \"#utility.yul\":9592:9594   */\n      0x40\n        /* \"#utility.yul\":9618:9671   */\n      tag_364\n        /* \"#utility.yul\":9663:9670   */\n      dup8\n        /* \"#utility.yul\":9654:9660   */\n      dup3\n        /* \"#utility.yul\":9643:9652   */\n      dup9\n        /* \"#utility.yul\":9639:9661   */\n      add\n        /* \"#utility.yul\":9618:9671   */\n      tag_227\n      jump\t// in\n    tag_364:\n        /* \"#utility.yul\":9608:9671   */\n      swap3\n      pop\n        /* \"#utility.yul\":9563:9681   */\n      pop\n        /* \"#utility.yul\":9748:9750   */\n      0x60\n        /* \"#utility.yul\":9737:9746   */\n      dup6\n        /* \"#utility.yul\":9733:9751   */\n      add\n        /* \"#utility.yul\":9720:9752   */\n      calldataload\n        /* \"#utility.yul\":9779:9797   */\n      0xffffffffffffffff\n        /* \"#utility.yul\":9771:9777   */\n      dup2\n        /* \"#utility.yul\":9768:9798   */\n      gt\n        /* \"#utility.yul\":9765:9882   */\n      iszero\n      tag_365\n      jumpi\n        /* \"#utility.yul\":9801:9880   */\n      tag_366\n      tag_214\n      jump\t// in\n    tag_366:\n        /* \"#utility.yul\":9765:9882   */\n    tag_365:\n        /* \"#utility.yul\":9906:9968   */\n      tag_367\n        /* \"#utility.yul\":9960:9967   */\n      dup8\n        /* \"#utility.yul\":9951:9957   */\n      dup3\n        /* \"#utility.yul\":9940:9949   */\n      dup9\n        /* \"#utility.yul\":9936:9958   */\n      add\n        /* \"#utility.yul\":9906:9968   */\n      tag_244\n      jump\t// in\n    tag_367:\n        /* \"#utility.yul\":9896:9968   */\n      swap2\n      pop\n        /* \"#utility.yul\":9691:9978   */\n      pop\n        /* \"#utility.yul\":9042:9985   */\n      swap3\n      swap6\n      swap2\n      swap5\n      pop\n      swap3\n      pop\n      jump\t// out\n        /* \"#utility.yul\":9991:10465   */\n    tag_74:\n        /* \"#utility.yul\":10059:10065   */\n      0x00\n        /* \"#utility.yul\":10067:10073   */\n      dup1\n        /* \"#utility.yul\":10116:10118   */\n      0x40\n        /* \"#utility.yul\":10104:10113   */\n      dup4\n        /* \"#utility.yul\":10095:10102   */\n      dup6\n        /* \"#utility.yul\":10091:10114   */\n      sub\n        /* \"#utility.yul\":10087:10119   */\n      slt\n        /* \"#utility.yul\":10084:10203   */\n      iszero\n      tag_369\n      jumpi\n        /* \"#utility.yul\":10122:10201   */\n      tag_370\n      tag_213\n      jump\t// in\n    tag_370:\n        /* \"#utility.yul\":10084:10203   */\n    tag_369:\n        /* \"#utility.yul\":10242:10243   */\n      0x00\n        /* \"#utility.yul\":10267:10320   */\n      tag_371\n        /* \"#utility.yul\":10312:10319   */\n      dup6\n        /* \"#utility.yul\":10303:10309   */\n      dup3\n        /* \"#utility.yul\":10292:10301   */\n      dup7\n        /* \"#utility.yul\":10288:10310   */\n      add\n        /* \"#utility.yul\":10267:10320   */\n      tag_232\n      jump\t// in\n    tag_371:\n        /* \"#utility.yul\":10257:10320   */\n      swap3\n      pop\n        /* \"#utility.yul\":10213:10330   */\n      pop\n        /* \"#utility.yul\":10369:10371   */\n      0x20\n        /* \"#utility.yul\":10395:10448   */\n      tag_372\n        /* \"#utility.yul\":10440:10447   */\n      dup6\n        /* \"#utility.yul\":10431:10437   */\n      dup3\n        /* \"#utility.yul\":10420:10429   */\n      dup7\n        /* \"#utility.yul\":10416:10438   */\n      add\n        /* \"#utility.yul\":10395:10448   */\n      tag_232\n      jump\t// in\n    tag_372:\n        /* \"#utility.yul\":10385:10448   */\n      swap2\n      pop\n        /* \"#utility.yul\":10340:10458   */\n      pop\n        /* \"#utility.yul\":9991:10465   */\n      swap3\n      pop\n      swap3\n      swap1\n      pop\n      jump\t// out\n        /* \"#utility.yul\":10471:10651   */\n    tag_245:\n        /* \"#utility.yul\":10519:10596   */\n      0x4e487b7100000000000000000000000000000000000000000000000000000000\n        /* \"#utility.yul\":10516:10517   */\n      0x00\n        /* \"#utility.yul\":10509:10597   */\n      mstore\n        /* \"#utility.yul\":10616:10620   */\n      0x22\n        /* \"#utility.yul\":10613:10614   */\n      0x04\n        /* \"#utility.yul\":10606:10621   */\n      mstore\n        /* \"#utility.yul\":10640:10644   */\n      0x24\n        /* \"#utility.yul\":10637:10638   */\n      0x00\n        /* \"#utility.yul\":10630:10645   */\n      revert\n        /* \"#utility.yul\":10657:10977   */\n    tag_87:\n        /* \"#utility.yul\":10701:10707   */\n      0x00\n        /* \"#utility.yul\":10738:10739   */\n      0x02\n        /* \"#utility.yul\":10732:10736   */\n      dup3\n        /* \"#utility.yul\":10728:10740   */\n      div\n        /* \"#utility.yul\":10718:10740   */\n      swap1\n      pop\n        /* \"#utility.yul\":10785:10786   */\n      0x01\n        /* \"#utility.yul\":10779:10783   */\n      dup3\n        /* \"#utility.yul\":10775:10787   */\n      and\n        /* \"#utility.yul\":10806:10824   */\n      dup1\n        /* \"#utility.yul\":10796:10877   */\n      tag_375\n      jumpi\n        /* \"#utility.yul\":10862:10866   */\n      0x7f\n        /* \"#utility.yul\":10854:10860   */\n      dup3\n        /* \"#utility.yul\":10850:10867   */\n      and\n        /* \"#utility.yul\":10840:10867   */\n      swap2\n      pop\n        /* \"#utility.yul\":10796:10877   */\n    tag_375:\n        /* \"#utility.yul\":10924:10926   */\n      0x20\n        /* \"#utility.yul\":10916:10922   */\n      dup3\n        /* \"#utility.yul\":10913:10927   */\n      lt\n        /* \"#utility.yul\":10893:10911   */\n      dup2\n        /* \"#utility.yul\":10890:10928   */\n      sub\n        /* \"#utility.yul\":10887:10971   */\n      tag_376\n      jumpi\n        /* \"#utility.yul\":10943:10961   */\n      tag_377\n      tag_245\n      jump\t// in\n    tag_377:\n        /* \"#utility.yul\":10887:10971   */\n    tag_376:\n        /* \"#utility.yul\":10708:10977   */\n      pop\n        /* \"#utility.yul\":10657:10977   */\n      swap2\n      swap1\n      pop\n      jump\t// out\n        /* \"#utility.yul\":10983:11425   */\n    tag_110:\n        /* \"#utility.yul\":11132:11136   */\n      0x00\n        /* \"#utility.yul\":11170:11172   */\n      0x60\n        /* \"#utility.yul\":11159:11168   */\n      dup3\n        /* \"#utility.yul\":11155:11173   */\n      add\n        /* \"#utility.yul\":11147:11173   */\n      swap1\n      pop\n        /* \"#utility.yul\":11183:11254   */\n      tag_379\n        /* \"#utility.yul\":11251:11252   */\n      0x00\n        /* \"#utility.yul\":11240:11249   */\n      dup4\n        /* \"#utility.yul\":11236:11253   */\n      add\n        /* \"#utility.yul\":11227:11233   */\n      dup7\n        /* \"#utility.yul\":11183:11254   */\n      tag_230\n      jump\t// in\n    tag_379:\n        /* \"#utility.yul\":11264:11336   */\n      tag_380\n        /* \"#utility.yul\":11332:11334   */\n      0x20\n        /* \"#utility.yul\":11321:11330   */\n      dup4\n        /* \"#utility.yul\":11317:11335   */\n      add\n        /* \"#utility.yul\":11308:11314   */\n      dup6\n        /* \"#utility.yul\":11264:11336   */\n      tag_233\n      jump\t// in\n    tag_380:\n        /* \"#utility.yul\":11346:11418   */\n      tag_381\n        /* \"#utility.yul\":11414:11416   */\n      0x40\n        /* \"#utility.yul\":11403:11412   */\n      dup4\n        /* \"#utility.yul\":11399:11417   */\n      add\n        /* \"#utility.yul\":11390:11396   */\n      dup5\n        /* \"#utility.yul\":11346:11418   */\n      tag_230\n      jump\t// in\n    tag_381:\n        /* \"#utility.yul\":10983:11425   */\n      swap5\n      swap4\n      pop\n      pop\n      pop\n      pop\n      jump\t// out\n        /* \"#utility.yul\":11431:11529   */\n    tag_246:\n        /* \"#utility.yul\":11482:11488   */\n      0x00\n        /* \"#utility.yul\":11516:11521   */\n      dup2\n        /* \"#utility.yul\":11510:11522   */\n      mload\n        /* \"#utility.yul\":11500:11522   */\n      swap1\n      pop\n        /* \"#utility.yul\":11431:11529   */\n      swap2\n      swap1\n      pop\n      jump\t// out\n        /* \"#utility.yul\":11535:11703   */\n    tag_247:\n        /* \"#utility.yul\":11618:11629   */\n      0x00\n        /* \"#utility.yul\":11652:11658   */\n      dup3\n        /* \"#utility.yul\":11647:11650   */\n      dup3\n        /* \"#utility.yul\":11640:11659   */\n      mstore\n        /* \"#utility.yul\":11692:11696   */\n      0x20\n        /* \"#utility.yul\":11687:11690   */\n      dup3\n        /* \"#utility.yul\":11683:11697   */\n      add\n        /* \"#utility.yul\":11668:11697   */\n      swap1\n      pop\n        /* \"#utility.yul\":11535:11703   */\n      swap3\n      swap2\n      pop\n      pop\n      jump\t// out\n        /* \"#utility.yul\":11709:12082   */\n    tag_248:\n        /* \"#utility.yul\":11795:11798   */\n      0x00\n        /* \"#utility.yul\":11823:11861   */\n      tag_385\n        /* \"#utility.yul\":11855:11860   */\n      dup3\n        /* \"#utility.yul\":11823:11861   */\n      tag_246\n      jump\t// in\n    tag_385:\n        /* \"#utility.yul\":11877:11947   */\n      tag_386\n        /* \"#utility.yul\":11940:11946   */\n      dup2\n        /* \"#utility.yul\":11935:11938   */\n      dup6\n        /* \"#utility.yul\":11877:11947   */\n      tag_247\n      jump\t// in\n    tag_386:\n        /* \"#utility.yul\":11870:11947   */\n      swap4\n      pop\n        /* \"#utility.yul\":11956:12021   */\n      tag_387\n        /* \"#utility.yul\":12014:12020   */\n      dup2\n        /* \"#utility.yul\":12009:12012   */\n      dup6\n        /* \"#utility.yul\":12002:12006   */\n      0x20\n        /* \"#utility.yul\":11995:12000   */\n      dup7\n        /* \"#utility.yul\":11991:12007   */\n      add\n        /* \"#utility.yul\":11956:12021   */\n      tag_222\n      jump\t// in\n    tag_387:\n        /* \"#utility.yul\":12046:12075   */\n      tag_388\n        /* \"#utility.yul\":12068:12074   */\n      dup2\n        /* \"#utility.yul\":12046:12075   */\n      tag_223\n      jump\t// in\n    tag_388:\n        /* \"#utility.yul\":12041:12044   */\n      dup5\n        /* \"#utility.yul\":12037:12076   */\n      add\n        /* \"#utility.yul\":12030:12076   */\n      swap2\n      pop\n        /* \"#utility.yul\":11799:12082   */\n      pop\n        /* \"#utility.yul\":11709:12082   */\n      swap3\n      swap2\n      pop\n      pop\n      jump\t// out\n        /* \"#utility.yul\":12088:12728   */\n    tag_164:\n        /* \"#utility.yul\":12283:12287   */\n      0x00\n        /* \"#utility.yul\":12321:12324   */\n      0x80\n        /* \"#utility.yul\":12310:12319   */\n      dup3\n        /* \"#utility.yul\":12306:12325   */\n      add\n        /* \"#utility.yul\":12298:12325   */\n      swap1\n      pop\n        /* \"#utility.yul\":12335:12406   */\n      tag_390\n        /* \"#utility.yul\":12403:12404   */\n      0x00\n        /* \"#utility.yul\":12392:12401   */\n      dup4\n        /* \"#utility.yul\":12388:12405   */\n      add\n        /* \"#utility.yul\":12379:12385   */\n      dup8\n        /* \"#utility.yul\":12335:12406   */\n      tag_230\n      jump\t// in\n    tag_390:\n        /* \"#utility.yul\":12416:12488   */\n      tag_391\n        /* \"#utility.yul\":12484:12486   */\n      0x20\n        /* \"#utility.yul\":12473:12482   */\n      dup4\n        /* \"#utility.yul\":12469:12487   */\n      add\n        /* \"#utility.yul\":12460:12466   */\n      dup7\n        /* \"#utility.yul\":12416:12488   */\n      tag_230\n      jump\t// in\n    tag_391:\n        /* \"#utility.yul\":12498:12570   */\n      tag_392\n        /* \"#utility.yul\":12566:12568   */\n      0x40\n        /* \"#utility.yul\":12555:12564   */\n      dup4\n        /* \"#utility.yul\":12551:12569   */\n      add\n        /* \"#utility.yul\":12542:12548   */\n      dup6\n        /* \"#utility.yul\":12498:12570   */\n      tag_233\n      jump\t// in\n    tag_392:\n        /* \"#utility.yul\":12617:12626   */\n      dup2\n        /* \"#utility.yul\":12611:12615   */\n      dup2\n        /* \"#utility.yul\":12607:12627   */\n      sub\n        /* \"#utility.yul\":12602:12604   */\n      0x60\n        /* \"#utility.yul\":12591:12600   */\n      dup4\n        /* \"#utility.yul\":12587:12605   */\n      add\n        /* \"#utility.yul\":12580:12628   */\n      mstore\n        /* \"#utility.yul\":12645:12721   */\n      tag_393\n        /* \"#utility.yul\":12716:12720   */\n      dup2\n        /* \"#utility.yul\":12707:12713   */\n      dup5\n        /* \"#utility.yul\":12645:12721   */\n      tag_248\n      jump\t// in\n    tag_393:\n        /* \"#utility.yul\":12637:12721   */\n      swap1\n      pop\n        /* \"#utility.yul\":12088:12728   */\n      swap6\n      swap5\n      pop\n      pop\n      pop\n      pop\n      pop\n      jump\t// out\n        /* \"#utility.yul\":12734:12875   */\n    tag_249:\n        /* \"#utility.yul\":12790:12795   */\n      0x00\n        /* \"#utility.yul\":12821:12827   */\n      dup2\n        /* \"#utility.yul\":12815:12828   */\n      mload\n        /* \"#utility.yul\":12806:12828   */\n      swap1\n      pop\n        /* \"#utility.yul\":12837:12869   */\n      tag_395\n        /* \"#utility.yul\":12863:12868   */\n      dup2\n        /* \"#utility.yul\":12837:12869   */\n      tag_216\n      jump\t// in\n    tag_395:\n        /* \"#utility.yul\":12734:12875   */\n      swap3\n      swap2\n      pop\n      pop\n      jump\t// out\n        /* \"#utility.yul\":12881:13230   */\n    tag_167:\n        /* \"#utility.yul\":12950:12956   */\n      0x00\n        /* \"#utility.yul\":12999:13001   */\n      0x20\n        /* \"#utility.yul\":12987:12996   */\n      dup3\n        /* \"#utility.yul\":12978:12985   */\n      dup5\n        /* \"#utility.yul\":12974:12997   */\n      sub\n        /* \"#utility.yul\":12970:13002   */\n      slt\n        /* \"#utility.yul\":12967:13086   */\n      iszero\n      tag_397\n      jumpi\n        /* \"#utility.yul\":13005:13084   */\n      tag_398\n      tag_213\n      jump\t// in\n    tag_398:\n        /* \"#utility.yul\":12967:13086   */\n    tag_397:\n        /* \"#utility.yul\":13125:13126   */\n      0x00\n        /* \"#utility.yul\":13150:13213   */\n      tag_399\n        /* \"#utility.yul\":13205:13212   */\n      dup5\n        /* \"#utility.yul\":13196:13202   */\n      dup3\n        /* \"#utility.yul\":13185:13194   */\n      dup6\n        /* \"#utility.yul\":13181:13203   */\n      add\n        /* \"#utility.yul\":13150:13213   */\n      tag_249\n      jump\t// in\n    tag_399:\n        /* \"#utility.yul\":13140:13213   */\n      swap2\n      pop\n        /* \"#utility.yul\":13096:13223   */\n      pop\n        /* \"#utility.yul\":12881:13230   */\n      swap3\n      swap2\n      pop\n      pop\n      jump\t// out\n        /* \"#utility.yul\":13236:13568   */\n    tag_205:\n        /* \"#utility.yul\":13357:13361   */\n      0x00\n        /* \"#utility.yul\":13395:13397   */\n      0x40\n        /* \"#utility.yul\":13384:13393   */\n      dup3\n        /* \"#utility.yul\":13380:13398   */\n      add\n        /* \"#utility.yul\":13372:13398   */\n      swap1\n      pop\n        /* \"#utility.yul\":13408:13479   */\n      tag_401\n        /* \"#utility.yul\":13476:13477   */\n      0x00\n        /* \"#utility.yul\":13465:13474   */\n      dup4\n        /* \"#utility.yul\":13461:13478   */\n      add\n        /* \"#utility.yul\":13452:13458   */\n      dup6\n        /* \"#utility.yul\":13408:13479   */\n      tag_230\n      jump\t// in\n    tag_401:\n        /* \"#utility.yul\":13489:13561   */\n      tag_402\n        /* \"#utility.yul\":13557:13559   */\n      0x20\n        /* \"#utility.yul\":13546:13555   */\n      dup4\n        /* \"#utility.yul\":13542:13560   */\n      add\n        /* \"#utility.yul\":13533:13539   */\n      dup5\n        /* \"#utility.yul\":13489:13561   */\n      tag_233\n      jump\t// in\n    tag_402:\n        /* \"#utility.yul\":13236:13568   */\n      swap4\n      swap3\n      pop\n      pop\n      pop\n      jump\t// out\n    stop\n    data_dadc0df0a11c43ee9e277bc0d58e2fee47c3a204d3119fd9be0f3310f01fa1e1 516d615877724b6b613133634e4c4548455a6d57746274627973625366464356756d4858756d635a667574587736\n\n    auxdata: 0xa26469706673582212202b11ad1f1cd3875219419bf22d5179d48e7dd42754de0d3a3bf76655a1ad5ffc64736f6c63430008150033\n}\n",
				"bytecode": {
					"linkReferences": {},
					"object": "608060405234801562000010575f80fd5b5060405162001fda38038062001fda8339818101604052810190620000369190620001ea565b8181815f9081620000489190620004a4565b5080600190816200005a9190620004a4565b505050505062000588565b5f604051905090565b5f80fd5b5f80fd5b5f80fd5b5f80fd5b5f601f19601f8301169050919050565b7f4e487b71000000000000000000000000000000000000000000000000000000005f52604160045260245ffd5b620000c6826200007e565b810181811067ffffffffffffffff82111715620000e857620000e76200008e565b5b80604052505050565b5f620000fc62000065565b90506200010a8282620000bb565b919050565b5f67ffffffffffffffff8211156200012c576200012b6200008e565b5b62000137826200007e565b9050602081019050919050565b5f5b838110156200016357808201518184015260208101905062000146565b5f8484015250505050565b5f620001846200017e846200010f565b620000f1565b905082815260208101848484011115620001a357620001a26200007a565b5b620001b084828562000144565b509392505050565b5f82601f830112620001cf57620001ce62000076565b5b8151620001e18482602086016200016e565b91505092915050565b5f80604083850312156200020357620002026200006e565b5b5f83015167ffffffffffffffff81111562000223576200022262000072565b5b6200023185828601620001b8565b925050602083015167ffffffffffffffff81111562000255576200025462000072565b5b6200026385828601620001b8565b9150509250929050565b5f81519050919050565b7f4e487b71000000000000000000000000000000000000000000000000000000005f52602260045260245ffd5b5f6002820490506001821680620002bc57607f821691505b602082108103620002d257620002d162000277565b5b50919050565b5f819050815f5260205f209050919050565b5f6020601f8301049050919050565b5f82821b905092915050565b5f60088302620003367fffffffffffffffffffffffffffffffffffffffffffffffffffffffffffffffff82620002f9565b620003428683620002f9565b95508019841693508086168417925050509392505050565b5f819050919050565b5f819050919050565b5f6200038c6200038662000380846200035a565b62000363565b6200035a565b9050919050565b5f819050919050565b620003a7836200036c565b620003bf620003b68262000393565b84845462000305565b825550505050565b5f90565b620003d5620003c7565b620003e28184846200039c565b505050565b5b818110156200040957620003fd5f82620003cb565b600181019050620003e8565b5050565b601f82111562000458576200042281620002d8565b6200042d84620002ea565b810160208510156200043d578190505b620004556200044c85620002ea565b830182620003e7565b50505b505050565b5f82821c905092915050565b5f6200047a5f19846008026200045d565b1980831691505092915050565b5f62000494838362000469565b9150826002028217905092915050565b620004af826200026d565b67ffffffffffffffff811115620004cb57620004ca6200008e565b5b620004d78254620002a4565b620004e48282856200040d565b5f60209050601f8311600181146200051a575f841562000505578287015190505b62000511858262000487565b86555062000580565b601f1984166200052a86620002d8565b5f5b8281101562000553578489015182556001820191506020850194506020810190506200052c565b868310156200057357848901516200056f601f89168262000469565b8355505b6001600288020188555050505b505050505050565b611a4480620005965f395ff3fe608060405234801561000f575f80fd5b50600436106100e8575f3560e01c806370a082311161008a578063b88d4fde11610064578063b88d4fde14610258578063c87b56dd14610274578063e985e9c5146102a4578063f2cee92b146102d4576100e8565b806370a08231146101ee57806395d89b411461021e578063a22cb4651461023c576100e8565b8063095ea7b3116100c6578063095ea7b31461016a57806323b872dd1461018657806342842e0e146101a25780636352211e146101be576100e8565b806301ffc9a7146100ec57806306fdde031461011c578063081812fc1461013a575b5f80fd5b61010660048036038101906101019190611331565b6102f0565b6040516101139190611376565b60405180910390f35b6101246103d1565b6040516101319190611419565b60405180910390f35b610154600480360381019061014f919061146c565b610460565b60405161016191906114d6565b60405180910390f35b610184600480360381019061017f9190611519565b61047b565b005b6101a0600480360381019061019b9190611557565b610491565b005b6101bc60048036038101906101b79190611557565b610590565b005b6101d860048036038101906101d3919061146c565b6105af565b6040516101e591906114d6565b60405180910390f35b610208600480360381019061020391906115a7565b6105c0565b60405161021591906115e1565b60405180910390f35b610226610676565b6040516102339190611419565b60405180910390f35b61025660048036038101906102519190611624565b610706565b005b610272600480360381019061026d919061178e565b61071c565b005b61028e6004803603810190610289919061146c565b610739565b60405161029b9190611419565b60405180910390f35b6102be60048036038101906102b9919061180e565b61075b565b6040516102cb9190611376565b60405180910390f35b6102ee60048036038101906102e9919061146c565b6107e9565b005b5f7f80ac58cd000000000000000000000000000000000000000000000000000000007bffffffffffffffffffffffffffffffffffffffffffffffffffffffff1916827bffffffffffffffffffffffffffffffffffffffffffffffffffffffff191614806103ba57507f5b5e139f000000000000000000000000000000000000000000000000000000007bffffffffffffffffffffffffffffffffffffffffffffffffffffffff1916827bffffffffffffffffffffffffffffffffffffffffffffffffffffffff1916145b806103ca57506103c9826107f6565b5b9050919050565b60605f80546103df90611879565b80601f016020809104026020016040519081016040528092919081815260200182805461040b90611879565b80156104565780601f1061042d57610100808354040283529160200191610456565b820191905f5260205f20905b81548152906001019060200180831161043957829003601f168201915b5050505050905090565b5f61046a8261085f565b50610474826108e5565b9050919050565b61048d828261048861091e565b610925565b5050565b5f73ffffffffffffffffffffffffffffffffffffffff168273ffffffffffffffffffffffffffffffffffffffff1603610501575f6040517f64a0ae920000000000000000000000000000000000000000000000000000000081526004016104f891906114d6565b60405180910390fd5b5f610514838361050f61091e565b610937565b90508373ffffffffffffffffffffffffffffffffffffffff168173ffffffffffffffffffffffffffffffffffffffff161461058a578382826040517f64283d7b000000000000000000000000000000000000000000000000000000008152600401610581939291906118a9565b60405180910390fd5b50505050565b6105aa83838360405180602001604052805f81525061071c565b505050565b5f6105b98261085f565b9050919050565b5f8073ffffffffffffffffffffffffffffffffffffffff168273ffffffffffffffffffffffffffffffffffffffff1603610631575f6040517f89c62b6400000000000000000000000000000000000000000000000000000000815260040161062891906114d6565b60405180910390fd5b60035f8373ffffffffffffffffffffffffffffffffffffffff1673ffffffffffffffffffffffffffffffffffffffff1681526020019081526020015f20549050919050565b60606001805461068590611879565b80601f01602080910402602001604051908101604052809291908181526020018280546106b190611879565b80156106fc5780601f106106d3576101008083540402835291602001916106fc565b820191905f5260205f20905b8154815290600101906020018083116106df57829003601f168201915b5050505050905090565b61071861071161091e565b8383610b42565b5050565b610727848484610491565b61073384848484610cab565b50505050565b60606040518060600160405280602e81526020016119e1602e91399050919050565b5f60055f8473ffffffffffffffffffffffffffffffffffffffff1673ffffffffffffffffffffffffffffffffffffffff1681526020019081526020015f205f8373ffffffffffffffffffffffffffffffffffffffff1673ffffffffffffffffffffffffffffffffffffffff1681526020019081526020015f205f9054906101000a900460ff16905092915050565b6107f33382610e5d565b50565b5f7f01ffc9a7000000000000000000000000000000000000000000000000000000007bffffffffffffffffffffffffffffffffffffffffffffffffffffffff1916827bffffffffffffffffffffffffffffffffffffffffffffffffffffffff1916149050919050565b5f8061086a83610f50565b90505f73ffffffffffffffffffffffffffffffffffffffff168173ffffffffffffffffffffffffffffffffffffffff16036108dc57826040517f7e2732890000000000000000000000000000000000000000000000000000000081526004016108d391906115e1565b60405180910390fd5b80915050919050565b5f60045f8381526020019081526020015f205f9054906101000a900473ffffffffffffffffffffffffffffffffffffffff169050919050565b5f33905090565b6109328383836001610f89565b505050565b5f8061094284610f50565b90505f73ffffffffffffffffffffffffffffffffffffffff168373ffffffffffffffffffffffffffffffffffffffff161461098357610982818486611148565b5b5f73ffffffffffffffffffffffffffffffffffffffff168173ffffffffffffffffffffffffffffffffffffffff1614610a0e576109c25f855f80610f89565b600160035f8373ffffffffffffffffffffffffffffffffffffffff1673ffffffffffffffffffffffffffffffffffffffff1681526020019081526020015f205f82825403925050819055505b5f73ffffffffffffffffffffffffffffffffffffffff168573ffffffffffffffffffffffffffffffffffffffff1614610a8d57600160035f8773ffffffffffffffffffffffffffffffffffffffff1673ffffffffffffffffffffffffffffffffffffffff1681526020019081526020015f205f82825401925050819055505b8460025f8681526020019081526020015f205f6101000a81548173ffffffffffffffffffffffffffffffffffffffff021916908373ffffffffffffffffffffffffffffffffffffffff160217905550838573ffffffffffffffffffffffffffffffffffffffff168273ffffffffffffffffffffffffffffffffffffffff167fddf252ad1be2c89b69c2b068fc378daa952ba7f163c4a11628f55a4df523b3ef60405160405180910390a4809150509392505050565b5f73ffffffffffffffffffffffffffffffffffffffff168273ffffffffffffffffffffffffffffffffffffffff1603610bb257816040517f5b08ba18000000000000000000000000000000000000000000000000000000008152600401610ba991906114d6565b60405180910390fd5b8060055f8573ffffffffffffffffffffffffffffffffffffffff1673ffffffffffffffffffffffffffffffffffffffff1681526020019081526020015f205f8473ffffffffffffffffffffffffffffffffffffffff1673ffffffffffffffffffffffffffffffffffffffff1681526020019081526020015f205f6101000a81548160ff0219169083151502179055508173ffffffffffffffffffffffffffffffffffffffff168373ffffffffffffffffffffffffffffffffffffffff167f17307eab39ab6107e8899845ad3d59bd9653f200f220920489ca2b5937696c3183604051610c9e9190611376565b60405180910390a3505050565b5f8373ffffffffffffffffffffffffffffffffffffffff163b1115610e57578273ffffffffffffffffffffffffffffffffffffffff1663150b7a02610cee61091e565b8685856040518563ffffffff1660e01b8152600401610d109493929190611930565b6020604051808303815f875af1925050508015610d4b57506040513d601f19601f82011682018060405250810190610d48919061198e565b60015b610dcc573d805f8114610d79576040519150601f19603f3d011682016040523d82523d5f602084013e610d7e565b606091505b505f815103610dc457836040517f64a0ae92000000000000000000000000000000000000000000000000000000008152600401610dbb91906114d6565b60405180910390fd5b805181602001fd5b63150b7a0260e01b7bffffffffffffffffffffffffffffffffffffffffffffffffffffffff1916817bffffffffffffffffffffffffffffffffffffffffffffffffffffffff191614610e5557836040517f64a0ae92000000000000000000000000000000000000000000000000000000008152600401610e4c91906114d6565b60405180910390fd5b505b50505050565b5f73ffffffffffffffffffffffffffffffffffffffff168273ffffffffffffffffffffffffffffffffffffffff1603610ecd575f6040517f64a0ae92000000000000000000000000000000000000000000000000000000008152600401610ec491906114d6565b60405180910390fd5b5f610ed983835f610937565b90505f73ffffffffffffffffffffffffffffffffffffffff168173ffffffffffffffffffffffffffffffffffffffff1614610f4b575f6040517f73c6ac6e000000000000000000000000000000000000000000000000000000008152600401610f4291906114d6565b60405180910390fd5b505050565b5f60025f8381526020019081526020015f205f9054906101000a900473ffffffffffffffffffffffffffffffffffffffff169050919050565b8080610fc157505f73ffffffffffffffffffffffffffffffffffffffff168273ffffffffffffffffffffffffffffffffffffffff1614155b156110f3575f610fd08461085f565b90505f73ffffffffffffffffffffffffffffffffffffffff168373ffffffffffffffffffffffffffffffffffffffff161415801561103a57508273ffffffffffffffffffffffffffffffffffffffff168173ffffffffffffffffffffffffffffffffffffffff1614155b801561104d575061104b818461075b565b155b1561108f57826040517fa9fbf51f00000000000000000000000000000000000000000000000000000000815260040161108691906114d6565b60405180910390fd5b81156110f157838573ffffffffffffffffffffffffffffffffffffffff168273ffffffffffffffffffffffffffffffffffffffff167f8c5be1e5ebec7d5bd14f71427d1e84f3dd0314c0f7b2291e5b200ac8c7c3b92560405160405180910390a45b505b8360045f8581526020019081526020015f205f6101000a81548173ffffffffffffffffffffffffffffffffffffffff021916908373ffffffffffffffffffffffffffffffffffffffff16021790555050505050565b61115383838361120b565b611206575f73ffffffffffffffffffffffffffffffffffffffff168373ffffffffffffffffffffffffffffffffffffffff16036111c757806040517f7e2732890000000000000000000000000000000000000000000000000000000081526004016111be91906115e1565b60405180910390fd5b81816040517f177e802f0000000000000000000000000000000000000000000000000000000081526004016111fd9291906119b9565b60405180910390fd5b505050565b5f8073ffffffffffffffffffffffffffffffffffffffff168373ffffffffffffffffffffffffffffffffffffffff16141580156112c257508273ffffffffffffffffffffffffffffffffffffffff168473ffffffffffffffffffffffffffffffffffffffff1614806112835750611282848461075b565b5b806112c157508273ffffffffffffffffffffffffffffffffffffffff166112a9836108e5565b73ffffffffffffffffffffffffffffffffffffffff16145b5b90509392505050565b5f604051905090565b5f80fd5b5f80fd5b5f7fffffffff0000000000000000000000000000000000000000000000000000000082169050919050565b611310816112dc565b811461131a575f80fd5b50565b5f8135905061132b81611307565b92915050565b5f60208284031215611346576113456112d4565b5b5f6113538482850161131d565b91505092915050565b5f8115159050919050565b6113708161135c565b82525050565b5f6020820190506113895f830184611367565b92915050565b5f81519050919050565b5f82825260208201905092915050565b5f5b838110156113c65780820151818401526020810190506113ab565b5f8484015250505050565b5f601f19601f8301169050919050565b5f6113eb8261138f565b6113f58185611399565b93506114058185602086016113a9565b61140e816113d1565b840191505092915050565b5f6020820190508181035f83015261143181846113e1565b905092915050565b5f819050919050565b61144b81611439565b8114611455575f80fd5b50565b5f8135905061146681611442565b92915050565b5f60208284031215611481576114806112d4565b5b5f61148e84828501611458565b91505092915050565b5f73ffffffffffffffffffffffffffffffffffffffff82169050919050565b5f6114c082611497565b9050919050565b6114d0816114b6565b82525050565b5f6020820190506114e95f8301846114c7565b92915050565b6114f8816114b6565b8114611502575f80fd5b50565b5f81359050611513816114ef565b92915050565b5f806040838503121561152f5761152e6112d4565b5b5f61153c85828601611505565b925050602061154d85828601611458565b9150509250929050565b5f805f6060848603121561156e5761156d6112d4565b5b5f61157b86828701611505565b935050602061158c86828701611505565b925050604061159d86828701611458565b9150509250925092565b5f602082840312156115bc576115bb6112d4565b5b5f6115c984828501611505565b91505092915050565b6115db81611439565b82525050565b5f6020820190506115f45f8301846115d2565b92915050565b6116038161135c565b811461160d575f80fd5b50565b5f8135905061161e816115fa565b92915050565b5f806040838503121561163a576116396112d4565b5b5f61164785828601611505565b925050602061165885828601611610565b9150509250929050565b5f80fd5b5f80fd5b7f4e487b71000000000000000000000000000000000000000000000000000000005f52604160045260245ffd5b6116a0826113d1565b810181811067ffffffffffffffff821117156116bf576116be61166a565b5b80604052505050565b5f6116d16112cb565b90506116dd8282611697565b919050565b5f67ffffffffffffffff8211156116fc576116fb61166a565b5b611705826113d1565b9050602081019050919050565b828183375f83830152505050565b5f61173261172d846116e2565b6116c8565b90508281526020810184848401111561174e5761174d611666565b5b611759848285611712565b509392505050565b5f82601f83011261177557611774611662565b5b8135611785848260208601611720565b91505092915050565b5f805f80608085870312156117a6576117a56112d4565b5b5f6117b387828801611505565b94505060206117c487828801611505565b93505060406117d587828801611458565b925050606085013567ffffffffffffffff8111156117f6576117f56112d8565b5b61180287828801611761565b91505092959194509250565b5f8060408385031215611824576118236112d4565b5b5f61183185828601611505565b925050602061184285828601611505565b9150509250929050565b7f4e487b71000000000000000000000000000000000000000000000000000000005f52602260045260245ffd5b5f600282049050600182168061189057607f821691505b6020821081036118a3576118a261184c565b5b50919050565b5f6060820190506118bc5f8301866114c7565b6118c960208301856115d2565b6118d660408301846114c7565b949350505050565b5f81519050919050565b5f82825260208201905092915050565b5f611902826118de565b61190c81856118e8565b935061191c8185602086016113a9565b611925816113d1565b840191505092915050565b5f6080820190506119435f8301876114c7565b61195060208301866114c7565b61195d60408301856115d2565b818103606083015261196f81846118f8565b905095945050505050565b5f8151905061198881611307565b92915050565b5f602082840312156119a3576119a26112d4565b5b5f6119b08482850161197a565b91505092915050565b5f6040820190506119cc5f8301856114c7565b6119d960208301846115d2565b939250505056fe516d615877724b6b613133634e4c4548455a6d57746274627973625366464356756d4858756d635a667574587736a26469706673582212202b11ad1f1cd3875219419bf22d5179d48e7dd42754de0d3a3bf76655a1ad5ffc64736f6c63430008150033",
					"opcodes": "PUSH1 0x80 PUSH1 0x40 MSTORE CALLVALUE DUP1 ISZERO PUSH3 0x10 JUMPI PUSH0 DUP1 REVERT JUMPDEST POP PUSH1 0x40 MLOAD PUSH3 0x1FDA CODESIZE SUB DUP1 PUSH3 0x1FDA DUP4 CODECOPY DUP2 DUP2 ADD PUSH1 0x40 MSTORE DUP2 ADD SWAP1 PUSH3 0x36 SWAP2 SWAP1 PUSH3 0x1EA JUMP JUMPDEST DUP2 DUP2 DUP2 PUSH0 SWAP1 DUP2 PUSH3 0x48 SWAP2 SWAP1 PUSH3 0x4A4 JUMP JUMPDEST POP DUP1 PUSH1 0x1 SWAP1 DUP2 PUSH3 0x5A SWAP2 SWAP1 PUSH3 0x4A4 JUMP JUMPDEST POP POP POP POP POP PUSH3 0x588 JUMP JUMPDEST PUSH0 PUSH1 0x40 MLOAD SWAP1 POP SWAP1 JUMP JUMPDEST PUSH0 DUP1 REVERT JUMPDEST PUSH0 DUP1 REVERT JUMPDEST PUSH0 DUP1 REVERT JUMPDEST PUSH0 DUP1 REVERT JUMPDEST PUSH0 PUSH1 0x1F NOT PUSH1 0x1F DUP4 ADD AND SWAP1 POP SWAP2 SWAP1 POP JUMP JUMPDEST PUSH32 0x4E487B7100000000000000000000000000000000000000000000000000000000 PUSH0 MSTORE PUSH1 0x41 PUSH1 0x4 MSTORE PUSH1 0x24 PUSH0 REVERT JUMPDEST PUSH3 0xC6 DUP3 PUSH3 0x7E JUMP JUMPDEST DUP2 ADD DUP2 DUP2 LT PUSH8 0xFFFFFFFFFFFFFFFF DUP3 GT OR ISZERO PUSH3 0xE8 JUMPI PUSH3 0xE7 PUSH3 0x8E JUMP JUMPDEST JUMPDEST DUP1 PUSH1 0x40 MSTORE POP POP POP JUMP JUMPDEST PUSH0 PUSH3 0xFC PUSH3 0x65 JUMP JUMPDEST SWAP1 POP PUSH3 0x10A DUP3 DUP3 PUSH3 0xBB JUMP JUMPDEST SWAP2 SWAP1 POP JUMP JUMPDEST PUSH0 PUSH8 0xFFFFFFFFFFFFFFFF DUP3 GT ISZERO PUSH3 0x12C JUMPI PUSH3 0x12B PUSH3 0x8E JUMP JUMPDEST JUMPDEST PUSH3 0x137 DUP3 PUSH3 0x7E JUMP JUMPDEST SWAP1 POP PUSH1 0x20 DUP2 ADD SWAP1 POP SWAP2 SWAP1 POP JUMP JUMPDEST PUSH0 JUMPDEST DUP4 DUP2 LT ISZERO PUSH3 0x163 JUMPI DUP1 DUP3 ADD MLOAD DUP2 DUP5 ADD MSTORE PUSH1 0x20 DUP2 ADD SWAP1 POP PUSH3 0x146 JUMP JUMPDEST PUSH0 DUP5 DUP5 ADD MSTORE POP POP POP POP JUMP JUMPDEST PUSH0 PUSH3 0x184 PUSH3 0x17E DUP5 PUSH3 0x10F JUMP JUMPDEST PUSH3 0xF1 JUMP JUMPDEST SWAP1 POP DUP3 DUP2 MSTORE PUSH1 0x20 DUP2 ADD DUP5 DUP5 DUP5 ADD GT ISZERO PUSH3 0x1A3 JUMPI PUSH3 0x1A2 PUSH3 0x7A JUMP JUMPDEST JUMPDEST PUSH3 0x1B0 DUP5 DUP3 DUP6 PUSH3 0x144 JUMP JUMPDEST POP SWAP4 SWAP3 POP POP POP JUMP JUMPDEST PUSH0 DUP3 PUSH1 0x1F DUP4 ADD SLT PUSH3 0x1CF JUMPI PUSH3 0x1CE PUSH3 0x76 JUMP JUMPDEST JUMPDEST DUP2 MLOAD PUSH3 0x1E1 DUP5 DUP3 PUSH1 0x20 DUP7 ADD PUSH3 0x16E JUMP JUMPDEST SWAP2 POP POP SWAP3 SWAP2 POP POP JUMP JUMPDEST PUSH0 DUP1 PUSH1 0x40 DUP4 DUP6 SUB SLT ISZERO PUSH3 0x203 JUMPI PUSH3 0x202 PUSH3 0x6E JUMP JUMPDEST JUMPDEST PUSH0 DUP4 ADD MLOAD PUSH8 0xFFFFFFFFFFFFFFFF DUP2 GT ISZERO PUSH3 0x223 JUMPI PUSH3 0x222 PUSH3 0x72 JUMP JUMPDEST JUMPDEST PUSH3 0x231 DUP6 DUP3 DUP7 ADD PUSH3 0x1B8 JUMP JUMPDEST SWAP3 POP POP PUSH1 0x20 DUP4 ADD MLOAD PUSH8 0xFFFFFFFFFFFFFFFF DUP2 GT ISZERO PUSH3 0x255 JUMPI PUSH3 0x254 PUSH3 0x72 JUMP JUMPDEST JUMPDEST PUSH3 0x263 DUP6 DUP3 DUP7 ADD PUSH3 0x1B8 JUMP JUMPDEST SWAP2 POP POP SWAP3 POP SWAP3 SWAP1 POP JUMP JUMPDEST PUSH0 DUP2 MLOAD SWAP1 POP SWAP2 SWAP1 POP JUMP JUMPDEST PUSH32 0x4E487B7100000000000000000000000000000000000000000000000000000000 PUSH0 MSTORE PUSH1 0x22 PUSH1 0x4 MSTORE PUSH1 0x24 PUSH0 REVERT JUMPDEST PUSH0 PUSH1 0x2 DUP3 DIV SWAP1 POP PUSH1 0x1 DUP3 AND DUP1 PUSH3 0x2BC JUMPI PUSH1 0x7F DUP3 AND SWAP2 POP JUMPDEST PUSH1 0x20 DUP3 LT DUP2 SUB PUSH3 0x2D2 JUMPI PUSH3 0x2D1 PUSH3 0x277 JUMP JUMPDEST JUMPDEST POP SWAP2 SWAP1 POP JUMP JUMPDEST PUSH0 DUP2 SWAP1 POP DUP2 PUSH0 MSTORE PUSH1 0x20 PUSH0 KECCAK256 SWAP1 POP SWAP2 SWAP1 POP JUMP JUMPDEST PUSH0 PUSH1 0x20 PUSH1 0x1F DUP4 ADD DIV SWAP1 POP SWAP2 SWAP1 POP JUMP JUMPDEST PUSH0 DUP3 DUP3 SHL SWAP1 POP SWAP3 SWAP2 POP POP JUMP JUMPDEST PUSH0 PUSH1 0x8 DUP4 MUL PUSH3 0x336 PUSH32 0xFFFFFFFFFFFFFFFFFFFFFFFFFFFFFFFFFFFFFFFFFFFFFFFFFFFFFFFFFFFFFFFF DUP3 PUSH3 0x2F9 JUMP JUMPDEST PUSH3 0x342 DUP7 DUP4 PUSH3 0x2F9 JUMP JUMPDEST SWAP6 POP DUP1 NOT DUP5 AND SWAP4 POP DUP1 DUP7 AND DUP5 OR SWAP3 POP POP POP SWAP4 SWAP3 POP POP POP JUMP JUMPDEST PUSH0 DUP2 SWAP1 POP SWAP2 SWAP1 POP JUMP JUMPDEST PUSH0 DUP2 SWAP1 POP SWAP2 SWAP1 POP JUMP JUMPDEST PUSH0 PUSH3 0x38C PUSH3 0x386 PUSH3 0x380 DUP5 PUSH3 0x35A JUMP JUMPDEST PUSH3 0x363 JUMP JUMPDEST PUSH3 0x35A JUMP JUMPDEST SWAP1 POP SWAP2 SWAP1 POP JUMP JUMPDEST PUSH0 DUP2 SWAP1 POP SWAP2 SWAP1 POP JUMP JUMPDEST PUSH3 0x3A7 DUP4 PUSH3 0x36C JUMP JUMPDEST PUSH3 0x3BF PUSH3 0x3B6 DUP3 PUSH3 0x393 JUMP JUMPDEST DUP5 DUP5 SLOAD PUSH3 0x305 JUMP JUMPDEST DUP3 SSTORE POP POP POP POP JUMP JUMPDEST PUSH0 SWAP1 JUMP JUMPDEST PUSH3 0x3D5 PUSH3 0x3C7 JUMP JUMPDEST PUSH3 0x3E2 DUP2 DUP5 DUP5 PUSH3 0x39C JUMP JUMPDEST POP POP POP JUMP JUMPDEST JUMPDEST DUP2 DUP2 LT ISZERO PUSH3 0x409 JUMPI PUSH3 0x3FD PUSH0 DUP3 PUSH3 0x3CB JUMP JUMPDEST PUSH1 0x1 DUP2 ADD SWAP1 POP PUSH3 0x3E8 JUMP JUMPDEST POP POP JUMP JUMPDEST PUSH1 0x1F DUP3 GT ISZERO PUSH3 0x458 JUMPI PUSH3 0x422 DUP2 PUSH3 0x2D8 JUMP JUMPDEST PUSH3 0x42D DUP5 PUSH3 0x2EA JUMP JUMPDEST DUP2 ADD PUSH1 0x20 DUP6 LT ISZERO PUSH3 0x43D JUMPI DUP2 SWAP1 POP JUMPDEST PUSH3 0x455 PUSH3 0x44C DUP6 PUSH3 0x2EA JUMP JUMPDEST DUP4 ADD DUP3 PUSH3 0x3E7 JUMP JUMPDEST POP POP JUMPDEST POP POP POP JUMP JUMPDEST PUSH0 DUP3 DUP3 SHR SWAP1 POP SWAP3 SWAP2 POP POP JUMP JUMPDEST PUSH0 PUSH3 0x47A PUSH0 NOT DUP5 PUSH1 0x8 MUL PUSH3 0x45D JUMP JUMPDEST NOT DUP1 DUP4 AND SWAP2 POP POP SWAP3 SWAP2 POP POP JUMP JUMPDEST PUSH0 PUSH3 0x494 DUP4 DUP4 PUSH3 0x469 JUMP JUMPDEST SWAP2 POP DUP3 PUSH1 0x2 MUL DUP3 OR SWAP1 POP SWAP3 SWAP2 POP POP JUMP JUMPDEST PUSH3 0x4AF DUP3 PUSH3 0x26D JUMP JUMPDEST PUSH8 0xFFFFFFFFFFFFFFFF DUP2 GT ISZERO PUSH3 0x4CB JUMPI PUSH3 0x4CA PUSH3 0x8E JUMP JUMPDEST JUMPDEST PUSH3 0x4D7 DUP3 SLOAD PUSH3 0x2A4 JUMP JUMPDEST PUSH3 0x4E4 DUP3 DUP3 DUP6 PUSH3 0x40D JUMP JUMPDEST PUSH0 PUSH1 0x20 SWAP1 POP PUSH1 0x1F DUP4 GT PUSH1 0x1 DUP2 EQ PUSH3 0x51A JUMPI PUSH0 DUP5 ISZERO PUSH3 0x505 JUMPI DUP3 DUP8 ADD MLOAD SWAP1 POP JUMPDEST PUSH3 0x511 DUP6 DUP3 PUSH3 0x487 JUMP JUMPDEST DUP7 SSTORE POP PUSH3 0x580 JUMP JUMPDEST PUSH1 0x1F NOT DUP5 AND PUSH3 0x52A DUP7 PUSH3 0x2D8 JUMP JUMPDEST PUSH0 JUMPDEST DUP3 DUP2 LT ISZERO PUSH3 0x553 JUMPI DUP5 DUP10 ADD MLOAD DUP3 SSTORE PUSH1 0x1 DUP3 ADD SWAP2 POP PUSH1 0x20 DUP6 ADD SWAP5 POP PUSH1 0x20 DUP2 ADD SWAP1 POP PUSH3 0x52C JUMP JUMPDEST DUP7 DUP4 LT ISZERO PUSH3 0x573 JUMPI DUP5 DUP10 ADD MLOAD PUSH3 0x56F PUSH1 0x1F DUP10 AND DUP3 PUSH3 0x469 JUMP JUMPDEST DUP4 SSTORE POP JUMPDEST PUSH1 0x1 PUSH1 0x2 DUP9 MUL ADD DUP9 SSTORE POP POP POP JUMPDEST POP POP POP POP POP POP JUMP JUMPDEST PUSH2 0x1A44 DUP1 PUSH3 0x596 PUSH0 CODECOPY PUSH0 RETURN INVALID PUSH1 0x80 PUSH1 0x40 MSTORE CALLVALUE DUP1 ISZERO PUSH2 0xF JUMPI PUSH0 DUP1 REVERT JUMPDEST POP PUSH1 0x4 CALLDATASIZE LT PUSH2 0xE8 JUMPI PUSH0 CALLDATALOAD PUSH1 0xE0 SHR DUP1 PUSH4 0x70A08231 GT PUSH2 0x8A JUMPI DUP1 PUSH4 0xB88D4FDE GT PUSH2 0x64 JUMPI DUP1 PUSH4 0xB88D4FDE EQ PUSH2 0x258 JUMPI DUP1 PUSH4 0xC87B56DD EQ PUSH2 0x274 JUMPI DUP1 PUSH4 0xE985E9C5 EQ PUSH2 0x2A4 JUMPI DUP1 PUSH4 0xF2CEE92B EQ PUSH2 0x2D4 JUMPI PUSH2 0xE8 JUMP JUMPDEST DUP1 PUSH4 0x70A08231 EQ PUSH2 0x1EE JUMPI DUP1 PUSH4 0x95D89B41 EQ PUSH2 0x21E JUMPI DUP1 PUSH4 0xA22CB465 EQ PUSH2 0x23C JUMPI PUSH2 0xE8 JUMP JUMPDEST DUP1 PUSH4 0x95EA7B3 GT PUSH2 0xC6 JUMPI DUP1 PUSH4 0x95EA7B3 EQ PUSH2 0x16A JUMPI DUP1 PUSH4 0x23B872DD EQ PUSH2 0x186 JUMPI DUP1 PUSH4 0x42842E0E EQ PUSH2 0x1A2 JUMPI DUP1 PUSH4 0x6352211E EQ PUSH2 0x1BE JUMPI PUSH2 0xE8 JUMP JUMPDEST DUP1 PUSH4 0x1FFC9A7 EQ PUSH2 0xEC JUMPI DUP1 PUSH4 0x6FDDE03 EQ PUSH2 0x11C JUMPI DUP1 PUSH4 0x81812FC EQ PUSH2 0x13A JUMPI JUMPDEST PUSH0 DUP1 REVERT JUMPDEST PUSH2 0x106 PUSH1 0x4 DUP1 CALLDATASIZE SUB DUP2 ADD SWAP1 PUSH2 0x101 SWAP2 SWAP1 PUSH2 0x1331 JUMP JUMPDEST PUSH2 0x2F0 JUMP JUMPDEST PUSH1 0x40 MLOAD PUSH2 0x113 SWAP2 SWAP1 PUSH2 0x1376 JUMP JUMPDEST PUSH1 0x40 MLOAD DUP1 SWAP2 SUB SWAP1 RETURN JUMPDEST PUSH2 0x124 PUSH2 0x3D1 JUMP JUMPDEST PUSH1 0x40 MLOAD PUSH2 0x131 SWAP2 SWAP1 PUSH2 0x1419 JUMP JUMPDEST PUSH1 0x40 MLOAD DUP1 SWAP2 SUB SWAP1 RETURN JUMPDEST PUSH2 0x154 PUSH1 0x4 DUP1 CALLDATASIZE SUB DUP2 ADD SWAP1 PUSH2 0x14F SWAP2 SWAP1 PUSH2 0x146C JUMP JUMPDEST PUSH2 0x460 JUMP JUMPDEST PUSH1 0x40 MLOAD PUSH2 0x161 SWAP2 SWAP1 PUSH2 0x14D6 JUMP JUMPDEST PUSH1 0x40 MLOAD DUP1 SWAP2 SUB SWAP1 RETURN JUMPDEST PUSH2 0x184 PUSH1 0x4 DUP1 CALLDATASIZE SUB DUP2 ADD SWAP1 PUSH2 0x17F SWAP2 SWAP1 PUSH2 0x1519 JUMP JUMPDEST PUSH2 0x47B JUMP JUMPDEST STOP JUMPDEST PUSH2 0x1A0 PUSH1 0x4 DUP1 CALLDATASIZE SUB DUP2 ADD SWAP1 PUSH2 0x19B SWAP2 SWAP1 PUSH2 0x1557 JUMP JUMPDEST PUSH2 0x491 JUMP JUMPDEST STOP JUMPDEST PUSH2 0x1BC PUSH1 0x4 DUP1 CALLDATASIZE SUB DUP2 ADD SWAP1 PUSH2 0x1B7 SWAP2 SWAP1 PUSH2 0x1557 JUMP JUMPDEST PUSH2 0x590 JUMP JUMPDEST STOP JUMPDEST PUSH2 0x1D8 PUSH1 0x4 DUP1 CALLDATASIZE SUB DUP2 ADD SWAP1 PUSH2 0x1D3 SWAP2 SWAP1 PUSH2 0x146C JUMP JUMPDEST PUSH2 0x5AF JUMP JUMPDEST PUSH1 0x40 MLOAD PUSH2 0x1E5 SWAP2 SWAP1 PUSH2 0x14D6 JUMP JUMPDEST PUSH1 0x40 MLOAD DUP1 SWAP2 SUB SWAP1 RETURN JUMPDEST PUSH2 0x208 PUSH1 0x4 DUP1 CALLDATASIZE SUB DUP2 ADD SWAP1 PUSH2 0x203 SWAP2 SWAP1 PUSH2 0x15A7 JUMP JUMPDEST PUSH2 0x5C0 JUMP JUMPDEST PUSH1 0x40 MLOAD PUSH2 0x215 SWAP2 SWAP1 PUSH2 0x15E1 JUMP JUMPDEST PUSH1 0x40 MLOAD DUP1 SWAP2 SUB SWAP1 RETURN JUMPDEST PUSH2 0x226 PUSH2 0x676 JUMP JUMPDEST PUSH1 0x40 MLOAD PUSH2 0x233 SWAP2 SWAP1 PUSH2 0x1419 JUMP JUMPDEST PUSH1 0x40 MLOAD DUP1 SWAP2 SUB SWAP1 RETURN JUMPDEST PUSH2 0x256 PUSH1 0x4 DUP1 CALLDATASIZE SUB DUP2 ADD SWAP1 PUSH2 0x251 SWAP2 SWAP1 PUSH2 0x1624 JUMP JUMPDEST PUSH2 0x706 JUMP JUMPDEST STOP JUMPDEST PUSH2 0x272 PUSH1 0x4 DUP1 CALLDATASIZE SUB DUP2 ADD SWAP1 PUSH2 0x26D SWAP2 SWAP1 PUSH2 0x178E JUMP JUMPDEST PUSH2 0x71C JUMP JUMPDEST STOP JUMPDEST PUSH2 0x28E PUSH1 0x4 DUP1 CALLDATASIZE SUB DUP2 ADD SWAP1 PUSH2 0x289 SWAP2 SWAP1 PUSH2 0x146C JUMP JUMPDEST PUSH2 0x739 JUMP JUMPDEST PUSH1 0x40 MLOAD PUSH2 0x29B SWAP2 SWAP1 PUSH2 0x1419 JUMP JUMPDEST PUSH1 0x40 MLOAD DUP1 SWAP2 SUB SWAP1 RETURN JUMPDEST PUSH2 0x2BE PUSH1 0x4 DUP1 CALLDATASIZE SUB DUP2 ADD SWAP1 PUSH2 0x2B9 SWAP2 SWAP1 PUSH2 0x180E JUMP JUMPDEST PUSH2 0x75B JUMP JUMPDEST PUSH1 0x40 MLOAD PUSH2 0x2CB SWAP2 SWAP1 PUSH2 0x1376 JUMP JUMPDEST PUSH1 0x40 MLOAD DUP1 SWAP2 SUB SWAP1 RETURN JUMPDEST PUSH2 0x2EE PUSH1 0x4 DUP1 CALLDATASIZE SUB DUP2 ADD SWAP1 PUSH2 0x2E9 SWAP2 SWAP1 PUSH2 0x146C JUMP JUMPDEST PUSH2 0x7E9 JUMP JUMPDEST STOP JUMPDEST PUSH0 PUSH32 0x80AC58CD00000000000000000000000000000000000000000000000000000000 PUSH28 0xFFFFFFFFFFFFFFFFFFFFFFFFFFFFFFFFFFFFFFFFFFFFFFFFFFFFFFFF NOT AND DUP3 PUSH28 0xFFFFFFFFFFFFFFFFFFFFFFFFFFFFFFFFFFFFFFFFFFFFFFFFFFFFFFFF NOT AND EQ DUP1 PUSH2 0x3BA JUMPI POP PUSH32 0x5B5E139F00000000000000000000000000000000000000000000000000000000 PUSH28 0xFFFFFFFFFFFFFFFFFFFFFFFFFFFFFFFFFFFFFFFFFFFFFFFFFFFFFFFF NOT AND DUP3 PUSH28 0xFFFFFFFFFFFFFFFFFFFFFFFFFFFFFFFFFFFFFFFFFFFFFFFFFFFFFFFF NOT AND EQ JUMPDEST DUP1 PUSH2 0x3CA JUMPI POP PUSH2 0x3C9 DUP3 PUSH2 0x7F6 JUMP JUMPDEST JUMPDEST SWAP1 POP SWAP2 SWAP1 POP JUMP JUMPDEST PUSH1 0x60 PUSH0 DUP1 SLOAD PUSH2 0x3DF SWAP1 PUSH2 0x1879 JUMP JUMPDEST DUP1 PUSH1 0x1F ADD PUSH1 0x20 DUP1 SWAP2 DIV MUL PUSH1 0x20 ADD PUSH1 0x40 MLOAD SWAP1 DUP2 ADD PUSH1 0x40 MSTORE DUP1 SWAP3 SWAP2 SWAP1 DUP2 DUP2 MSTORE PUSH1 0x20 ADD DUP3 DUP1 SLOAD PUSH2 0x40B SWAP1 PUSH2 0x1879 JUMP JUMPDEST DUP1 ISZERO PUSH2 0x456 JUMPI DUP1 PUSH1 0x1F LT PUSH2 0x42D JUMPI PUSH2 0x100 DUP1 DUP4 SLOAD DIV MUL DUP4 MSTORE SWAP2 PUSH1 0x20 ADD SWAP2 PUSH2 0x456 JUMP JUMPDEST DUP3 ADD SWAP2 SWAP1 PUSH0 MSTORE PUSH1 0x20 PUSH0 KECCAK256 SWAP1 JUMPDEST DUP2 SLOAD DUP2 MSTORE SWAP1 PUSH1 0x1 ADD SWAP1 PUSH1 0x20 ADD DUP1 DUP4 GT PUSH2 0x439 JUMPI DUP3 SWAP1 SUB PUSH1 0x1F AND DUP3 ADD SWAP2 JUMPDEST POP POP POP POP POP SWAP1 POP SWAP1 JUMP JUMPDEST PUSH0 PUSH2 0x46A DUP3 PUSH2 0x85F JUMP JUMPDEST POP PUSH2 0x474 DUP3 PUSH2 0x8E5 JUMP JUMPDEST SWAP1 POP SWAP2 SWAP1 POP JUMP JUMPDEST PUSH2 0x48D DUP3 DUP3 PUSH2 0x488 PUSH2 0x91E JUMP JUMPDEST PUSH2 0x925 JUMP JUMPDEST POP POP JUMP JUMPDEST PUSH0 PUSH20 0xFFFFFFFFFFFFFFFFFFFFFFFFFFFFFFFFFFFFFFFF AND DUP3 PUSH20 0xFFFFFFFFFFFFFFFFFFFFFFFFFFFFFFFFFFFFFFFF AND SUB PUSH2 0x501 JUMPI PUSH0 PUSH1 0x40 MLOAD PUSH32 0x64A0AE9200000000000000000000000000000000000000000000000000000000 DUP2 MSTORE PUSH1 0x4 ADD PUSH2 0x4F8 SWAP2 SWAP1 PUSH2 0x14D6 JUMP JUMPDEST PUSH1 0x40 MLOAD DUP1 SWAP2 SUB SWAP1 REVERT JUMPDEST PUSH0 PUSH2 0x514 DUP4 DUP4 PUSH2 0x50F PUSH2 0x91E JUMP JUMPDEST PUSH2 0x937 JUMP JUMPDEST SWAP1 POP DUP4 PUSH20 0xFFFFFFFFFFFFFFFFFFFFFFFFFFFFFFFFFFFFFFFF AND DUP2 PUSH20 0xFFFFFFFFFFFFFFFFFFFFFFFFFFFFFFFFFFFFFFFF AND EQ PUSH2 0x58A JUMPI DUP4 DUP3 DUP3 PUSH1 0x40 MLOAD PUSH32 0x64283D7B00000000000000000000000000000000000000000000000000000000 DUP2 MSTORE PUSH1 0x4 ADD PUSH2 0x581 SWAP4 SWAP3 SWAP2 SWAP1 PUSH2 0x18A9 JUMP JUMPDEST PUSH1 0x40 MLOAD DUP1 SWAP2 SUB SWAP1 REVERT JUMPDEST POP POP POP POP JUMP JUMPDEST PUSH2 0x5AA DUP4 DUP4 DUP4 PUSH1 0x40 MLOAD DUP1 PUSH1 0x20 ADD PUSH1 0x40 MSTORE DUP1 PUSH0 DUP2 MSTORE POP PUSH2 0x71C JUMP JUMPDEST POP POP POP JUMP JUMPDEST PUSH0 PUSH2 0x5B9 DUP3 PUSH2 0x85F JUMP JUMPDEST SWAP1 POP SWAP2 SWAP1 POP JUMP JUMPDEST PUSH0 DUP1 PUSH20 0xFFFFFFFFFFFFFFFFFFFFFFFFFFFFFFFFFFFFFFFF AND DUP3 PUSH20 0xFFFFFFFFFFFFFFFFFFFFFFFFFFFFFFFFFFFFFFFF AND SUB PUSH2 0x631 JUMPI PUSH0 PUSH1 0x40 MLOAD PUSH32 0x89C62B6400000000000000000000000000000000000000000000000000000000 DUP2 MSTORE PUSH1 0x4 ADD PUSH2 0x628 SWAP2 SWAP1 PUSH2 0x14D6 JUMP JUMPDEST PUSH1 0x40 MLOAD DUP1 SWAP2 SUB SWAP1 REVERT JUMPDEST PUSH1 0x3 PUSH0 DUP4 PUSH20 0xFFFFFFFFFFFFFFFFFFFFFFFFFFFFFFFFFFFFFFFF AND PUSH20 0xFFFFFFFFFFFFFFFFFFFFFFFFFFFFFFFFFFFFFFFF AND DUP2 MSTORE PUSH1 0x20 ADD SWAP1 DUP2 MSTORE PUSH1 0x20 ADD PUSH0 KECCAK256 SLOAD SWAP1 POP SWAP2 SWAP1 POP JUMP JUMPDEST PUSH1 0x60 PUSH1 0x1 DUP1 SLOAD PUSH2 0x685 SWAP1 PUSH2 0x1879 JUMP JUMPDEST DUP1 PUSH1 0x1F ADD PUSH1 0x20 DUP1 SWAP2 DIV MUL PUSH1 0x20 ADD PUSH1 0x40 MLOAD SWAP1 DUP2 ADD PUSH1 0x40 MSTORE DUP1 SWAP3 SWAP2 SWAP1 DUP2 DUP2 MSTORE PUSH1 0x20 ADD DUP3 DUP1 SLOAD PUSH2 0x6B1 SWAP1 PUSH2 0x1879 JUMP JUMPDEST DUP1 ISZERO PUSH2 0x6FC JUMPI DUP1 PUSH1 0x1F LT PUSH2 0x6D3 JUMPI PUSH2 0x100 DUP1 DUP4 SLOAD DIV MUL DUP4 MSTORE SWAP2 PUSH1 0x20 ADD SWAP2 PUSH2 0x6FC JUMP JUMPDEST DUP3 ADD SWAP2 SWAP1 PUSH0 MSTORE PUSH1 0x20 PUSH0 KECCAK256 SWAP1 JUMPDEST DUP2 SLOAD DUP2 MSTORE SWAP1 PUSH1 0x1 ADD SWAP1 PUSH1 0x20 ADD DUP1 DUP4 GT PUSH2 0x6DF JUMPI DUP3 SWAP1 SUB PUSH1 0x1F AND DUP3 ADD SWAP2 JUMPDEST POP POP POP POP POP SWAP1 POP SWAP1 JUMP JUMPDEST PUSH2 0x718 PUSH2 0x711 PUSH2 0x91E JUMP JUMPDEST DUP4 DUP4 PUSH2 0xB42 JUMP JUMPDEST POP POP JUMP JUMPDEST PUSH2 0x727 DUP5 DUP5 DUP5 PUSH2 0x491 JUMP JUMPDEST PUSH2 0x733 DUP5 DUP5 DUP5 DUP5 PUSH2 0xCAB JUMP JUMPDEST POP POP POP POP JUMP JUMPDEST PUSH1 0x60 PUSH1 0x40 MLOAD DUP1 PUSH1 0x60 ADD PUSH1 0x40 MSTORE DUP1 PUSH1 0x2E DUP2 MSTORE PUSH1 0x20 ADD PUSH2 0x19E1 PUSH1 0x2E SWAP2 CODECOPY SWAP1 POP SWAP2 SWAP1 POP JUMP JUMPDEST PUSH0 PUSH1 0x5 PUSH0 DUP5 PUSH20 0xFFFFFFFFFFFFFFFFFFFFFFFFFFFFFFFFFFFFFFFF AND PUSH20 0xFFFFFFFFFFFFFFFFFFFFFFFFFFFFFFFFFFFFFFFF AND DUP2 MSTORE PUSH1 0x20 ADD SWAP1 DUP2 MSTORE PUSH1 0x20 ADD PUSH0 KECCAK256 PUSH0 DUP4 PUSH20 0xFFFFFFFFFFFFFFFFFFFFFFFFFFFFFFFFFFFFFFFF AND PUSH20 0xFFFFFFFFFFFFFFFFFFFFFFFFFFFFFFFFFFFFFFFF AND DUP2 MSTORE PUSH1 0x20 ADD SWAP1 DUP2 MSTORE PUSH1 0x20 ADD PUSH0 KECCAK256 PUSH0 SWAP1 SLOAD SWAP1 PUSH2 0x100 EXP SWAP1 DIV PUSH1 0xFF AND SWAP1 POP SWAP3 SWAP2 POP POP JUMP JUMPDEST PUSH2 0x7F3 CALLER DUP3 PUSH2 0xE5D JUMP JUMPDEST POP JUMP JUMPDEST PUSH0 PUSH32 0x1FFC9A700000000000000000000000000000000000000000000000000000000 PUSH28 0xFFFFFFFFFFFFFFFFFFFFFFFFFFFFFFFFFFFFFFFFFFFFFFFFFFFFFFFF NOT AND DUP3 PUSH28 0xFFFFFFFFFFFFFFFFFFFFFFFFFFFFFFFFFFFFFFFFFFFFFFFFFFFFFFFF NOT AND EQ SWAP1 POP SWAP2 SWAP1 POP JUMP JUMPDEST PUSH0 DUP1 PUSH2 0x86A DUP4 PUSH2 0xF50 JUMP JUMPDEST SWAP1 POP PUSH0 PUSH20 0xFFFFFFFFFFFFFFFFFFFFFFFFFFFFFFFFFFFFFFFF AND DUP2 PUSH20 0xFFFFFFFFFFFFFFFFFFFFFFFFFFFFFFFFFFFFFFFF AND SUB PUSH2 0x8DC JUMPI DUP3 PUSH1 0x40 MLOAD PUSH32 0x7E27328900000000000000000000000000000000000000000000000000000000 DUP2 MSTORE PUSH1 0x4 ADD PUSH2 0x8D3 SWAP2 SWAP1 PUSH2 0x15E1 JUMP JUMPDEST PUSH1 0x40 MLOAD DUP1 SWAP2 SUB SWAP1 REVERT JUMPDEST DUP1 SWAP2 POP POP SWAP2 SWAP1 POP JUMP JUMPDEST PUSH0 PUSH1 0x4 PUSH0 DUP4 DUP2 MSTORE PUSH1 0x20 ADD SWAP1 DUP2 MSTORE PUSH1 0x20 ADD PUSH0 KECCAK256 PUSH0 SWAP1 SLOAD SWAP1 PUSH2 0x100 EXP SWAP1 DIV PUSH20 0xFFFFFFFFFFFFFFFFFFFFFFFFFFFFFFFFFFFFFFFF AND SWAP1 POP SWAP2 SWAP1 POP JUMP JUMPDEST PUSH0 CALLER SWAP1 POP SWAP1 JUMP JUMPDEST PUSH2 0x932 DUP4 DUP4 DUP4 PUSH1 0x1 PUSH2 0xF89 JUMP JUMPDEST POP POP POP JUMP JUMPDEST PUSH0 DUP1 PUSH2 0x942 DUP5 PUSH2 0xF50 JUMP JUMPDEST SWAP1 POP PUSH0 PUSH20 0xFFFFFFFFFFFFFFFFFFFFFFFFFFFFFFFFFFFFFFFF AND DUP4 PUSH20 0xFFFFFFFFFFFFFFFFFFFFFFFFFFFFFFFFFFFFFFFF AND EQ PUSH2 0x983 JUMPI PUSH2 0x982 DUP2 DUP5 DUP7 PUSH2 0x1148 JUMP JUMPDEST JUMPDEST PUSH0 PUSH20 0xFFFFFFFFFFFFFFFFFFFFFFFFFFFFFFFFFFFFFFFF AND DUP2 PUSH20 0xFFFFFFFFFFFFFFFFFFFFFFFFFFFFFFFFFFFFFFFF AND EQ PUSH2 0xA0E JUMPI PUSH2 0x9C2 PUSH0 DUP6 PUSH0 DUP1 PUSH2 0xF89 JUMP JUMPDEST PUSH1 0x1 PUSH1 0x3 PUSH0 DUP4 PUSH20 0xFFFFFFFFFFFFFFFFFFFFFFFFFFFFFFFFFFFFFFFF AND PUSH20 0xFFFFFFFFFFFFFFFFFFFFFFFFFFFFFFFFFFFFFFFF AND DUP2 MSTORE PUSH1 0x20 ADD SWAP1 DUP2 MSTORE PUSH1 0x20 ADD PUSH0 KECCAK256 PUSH0 DUP3 DUP3 SLOAD SUB SWAP3 POP POP DUP2 SWAP1 SSTORE POP JUMPDEST PUSH0 PUSH20 0xFFFFFFFFFFFFFFFFFFFFFFFFFFFFFFFFFFFFFFFF AND DUP6 PUSH20 0xFFFFFFFFFFFFFFFFFFFFFFFFFFFFFFFFFFFFFFFF AND EQ PUSH2 0xA8D JUMPI PUSH1 0x1 PUSH1 0x3 PUSH0 DUP8 PUSH20 0xFFFFFFFFFFFFFFFFFFFFFFFFFFFFFFFFFFFFFFFF AND PUSH20 0xFFFFFFFFFFFFFFFFFFFFFFFFFFFFFFFFFFFFFFFF AND DUP2 MSTORE PUSH1 0x20 ADD SWAP1 DUP2 MSTORE PUSH1 0x20 ADD PUSH0 KECCAK256 PUSH0 DUP3 DUP3 SLOAD ADD SWAP3 POP POP DUP2 SWAP1 SSTORE POP JUMPDEST DUP5 PUSH1 0x2 PUSH0 DUP7 DUP2 MSTORE PUSH1 0x20 ADD SWAP1 DUP2 MSTORE PUSH1 0x20 ADD PUSH0 KECCAK256 PUSH0 PUSH2 0x100 EXP DUP2 SLOAD DUP2 PUSH20 0xFFFFFFFFFFFFFFFFFFFFFFFFFFFFFFFFFFFFFFFF MUL NOT AND SWAP1 DUP4 PUSH20 0xFFFFFFFFFFFFFFFFFFFFFFFFFFFFFFFFFFFFFFFF AND MUL OR SWAP1 SSTORE POP DUP4 DUP6 PUSH20 0xFFFFFFFFFFFFFFFFFFFFFFFFFFFFFFFFFFFFFFFF AND DUP3 PUSH20 0xFFFFFFFFFFFFFFFFFFFFFFFFFFFFFFFFFFFFFFFF AND PUSH32 0xDDF252AD1BE2C89B69C2B068FC378DAA952BA7F163C4A11628F55A4DF523B3EF PUSH1 0x40 MLOAD PUSH1 0x40 MLOAD DUP1 SWAP2 SUB SWAP1 LOG4 DUP1 SWAP2 POP POP SWAP4 SWAP3 POP POP POP JUMP JUMPDEST PUSH0 PUSH20 0xFFFFFFFFFFFFFFFFFFFFFFFFFFFFFFFFFFFFFFFF AND DUP3 PUSH20 0xFFFFFFFFFFFFFFFFFFFFFFFFFFFFFFFFFFFFFFFF AND SUB PUSH2 0xBB2 JUMPI DUP2 PUSH1 0x40 MLOAD PUSH32 0x5B08BA1800000000000000000000000000000000000000000000000000000000 DUP2 MSTORE PUSH1 0x4 ADD PUSH2 0xBA9 SWAP2 SWAP1 PUSH2 0x14D6 JUMP JUMPDEST PUSH1 0x40 MLOAD DUP1 SWAP2 SUB SWAP1 REVERT JUMPDEST DUP1 PUSH1 0x5 PUSH0 DUP6 PUSH20 0xFFFFFFFFFFFFFFFFFFFFFFFFFFFFFFFFFFFFFFFF AND PUSH20 0xFFFFFFFFFFFFFFFFFFFFFFFFFFFFFFFFFFFFFFFF AND DUP2 MSTORE PUSH1 0x20 ADD SWAP1 DUP2 MSTORE PUSH1 0x20 ADD PUSH0 KECCAK256 PUSH0 DUP5 PUSH20 0xFFFFFFFFFFFFFFFFFFFFFFFFFFFFFFFFFFFFFFFF AND PUSH20 0xFFFFFFFFFFFFFFFFFFFFFFFFFFFFFFFFFFFFFFFF AND DUP2 MSTORE PUSH1 0x20 ADD SWAP1 DUP2 MSTORE PUSH1 0x20 ADD PUSH0 KECCAK256 PUSH0 PUSH2 0x100 EXP DUP2 SLOAD DUP2 PUSH1 0xFF MUL NOT AND SWAP1 DUP4 ISZERO ISZERO MUL OR SWAP1 SSTORE POP DUP2 PUSH20 0xFFFFFFFFFFFFFFFFFFFFFFFFFFFFFFFFFFFFFFFF AND DUP4 PUSH20 0xFFFFFFFFFFFFFFFFFFFFFFFFFFFFFFFFFFFFFFFF AND PUSH32 0x17307EAB39AB6107E8899845AD3D59BD9653F200F220920489CA2B5937696C31 DUP4 PUSH1 0x40 MLOAD PUSH2 0xC9E SWAP2 SWAP1 PUSH2 0x1376 JUMP JUMPDEST PUSH1 0x40 MLOAD DUP1 SWAP2 SUB SWAP1 LOG3 POP POP POP JUMP JUMPDEST PUSH0 DUP4 PUSH20 0xFFFFFFFFFFFFFFFFFFFFFFFFFFFFFFFFFFFFFFFF AND EXTCODESIZE GT ISZERO PUSH2 0xE57 JUMPI DUP3 PUSH20 0xFFFFFFFFFFFFFFFFFFFFFFFFFFFFFFFFFFFFFFFF AND PUSH4 0x150B7A02 PUSH2 0xCEE PUSH2 0x91E JUMP JUMPDEST DUP7 DUP6 DUP6 PUSH1 0x40 MLOAD DUP6 PUSH4 0xFFFFFFFF AND PUSH1 0xE0 SHL DUP2 MSTORE PUSH1 0x4 ADD PUSH2 0xD10 SWAP5 SWAP4 SWAP3 SWAP2 SWAP1 PUSH2 0x1930 JUMP JUMPDEST PUSH1 0x20 PUSH1 0x40 MLOAD DUP1 DUP4 SUB DUP2 PUSH0 DUP8 GAS CALL SWAP3 POP POP POP DUP1 ISZERO PUSH2 0xD4B JUMPI POP PUSH1 0x40 MLOAD RETURNDATASIZE PUSH1 0x1F NOT PUSH1 0x1F DUP3 ADD AND DUP3 ADD DUP1 PUSH1 0x40 MSTORE POP DUP2 ADD SWAP1 PUSH2 0xD48 SWAP2 SWAP1 PUSH2 0x198E JUMP JUMPDEST PUSH1 0x1 JUMPDEST PUSH2 0xDCC JUMPI RETURNDATASIZE DUP1 PUSH0 DUP2 EQ PUSH2 0xD79 JUMPI PUSH1 0x40 MLOAD SWAP2 POP PUSH1 0x1F NOT PUSH1 0x3F RETURNDATASIZE ADD AND DUP3 ADD PUSH1 0x40 MSTORE RETURNDATASIZE DUP3 MSTORE RETURNDATASIZE PUSH0 PUSH1 0x20 DUP5 ADD RETURNDATACOPY PUSH2 0xD7E JUMP JUMPDEST PUSH1 0x60 SWAP2 POP JUMPDEST POP PUSH0 DUP2 MLOAD SUB PUSH2 0xDC4 JUMPI DUP4 PUSH1 0x40 MLOAD PUSH32 0x64A0AE9200000000000000000000000000000000000000000000000000000000 DUP2 MSTORE PUSH1 0x4 ADD PUSH2 0xDBB SWAP2 SWAP1 PUSH2 0x14D6 JUMP JUMPDEST PUSH1 0x40 MLOAD DUP1 SWAP2 SUB SWAP1 REVERT JUMPDEST DUP1 MLOAD DUP2 PUSH1 0x20 ADD REVERT JUMPDEST PUSH4 0x150B7A02 PUSH1 0xE0 SHL PUSH28 0xFFFFFFFFFFFFFFFFFFFFFFFFFFFFFFFFFFFFFFFFFFFFFFFFFFFFFFFF NOT AND DUP2 PUSH28 0xFFFFFFFFFFFFFFFFFFFFFFFFFFFFFFFFFFFFFFFFFFFFFFFFFFFFFFFF NOT AND EQ PUSH2 0xE55 JUMPI DUP4 PUSH1 0x40 MLOAD PUSH32 0x64A0AE9200000000000000000000000000000000000000000000000000000000 DUP2 MSTORE PUSH1 0x4 ADD PUSH2 0xE4C SWAP2 SWAP1 PUSH2 0x14D6 JUMP JUMPDEST PUSH1 0x40 MLOAD DUP1 SWAP2 SUB SWAP1 REVERT JUMPDEST POP JUMPDEST POP POP POP POP JUMP JUMPDEST PUSH0 PUSH20 0xFFFFFFFFFFFFFFFFFFFFFFFFFFFFFFFFFFFFFFFF AND DUP3 PUSH20 0xFFFFFFFFFFFFFFFFFFFFFFFFFFFFFFFFFFFFFFFF AND SUB PUSH2 0xECD JUMPI PUSH0 PUSH1 0x40 MLOAD PUSH32 0x64A0AE9200000000000000000000000000000000000000000000000000000000 DUP2 MSTORE PUSH1 0x4 ADD PUSH2 0xEC4 SWAP2 SWAP1 PUSH2 0x14D6 JUMP JUMPDEST PUSH1 0x40 MLOAD DUP1 SWAP2 SUB SWAP1 REVERT JUMPDEST PUSH0 PUSH2 0xED9 DUP4 DUP4 PUSH0 PUSH2 0x937 JUMP JUMPDEST SWAP1 POP PUSH0 PUSH20 0xFFFFFFFFFFFFFFFFFFFFFFFFFFFFFFFFFFFFFFFF AND DUP2 PUSH20 0xFFFFFFFFFFFFFFFFFFFFFFFFFFFFFFFFFFFFFFFF AND EQ PUSH2 0xF4B JUMPI PUSH0 PUSH1 0x40 MLOAD PUSH32 0x73C6AC6E00000000000000000000000000000000000000000000000000000000 DUP2 MSTORE PUSH1 0x4 ADD PUSH2 0xF42 SWAP2 SWAP1 PUSH2 0x14D6 JUMP JUMPDEST PUSH1 0x40 MLOAD DUP1 SWAP2 SUB SWAP1 REVERT JUMPDEST POP POP POP JUMP JUMPDEST PUSH0 PUSH1 0x2 PUSH0 DUP4 DUP2 MSTORE PUSH1 0x20 ADD SWAP1 DUP2 MSTORE PUSH1 0x20 ADD PUSH0 KECCAK256 PUSH0 SWAP1 SLOAD SWAP1 PUSH2 0x100 EXP SWAP1 DIV PUSH20 0xFFFFFFFFFFFFFFFFFFFFFFFFFFFFFFFFFFFFFFFF AND SWAP1 POP SWAP2 SWAP1 POP JUMP JUMPDEST DUP1 DUP1 PUSH2 0xFC1 JUMPI POP PUSH0 PUSH20 0xFFFFFFFFFFFFFFFFFFFFFFFFFFFFFFFFFFFFFFFF AND DUP3 PUSH20 0xFFFFFFFFFFFFFFFFFFFFFFFFFFFFFFFFFFFFFFFF AND EQ ISZERO JUMPDEST ISZERO PUSH2 0x10F3 JUMPI PUSH0 PUSH2 0xFD0 DUP5 PUSH2 0x85F JUMP JUMPDEST SWAP1 POP PUSH0 PUSH20 0xFFFFFFFFFFFFFFFFFFFFFFFFFFFFFFFFFFFFFFFF AND DUP4 PUSH20 0xFFFFFFFFFFFFFFFFFFFFFFFFFFFFFFFFFFFFFFFF AND EQ ISZERO DUP1 ISZERO PUSH2 0x103A JUMPI POP DUP3 PUSH20 0xFFFFFFFFFFFFFFFFFFFFFFFFFFFFFFFFFFFFFFFF AND DUP2 PUSH20 0xFFFFFFFFFFFFFFFFFFFFFFFFFFFFFFFFFFFFFFFF AND EQ ISZERO JUMPDEST DUP1 ISZERO PUSH2 0x104D JUMPI POP PUSH2 0x104B DUP2 DUP5 PUSH2 0x75B JUMP JUMPDEST ISZERO JUMPDEST ISZERO PUSH2 0x108F JUMPI DUP3 PUSH1 0x40 MLOAD PUSH32 0xA9FBF51F00000000000000000000000000000000000000000000000000000000 DUP2 MSTORE PUSH1 0x4 ADD PUSH2 0x1086 SWAP2 SWAP1 PUSH2 0x14D6 JUMP JUMPDEST PUSH1 0x40 MLOAD DUP1 SWAP2 SUB SWAP1 REVERT JUMPDEST DUP2 ISZERO PUSH2 0x10F1 JUMPI DUP4 DUP6 PUSH20 0xFFFFFFFFFFFFFFFFFFFFFFFFFFFFFFFFFFFFFFFF AND DUP3 PUSH20 0xFFFFFFFFFFFFFFFFFFFFFFFFFFFFFFFFFFFFFFFF AND PUSH32 0x8C5BE1E5EBEC7D5BD14F71427D1E84F3DD0314C0F7B2291E5B200AC8C7C3B925 PUSH1 0x40 MLOAD PUSH1 0x40 MLOAD DUP1 SWAP2 SUB SWAP1 LOG4 JUMPDEST POP JUMPDEST DUP4 PUSH1 0x4 PUSH0 DUP6 DUP2 MSTORE PUSH1 0x20 ADD SWAP1 DUP2 MSTORE PUSH1 0x20 ADD PUSH0 KECCAK256 PUSH0 PUSH2 0x100 EXP DUP2 SLOAD DUP2 PUSH20 0xFFFFFFFFFFFFFFFFFFFFFFFFFFFFFFFFFFFFFFFF MUL NOT AND SWAP1 DUP4 PUSH20 0xFFFFFFFFFFFFFFFFFFFFFFFFFFFFFFFFFFFFFFFF AND MUL OR SWAP1 SSTORE POP POP POP POP POP JUMP JUMPDEST PUSH2 0x1153 DUP4 DUP4 DUP4 PUSH2 0x120B JUMP JUMPDEST PUSH2 0x1206 JUMPI PUSH0 PUSH20 0xFFFFFFFFFFFFFFFFFFFFFFFFFFFFFFFFFFFFFFFF AND DUP4 PUSH20 0xFFFFFFFFFFFFFFFFFFFFFFFFFFFFFFFFFFFFFFFF AND SUB PUSH2 0x11C7 JUMPI DUP1 PUSH1 0x40 MLOAD PUSH32 0x7E27328900000000000000000000000000000000000000000000000000000000 DUP2 MSTORE PUSH1 0x4 ADD PUSH2 0x11BE SWAP2 SWAP1 PUSH2 0x15E1 JUMP JUMPDEST PUSH1 0x40 MLOAD DUP1 SWAP2 SUB SWAP1 REVERT JUMPDEST DUP2 DUP2 PUSH1 0x40 MLOAD PUSH32 0x177E802F00000000000000000000000000000000000000000000000000000000 DUP2 MSTORE PUSH1 0x4 ADD PUSH2 0x11FD SWAP3 SWAP2 SWAP1 PUSH2 0x19B9 JUMP JUMPDEST PUSH1 0x40 MLOAD DUP1 SWAP2 SUB SWAP1 REVERT JUMPDEST POP POP POP JUMP JUMPDEST PUSH0 DUP1 PUSH20 0xFFFFFFFFFFFFFFFFFFFFFFFFFFFFFFFFFFFFFFFF AND DUP4 PUSH20 0xFFFFFFFFFFFFFFFFFFFFFFFFFFFFFFFFFFFFFFFF AND EQ ISZERO DUP1 ISZERO PUSH2 0x12C2 JUMPI POP DUP3 PUSH20 0xFFFFFFFFFFFFFFFFFFFFFFFFFFFFFFFFFFFFFFFF AND DUP5 PUSH20 0xFFFFFFFFFFFFFFFFFFFFFFFFFFFFFFFFFFFFFFFF AND EQ DUP1 PUSH2 0x1283 JUMPI POP PUSH2 0x1282 DUP5 DUP5 PUSH2 0x75B JUMP JUMPDEST JUMPDEST DUP1 PUSH2 0x12C1 JUMPI POP DUP3 PUSH20 0xFFFFFFFFFFFFFFFFFFFFFFFFFFFFFFFFFFFFFFFF AND PUSH2 0x12A9 DUP4 PUSH2 0x8E5 JUMP JUMPDEST PUSH20 0xFFFFFFFFFFFFFFFFFFFFFFFFFFFFFFFFFFFFFFFF AND EQ JUMPDEST JUMPDEST SWAP1 POP SWAP4 SWAP3 POP POP POP JUMP JUMPDEST PUSH0 PUSH1 0x40 MLOAD SWAP1 POP SWAP1 JUMP JUMPDEST PUSH0 DUP1 REVERT JUMPDEST PUSH0 DUP1 REVERT JUMPDEST PUSH0 PUSH32 0xFFFFFFFF00000000000000000000000000000000000000000000000000000000 DUP3 AND SWAP1 POP SWAP2 SWAP1 POP JUMP JUMPDEST PUSH2 0x1310 DUP2 PUSH2 0x12DC JUMP JUMPDEST DUP2 EQ PUSH2 0x131A JUMPI PUSH0 DUP1 REVERT JUMPDEST POP JUMP JUMPDEST PUSH0 DUP2 CALLDATALOAD SWAP1 POP PUSH2 0x132B DUP2 PUSH2 0x1307 JUMP JUMPDEST SWAP3 SWAP2 POP POP JUMP JUMPDEST PUSH0 PUSH1 0x20 DUP3 DUP5 SUB SLT ISZERO PUSH2 0x1346 JUMPI PUSH2 0x1345 PUSH2 0x12D4 JUMP JUMPDEST JUMPDEST PUSH0 PUSH2 0x1353 DUP5 DUP3 DUP6 ADD PUSH2 0x131D JUMP JUMPDEST SWAP2 POP POP SWAP3 SWAP2 POP POP JUMP JUMPDEST PUSH0 DUP2 ISZERO ISZERO SWAP1 POP SWAP2 SWAP1 POP JUMP JUMPDEST PUSH2 0x1370 DUP2 PUSH2 0x135C JUMP JUMPDEST DUP3 MSTORE POP POP JUMP JUMPDEST PUSH0 PUSH1 0x20 DUP3 ADD SWAP1 POP PUSH2 0x1389 PUSH0 DUP4 ADD DUP5 PUSH2 0x1367 JUMP JUMPDEST SWAP3 SWAP2 POP POP JUMP JUMPDEST PUSH0 DUP2 MLOAD SWAP1 POP SWAP2 SWAP1 POP JUMP JUMPDEST PUSH0 DUP3 DUP3 MSTORE PUSH1 0x20 DUP3 ADD SWAP1 POP SWAP3 SWAP2 POP POP JUMP JUMPDEST PUSH0 JUMPDEST DUP4 DUP2 LT ISZERO PUSH2 0x13C6 JUMPI DUP1 DUP3 ADD MLOAD DUP2 DUP5 ADD MSTORE PUSH1 0x20 DUP2 ADD SWAP1 POP PUSH2 0x13AB JUMP JUMPDEST PUSH0 DUP5 DUP5 ADD MSTORE POP POP POP POP JUMP JUMPDEST PUSH0 PUSH1 0x1F NOT PUSH1 0x1F DUP4 ADD AND SWAP1 POP SWAP2 SWAP1 POP JUMP JUMPDEST PUSH0 PUSH2 0x13EB DUP3 PUSH2 0x138F JUMP JUMPDEST PUSH2 0x13F5 DUP2 DUP6 PUSH2 0x1399 JUMP JUMPDEST SWAP4 POP PUSH2 0x1405 DUP2 DUP6 PUSH1 0x20 DUP7 ADD PUSH2 0x13A9 JUMP JUMPDEST PUSH2 0x140E DUP2 PUSH2 0x13D1 JUMP JUMPDEST DUP5 ADD SWAP2 POP POP SWAP3 SWAP2 POP POP JUMP JUMPDEST PUSH0 PUSH1 0x20 DUP3 ADD SWAP1 POP DUP2 DUP2 SUB PUSH0 DUP4 ADD MSTORE PUSH2 0x1431 DUP2 DUP5 PUSH2 0x13E1 JUMP JUMPDEST SWAP1 POP SWAP3 SWAP2 POP POP JUMP JUMPDEST PUSH0 DUP2 SWAP1 POP SWAP2 SWAP1 POP JUMP JUMPDEST PUSH2 0x144B DUP2 PUSH2 0x1439 JUMP JUMPDEST DUP2 EQ PUSH2 0x1455 JUMPI PUSH0 DUP1 REVERT JUMPDEST POP JUMP JUMPDEST PUSH0 DUP2 CALLDATALOAD SWAP1 POP PUSH2 0x1466 DUP2 PUSH2 0x1442 JUMP JUMPDEST SWAP3 SWAP2 POP POP JUMP JUMPDEST PUSH0 PUSH1 0x20 DUP3 DUP5 SUB SLT ISZERO PUSH2 0x1481 JUMPI PUSH2 0x1480 PUSH2 0x12D4 JUMP JUMPDEST JUMPDEST PUSH0 PUSH2 0x148E DUP5 DUP3 DUP6 ADD PUSH2 0x1458 JUMP JUMPDEST SWAP2 POP POP SWAP3 SWAP2 POP POP JUMP JUMPDEST PUSH0 PUSH20 0xFFFFFFFFFFFFFFFFFFFFFFFFFFFFFFFFFFFFFFFF DUP3 AND SWAP1 POP SWAP2 SWAP1 POP JUMP JUMPDEST PUSH0 PUSH2 0x14C0 DUP3 PUSH2 0x1497 JUMP JUMPDEST SWAP1 POP SWAP2 SWAP1 POP JUMP JUMPDEST PUSH2 0x14D0 DUP2 PUSH2 0x14B6 JUMP JUMPDEST DUP3 MSTORE POP POP JUMP JUMPDEST PUSH0 PUSH1 0x20 DUP3 ADD SWAP1 POP PUSH2 0x14E9 PUSH0 DUP4 ADD DUP5 PUSH2 0x14C7 JUMP JUMPDEST SWAP3 SWAP2 POP POP JUMP JUMPDEST PUSH2 0x14F8 DUP2 PUSH2 0x14B6 JUMP JUMPDEST DUP2 EQ PUSH2 0x1502 JUMPI PUSH0 DUP1 REVERT JUMPDEST POP JUMP JUMPDEST PUSH0 DUP2 CALLDATALOAD SWAP1 POP PUSH2 0x1513 DUP2 PUSH2 0x14EF JUMP JUMPDEST SWAP3 SWAP2 POP POP JUMP JUMPDEST PUSH0 DUP1 PUSH1 0x40 DUP4 DUP6 SUB SLT ISZERO PUSH2 0x152F JUMPI PUSH2 0x152E PUSH2 0x12D4 JUMP JUMPDEST JUMPDEST PUSH0 PUSH2 0x153C DUP6 DUP3 DUP7 ADD PUSH2 0x1505 JUMP JUMPDEST SWAP3 POP POP PUSH1 0x20 PUSH2 0x154D DUP6 DUP3 DUP7 ADD PUSH2 0x1458 JUMP JUMPDEST SWAP2 POP POP SWAP3 POP SWAP3 SWAP1 POP JUMP JUMPDEST PUSH0 DUP1 PUSH0 PUSH1 0x60 DUP5 DUP7 SUB SLT ISZERO PUSH2 0x156E JUMPI PUSH2 0x156D PUSH2 0x12D4 JUMP JUMPDEST JUMPDEST PUSH0 PUSH2 0x157B DUP7 DUP3 DUP8 ADD PUSH2 0x1505 JUMP JUMPDEST SWAP4 POP POP PUSH1 0x20 PUSH2 0x158C DUP7 DUP3 DUP8 ADD PUSH2 0x1505 JUMP JUMPDEST SWAP3 POP POP PUSH1 0x40 PUSH2 0x159D DUP7 DUP3 DUP8 ADD PUSH2 0x1458 JUMP JUMPDEST SWAP2 POP POP SWAP3 POP SWAP3 POP SWAP3 JUMP JUMPDEST PUSH0 PUSH1 0x20 DUP3 DUP5 SUB SLT ISZERO PUSH2 0x15BC JUMPI PUSH2 0x15BB PUSH2 0x12D4 JUMP JUMPDEST JUMPDEST PUSH0 PUSH2 0x15C9 DUP5 DUP3 DUP6 ADD PUSH2 0x1505 JUMP JUMPDEST SWAP2 POP POP SWAP3 SWAP2 POP POP JUMP JUMPDEST PUSH2 0x15DB DUP2 PUSH2 0x1439 JUMP JUMPDEST DUP3 MSTORE POP POP JUMP JUMPDEST PUSH0 PUSH1 0x20 DUP3 ADD SWAP1 POP PUSH2 0x15F4 PUSH0 DUP4 ADD DUP5 PUSH2 0x15D2 JUMP JUMPDEST SWAP3 SWAP2 POP POP JUMP JUMPDEST PUSH2 0x1603 DUP2 PUSH2 0x135C JUMP JUMPDEST DUP2 EQ PUSH2 0x160D JUMPI PUSH0 DUP1 REVERT JUMPDEST POP JUMP JUMPDEST PUSH0 DUP2 CALLDATALOAD SWAP1 POP PUSH2 0x161E DUP2 PUSH2 0x15FA JUMP JUMPDEST SWAP3 SWAP2 POP POP JUMP JUMPDEST PUSH0 DUP1 PUSH1 0x40 DUP4 DUP6 SUB SLT ISZERO PUSH2 0x163A JUMPI PUSH2 0x1639 PUSH2 0x12D4 JUMP JUMPDEST JUMPDEST PUSH0 PUSH2 0x1647 DUP6 DUP3 DUP7 ADD PUSH2 0x1505 JUMP JUMPDEST SWAP3 POP POP PUSH1 0x20 PUSH2 0x1658 DUP6 DUP3 DUP7 ADD PUSH2 0x1610 JUMP JUMPDEST SWAP2 POP POP SWAP3 POP SWAP3 SWAP1 POP JUMP JUMPDEST PUSH0 DUP1 REVERT JUMPDEST PUSH0 DUP1 REVERT JUMPDEST PUSH32 0x4E487B7100000000000000000000000000000000000000000000000000000000 PUSH0 MSTORE PUSH1 0x41 PUSH1 0x4 MSTORE PUSH1 0x24 PUSH0 REVERT JUMPDEST PUSH2 0x16A0 DUP3 PUSH2 0x13D1 JUMP JUMPDEST DUP2 ADD DUP2 DUP2 LT PUSH8 0xFFFFFFFFFFFFFFFF DUP3 GT OR ISZERO PUSH2 0x16BF JUMPI PUSH2 0x16BE PUSH2 0x166A JUMP JUMPDEST JUMPDEST DUP1 PUSH1 0x40 MSTORE POP POP POP JUMP JUMPDEST PUSH0 PUSH2 0x16D1 PUSH2 0x12CB JUMP JUMPDEST SWAP1 POP PUSH2 0x16DD DUP3 DUP3 PUSH2 0x1697 JUMP JUMPDEST SWAP2 SWAP1 POP JUMP JUMPDEST PUSH0 PUSH8 0xFFFFFFFFFFFFFFFF DUP3 GT ISZERO PUSH2 0x16FC JUMPI PUSH2 0x16FB PUSH2 0x166A JUMP JUMPDEST JUMPDEST PUSH2 0x1705 DUP3 PUSH2 0x13D1 JUMP JUMPDEST SWAP1 POP PUSH1 0x20 DUP2 ADD SWAP1 POP SWAP2 SWAP1 POP JUMP JUMPDEST DUP3 DUP2 DUP4 CALLDATACOPY PUSH0 DUP4 DUP4 ADD MSTORE POP POP POP JUMP JUMPDEST PUSH0 PUSH2 0x1732 PUSH2 0x172D DUP5 PUSH2 0x16E2 JUMP JUMPDEST PUSH2 0x16C8 JUMP JUMPDEST SWAP1 POP DUP3 DUP2 MSTORE PUSH1 0x20 DUP2 ADD DUP5 DUP5 DUP5 ADD GT ISZERO PUSH2 0x174E JUMPI PUSH2 0x174D PUSH2 0x1666 JUMP JUMPDEST JUMPDEST PUSH2 0x1759 DUP5 DUP3 DUP6 PUSH2 0x1712 JUMP JUMPDEST POP SWAP4 SWAP3 POP POP POP JUMP JUMPDEST PUSH0 DUP3 PUSH1 0x1F DUP4 ADD SLT PUSH2 0x1775 JUMPI PUSH2 0x1774 PUSH2 0x1662 JUMP JUMPDEST JUMPDEST DUP2 CALLDATALOAD PUSH2 0x1785 DUP5 DUP3 PUSH1 0x20 DUP7 ADD PUSH2 0x1720 JUMP JUMPDEST SWAP2 POP POP SWAP3 SWAP2 POP POP JUMP JUMPDEST PUSH0 DUP1 PUSH0 DUP1 PUSH1 0x80 DUP6 DUP8 SUB SLT ISZERO PUSH2 0x17A6 JUMPI PUSH2 0x17A5 PUSH2 0x12D4 JUMP JUMPDEST JUMPDEST PUSH0 PUSH2 0x17B3 DUP8 DUP3 DUP9 ADD PUSH2 0x1505 JUMP JUMPDEST SWAP5 POP POP PUSH1 0x20 PUSH2 0x17C4 DUP8 DUP3 DUP9 ADD PUSH2 0x1505 JUMP JUMPDEST SWAP4 POP POP PUSH1 0x40 PUSH2 0x17D5 DUP8 DUP3 DUP9 ADD PUSH2 0x1458 JUMP JUMPDEST SWAP3 POP POP PUSH1 0x60 DUP6 ADD CALLDATALOAD PUSH8 0xFFFFFFFFFFFFFFFF DUP2 GT ISZERO PUSH2 0x17F6 JUMPI PUSH2 0x17F5 PUSH2 0x12D8 JUMP JUMPDEST JUMPDEST PUSH2 0x1802 DUP8 DUP3 DUP9 ADD PUSH2 0x1761 JUMP JUMPDEST SWAP2 POP POP SWAP3 SWAP6 SWAP2 SWAP5 POP SWAP3 POP JUMP JUMPDEST PUSH0 DUP1 PUSH1 0x40 DUP4 DUP6 SUB SLT ISZERO PUSH2 0x1824 JUMPI PUSH2 0x1823 PUSH2 0x12D4 JUMP JUMPDEST JUMPDEST PUSH0 PUSH2 0x1831 DUP6 DUP3 DUP7 ADD PUSH2 0x1505 JUMP JUMPDEST SWAP3 POP POP PUSH1 0x20 PUSH2 0x1842 DUP6 DUP3 DUP7 ADD PUSH2 0x1505 JUMP JUMPDEST SWAP2 POP POP SWAP3 POP SWAP3 SWAP1 POP JUMP JUMPDEST PUSH32 0x4E487B7100000000000000000000000000000000000000000000000000000000 PUSH0 MSTORE PUSH1 0x22 PUSH1 0x4 MSTORE PUSH1 0x24 PUSH0 REVERT JUMPDEST PUSH0 PUSH1 0x2 DUP3 DIV SWAP1 POP PUSH1 0x1 DUP3 AND DUP1 PUSH2 0x1890 JUMPI PUSH1 0x7F DUP3 AND SWAP2 POP JUMPDEST PUSH1 0x20 DUP3 LT DUP2 SUB PUSH2 0x18A3 JUMPI PUSH2 0x18A2 PUSH2 0x184C JUMP JUMPDEST JUMPDEST POP SWAP2 SWAP1 POP JUMP JUMPDEST PUSH0 PUSH1 0x60 DUP3 ADD SWAP1 POP PUSH2 0x18BC PUSH0 DUP4 ADD DUP7 PUSH2 0x14C7 JUMP JUMPDEST PUSH2 0x18C9 PUSH1 0x20 DUP4 ADD DUP6 PUSH2 0x15D2 JUMP JUMPDEST PUSH2 0x18D6 PUSH1 0x40 DUP4 ADD DUP5 PUSH2 0x14C7 JUMP JUMPDEST SWAP5 SWAP4 POP POP POP POP JUMP JUMPDEST PUSH0 DUP2 MLOAD SWAP1 POP SWAP2 SWAP1 POP JUMP JUMPDEST PUSH0 DUP3 DUP3 MSTORE PUSH1 0x20 DUP3 ADD SWAP1 POP SWAP3 SWAP2 POP POP JUMP JUMPDEST PUSH0 PUSH2 0x1902 DUP3 PUSH2 0x18DE JUMP JUMPDEST PUSH2 0x190C DUP2 DUP6 PUSH2 0x18E8 JUMP JUMPDEST SWAP4 POP PUSH2 0x191C DUP2 DUP6 PUSH1 0x20 DUP7 ADD PUSH2 0x13A9 JUMP JUMPDEST PUSH2 0x1925 DUP2 PUSH2 0x13D1 JUMP JUMPDEST DUP5 ADD SWAP2 POP POP SWAP3 SWAP2 POP POP JUMP JUMPDEST PUSH0 PUSH1 0x80 DUP3 ADD SWAP1 POP PUSH2 0x1943 PUSH0 DUP4 ADD DUP8 PUSH2 0x14C7 JUMP JUMPDEST PUSH2 0x1950 PUSH1 0x20 DUP4 ADD DUP7 PUSH2 0x14C7 JUMP JUMPDEST PUSH2 0x195D PUSH1 0x40 DUP4 ADD DUP6 PUSH2 0x15D2 JUMP JUMPDEST DUP2 DUP2 SUB PUSH1 0x60 DUP4 ADD MSTORE PUSH2 0x196F DUP2 DUP5 PUSH2 0x18F8 JUMP JUMPDEST SWAP1 POP SWAP6 SWAP5 POP POP POP POP POP JUMP JUMPDEST PUSH0 DUP2 MLOAD SWAP1 POP PUSH2 0x1988 DUP2 PUSH2 0x1307 JUMP JUMPDEST SWAP3 SWAP2 POP POP JUMP JUMPDEST PUSH0 PUSH1 0x20 DUP3 DUP5 SUB SLT ISZERO PUSH2 0x19A3 JUMPI PUSH2 0x19A2 PUSH2 0x12D4 JUMP JUMPDEST JUMPDEST PUSH0 PUSH2 0x19B0 DUP5 DUP3 DUP6 ADD PUSH2 0x197A JUMP JUMPDEST SWAP2 POP POP SWAP3 SWAP2 POP POP JUMP JUMPDEST PUSH0 PUSH1 0x40 DUP3 ADD SWAP1 POP PUSH2 0x19CC PUSH0 DUP4 ADD DUP6 PUSH2 0x14C7 JUMP JUMPDEST PUSH2 0x19D9 PUSH1 0x20 DUP4 ADD DUP5 PUSH2 0x15D2 JUMP JUMPDEST SWAP4 SWAP3 POP POP POP JUMP INVALID MLOAD PUSH14 0x615877724B6B613133634E4C4548 GASLIMIT GAS PUSH14 0x5774627462797362536646435675 PUSH14 0x4858756D635A667574587736A264 PUSH10 0x706673582212202B11AD 0x1F SHR 0xD3 DUP8 MSTORE NOT COINBASE SWAP12 CALLCODE 0x2D MLOAD PUSH26 0xD48E7DD42754DE0D3A3BF76655A1AD5FFC64736F6C6343000815 STOP CALLER "
				},
				"gasEstimates": {
					"creation": {
						"codeDepositCost": "1344800",
						"executionCost": "infinite",
						"totalCost": "infinite"
					},
					"external": {
						"approve(address,uint256)": "infinite",
						"balanceOf(address)": "infinite",
						"getApproved(uint256)": "infinite",
						"isApprovedForAll(address,address)": "infinite",
						"minting(uint256)": "102589",
						"name()": "infinite",
						"ownerOf(uint256)": "infinite",
						"safeTransferFrom(address,address,uint256)": "infinite",
						"safeTransferFrom(address,address,uint256,bytes)": "infinite",
						"setApprovalForAll(address,bool)": "infinite",
						"supportsInterface(bytes4)": "787",
						"symbol()": "infinite",
						"tokenURI(uint256)": "infinite",
						"transferFrom(address,address,uint256)": "infinite"
					},
					"internal": {
						"_baseURI()": "infinite"
					}
				},
				"methodIdentifiers": {
					"approve(address,uint256)": "095ea7b3",
					"balanceOf(address)": "70a08231",
					"getApproved(uint256)": "081812fc",
					"isApprovedForAll(address,address)": "e985e9c5",
					"minting(uint256)": "f2cee92b",
					"name()": "06fdde03",
					"ownerOf(uint256)": "6352211e",
					"safeTransferFrom(address,address,uint256)": "42842e0e",
					"safeTransferFrom(address,address,uint256,bytes)": "b88d4fde",
					"setApprovalForAll(address,bool)": "a22cb465",
					"supportsInterface(bytes4)": "01ffc9a7",
					"symbol()": "95d89b41",
					"tokenURI(uint256)": "c87b56dd",
					"transferFrom(address,address,uint256)": "23b872dd"
				}
			},
			"storageLayout": {
				"storage": [
					{
						"astId": 219,
						"contract": "myNFT.sol:MyNFT",
						"label": "_name",
						"offset": 0,
						"slot": "0",
						"type": "t_string_storage"
					},
					{
						"astId": 221,
						"contract": "myNFT.sol:MyNFT",
						"label": "_symbol",
						"offset": 0,
						"slot": "1",
						"type": "t_string_storage"
					},
					{
						"astId": 225,
						"contract": "myNFT.sol:MyNFT",
						"label": "_owners",
						"offset": 0,
						"slot": "2",
						"type": "t_mapping(t_uint256,t_address)"
					},
					{
						"astId": 229,
						"contract": "myNFT.sol:MyNFT",
						"label": "_balances",
						"offset": 0,
						"slot": "3",
						"type": "t_mapping(t_address,t_uint256)"
					},
					{
						"astId": 233,
						"contract": "myNFT.sol:MyNFT",
						"label": "_tokenApprovals",
						"offset": 0,
						"slot": "4",
						"type": "t_mapping(t_uint256,t_address)"
					},
					{
						"astId": 239,
						"contract": "myNFT.sol:MyNFT",
						"label": "_operatorApprovals",
						"offset": 0,
						"slot": "5",
						"type": "t_mapping(t_address,t_mapping(t_address,t_bool))"
					}
				],
				"types": {
					"t_address": {
						"encoding": "inplace",
						"label": "address",
						"numberOfBytes": "20"
					},
					"t_bool": {
						"encoding": "inplace",
						"label": "bool",
						"numberOfBytes": "1"
					},
					"t_mapping(t_address,t_bool)": {
						"encoding": "mapping",
						"key": "t_address",
						"label": "mapping(address => bool)",
						"numberOfBytes": "32",
						"value": "t_bool"
					},
					"t_mapping(t_address,t_mapping(t_address,t_bool))": {
						"encoding": "mapping",
						"key": "t_address",
						"label": "mapping(address => mapping(address => bool))",
						"numberOfBytes": "32",
						"value": "t_mapping(t_address,t_bool)"
					},
					"t_mapping(t_address,t_uint256)": {
						"encoding": "mapping",
						"key": "t_address",
						"label": "mapping(address => uint256)",
						"numberOfBytes": "32",
						"value": "t_uint256"
					},
					"t_mapping(t_uint256,t_address)": {
						"encoding": "mapping",
						"key": "t_uint256",
						"label": "mapping(uint256 => address)",
						"numberOfBytes": "32",
						"value": "t_address"
					},
					"t_string_storage": {
						"encoding": "bytes",
						"label": "string",
						"numberOfBytes": "32"
					},
					"t_uint256": {
						"encoding": "inplace",
						"label": "uint256",
						"numberOfBytes": "32"
					}
				}
			},
			"userdoc": {
				"kind": "user",
				"methods": {},
				"version": 1
			}
		}
	}
}